:020000040000FA
:060000000219E0020328D2
:03000B0002F9B047
:030013000203B62F
:03001B000200BD23
:03002B000202F4DA
:03003B0002F93097
:03005B000203C5D8
:1000730053E67FC2AF7592FA7593FFD2AF53917F68
:0C008300302D08C22D303B0302F9703212
:03009B0002F990D7
:1000A0004A4553433031202020202020202020208A
:1000B0000406080C10182030406080A0C0C2AFC2F7
:1000C000A853E6EFC28E85618BC0D0D2D3C0E0C00A
:1000D000F0C2CAA8CCA9CDD2CAD2AF758A00C3E8F3
:1000E0009562F8E99563F9C3E913F9E813F8C3E9F0
:1000F00013F9E813F8E9701DE89564401895645009
:1001000014E582B4100F7C007B007A00790890001F
:1001100000A860211E900000D2A8D2AA6134E0FDA0
:10012000C39CC39840EF98EB33FB0582E0FCC39D72
:10013000C39840E198EB33FB0582E0FDC39CC39874
:1001400040D398EB33FB0582E0FCC39DC39840C5C8
:1001500098EB33FB0582E0FDC39CC39840B798EB56
:1001600033FB0582E0FCC39DC39840A998EB33FBA9
:100170000582E0FDC39CC398409B98EB33FB05824E
:10018000E0FCC39DC398408D98EB33FB0582219919
:10019000900000D2A8D2AA6134E0FDC39CC398406D
:1001A000EF98EA33FA0582E0FCC39DC39840E198DA
:1001B000EA33FA0582E0FDC39CC39840D398EA3342
:1001C000FA0582E0FCC39DC39840C598EA33FA055E
:1001D00082E0FDC39CC39840B798EA33FA0582E0F9
:1001E000FCC39DC39840A998EA33FA0582E0FDC399
:1001F0009CC398409B98EA33FA0582E0FCC39DC3F8
:1002000098408D98EA33FA0582EBC46B6A54F0F992
:10021000EAC4303301F454F0C3996009900000D26D
:10022000A8D2AA6134D2C0EBF4C454F0F9EAF4C401
:10023000540F49FAEBF4C4540FFBC3EAF99460FA83
:10024000EB9400FB5020C3E97B007A007900601634
:10025000C3135006F9C3954D600AE9F54D754E007C
:1002600079008002054E303A27C3EA94D0F8EB9427
:1002700007F9400BE8FAE9FB203109D2314184301B
:100280003102C231203902B231C3EA33FAEB33FB17
:10029000EB2B3B3BF9C3EB13FBEA13FAEA29FAEB2E
:1002A0003400FB30E3047AFF7BFFE5255403601B39
:1002B000202A18E55833F9EB7007C3E99A4002E9A0
:1002C000FAE536C4332AFAEB3400FBC3EA33C454EC
:1002D0000FF8EB33C454F048F87005EA6002780177
:1002E000900000E52260021522614A900000D2A829
:1002F000D2AA6134C0D0C0E0C2CF053AE55C600547
:10030000755C006123755C01E52360021523C3E57C
:100310004F60057550006123E5502401F5505003EE
:100320007550FFD0E0D0D032C0E0E58A85618BF017
:10033000A3D0E0320522E52270021522C3E5229403
:100340003250026196754F006199884FD230E86053
:1003500003755000C3E556FC95574002AC57C3ECFB
:10036000954F5008EC75F008A4FAABF0EAF4F8EBFE
:10037000F45407F9C3E8940AFAE99400FB50047AAC
:10038000007B00885189528A538B5475230A53F796
:10039000DF43F740800375230AE5E6A2E082C04010
:1003A0000ED0F0D0E0D0D0D2A8D2AA43E61032D0FE
:1003B000F0D0E0D0D032C2AAD28EC2CA85CC62853B
:1003C000CD63D2CA32C2AFC0D0C0E0D2D3A8F9E563
:1003D0005530E20AE5FA20E22E20E12B61E6E5FA4B
:1003E00030E22420E121C3E55213F8E55113F5E989
:1003F00088EAC3E55413F8E55313F5FB88FC8552EE
:100400005553F7BF53E6EF53F7DFD0E0D0D0D2AF6C
:10041000327901801879038014790A8010790F806D
:100420000C791E80087964800479C880007814747F
:10043000F0000000D5E0FAD8F6D9F2227901801454
:1004400079038010790A800C791E80087964800411
:1004500079C880007591007594307595F97591048F
:10046000D22D43E680303B0BC2AF302D0912F9503C
:1004700075A700202DFDD2AFD9DA2278FF202828D9
:1004800079A1E76023E571601F74FF8571F08485B1
:1004900039F030290375F005A4F8C5F0600278FF43
:1004A000C3E895585002A858885722C3E57094A015
:1004B000E5719400E55750031481BC046002F557C0
:1004C0002275E890220559C3E5599408405330ED50
:1004D000F4A8BDA9BE755900E9FA79A0E76041EA20
:1004E0007006E55A6018800CC3E8955A600EE55A0C
:1004F0005005600A1480070460FA8002E55AF55A34
:10050000C3955F401B7556C0C39404401375568055
:10051000C39404400B755640C394044003755600C1
:1005200022E5562410500274FFF55622743279A643
:1005300087F0A4C5F0A2F733F558227570007571E5
:10054000F022C2AFC2CAA8CCA9CDAA3A30CF010AC4
:10055000D2CAD2AFC3EA13FAE913F9E813F8853B1C
:100560003E853C3F883B893C8A3D22C2AFC2CAA837
:10057000CCA9CDAA3A30CF010AD2CAD2AFC3EA136E
:10058000FAE913F9E813F8AB3BAC3C883B893CC370
:10059000E89BF8E99C8840F54120280B547FF9300E
:1005A0002C030206908041AD3D8A3DF9EA9D547FBF
:1005B000FA600678FF79FF8013AE3EAF3F8B3E8C2A
:1005C0003FA83BA93CC3E89EF8E99FF9C3E5711336
:1005D000FBE57013FAE82AF570E93BF571500675F2
:1005E00070FF7571FF020635AA70AB71AC70AD710A
:1005F0007E047F02C3EB9404400D1E1FC3EB9408DE
:1006000040052029021E1FC3ED13FDEC13FCDEF78D
:10061000C3EA9CFAEB9DFBEF6009C3E913F9E81309
:10062000F8DFF7EA28FAEB39FB8A708B7150067B0A
:10063000FF8B708B71C3EB94025002D22C302805D3
:100640007F030206617892E6FFC3E537948240118A
:100650000FC3E53794A040010FC3EF940640027F1B
:10066000057E02E571C4540FF9E571C454F0F8E554
:1006700070C4540F28F8C3E89EFAE99400FB4009BF
:10068000C3EA9401EB940050047A01E4FB0206DC17
:10069000AA70AB71EBC4FEEAC4540F4EFCC3EA9CD3
:1006A000FAEB9400FBC3E813C313F8EA28FAEB341F
:1006B00000FB8A708B71C3EB94024002C22C78025B
:1006C000EBC4FE7B00EAC4540F4EFAC3EA98FA402A
:1006D00005C3940150027A017892E6FF303B0BC2C9
:1006E000AF302D0912F95075A700202DFDD2AF852E
:1006F0004992854A93D22D43E680C3E49AF8E49B5D
:10070000F9C3E833F8E933F9302C0302077FE8FA3C
:10071000E9FBD3E913FDE813FC8849894AC3EF9448
:10072000036038EF20E00CE82CF8E93DF9ECFAED35
:10073000FB8013E828F8E939F9C3E82401F8E93423
:1007400000F97AFF7BFFC3EF9403400F8A4B8B4C79
:10075000884589468C478D480207B4884B894C8A66
:10076000458B468C478D48302812754BF0754CFFF1
:100770007547F07548FF7549F0754AFF0207B4E800
:10078000FAD3E813FC8849C3EF94036021EF20E01B
:1007900007E82CF8ECFAE19FE8282401F87AFFC377
:1007A000EF940340098A4B88458C470207B4884B75
:1007B0008A458C47303B0BC2AF302D0912F950757A
:1007C000A700202DFDD2AF753402D22D43E680E57F
:1007D0002554036034A870A971C3E913F9E813F82C
:1007E000C3E913F9E813F8302804E92440F9C2AF4B
:1007F00053E67F759100C3E498F594E499F59575F7
:100800009104D22D43E680D2AF22D22075440075E8
:100810002000302B03752040800ED22075440075D7
:100820002040302B0375200078017901202C28E529
:100830002554036002C2207919E571C313700104C5
:10084000F8C3941940027819302804781B791BC327
:10085000E833F8C3E933F9202D11E544600D302861
:1008600003D53404D22101DF1207CA0544E59B54A5
:1008700040B5200201C730280908C3E89940011893
:10088000015720200B08C3E89940030208280157AC
:10089000C22053E67F759100302C11759400759538
:1008A000F0759104D22D43E680020828E5717EFFA1
:1008B000C3334009C3334005C3334001FEC3E49E44
:1008C000759400F59501A1C3E53394015003020826
:1008D00028302003020828D80201DD0157C221C2B6
:1008E000AF53E67F759100854B94854C95759104C7
:1008F000854592854693D22D43E680D2AFE52554B7
:100900000360072029020533801030210D202B0AB7
:10091000202007158115810211FC22780030200269
:100920007801E53775F007A4F9E5F028F5F0E9A2BC
:10093000F013A2F113A2F213F537C39478500375A4
:100940003778C3E5379538400CC296C294C290758B
:10095000D4FF75D57F303B0BC2AF302D0912F95053
:1009600075A700202DFDD2AF854792854893D22DE3
:1009700043E68022C2AF53E67F759100854594859A
:100980004695854792854893759104D22D43E6801C
:10099000D2AF22203813C2AFC291D29575D47F75E1
:1009A000D57ED2AF759F124187C2AFC291D28775F3
:1009B000D4FF75D51FD2AF759F124187203813C25F
:1009C000AFC29075D4FF75D56DD295D2AF759F32F9
:1009D0004187C2AFC29675D4FF75D56DD287D2AFAD
:1009E000759F024187203813C2AFC295D28775D454
:1009F000FF75D56DD2AF759F024187C2AFC287D256
:100A00009575D4FF75D56DD2AF759F32807920383A
:100A100013C2AFC29475D4FF75D51FD287D2AF75FC
:100A20009F128063C2AFC29475D47F75D57ED29574
:100A3000D2AF759F128050203813C2AFC287D291B7
:100A400075D4FF75D51FD2AF759F32803AC2AFC241
:100A500095D29175D47F75D57ED2AF759F028027D0
:100A6000203813C2AFC29675D47F75D57ED291D28D
:100A7000AF759F028011C2AFC29075D4FF75D51FAC
:100A8000D291D2AF759F32227A1C7B3C80127A14AD
:100A90007B4B800C7A107B5A80067A0A7B78800028
:100AA000E55BD5E0012275A91375A71075C1007526
:100AB000A7007902E4C291D5E0FDD294D5E0FDC251
:100AC00094D5E0FDD291D5E0FDE920E002D2963048
:100AD000E002D290E55BD5E0FDE920E002C296306D
:100AE000E002C2907496D5E0FDD9C9EAF8D5E0FDE0
:100AF000D8FBDBACC29175A71075C13075A7007526
:100B0000A90322C296C294C290C295C291C28775AF
:100B1000D4FF75D57F22788076FF0876FF0876FFB0
:100B20000876FF0876FF0876FF0876090876FF0842
:100B30007601788C76010876FF0876FF0876FF0844
:100B400076FF0876FF0876030876FF0876FF0876BA
:100B5000FF0876250876D0087628087650087604AF
:100B60000876FF0876020876FF08767A0876FF088E
:100B700076070876010876FF0876FF087600087683
:100B800000227888E6C39403D23A5002C23AC238AF
:100B9000E630E102D238A23892397886E614900025
:100BA000B09378A6F67886E6F539C39402500375BB
:100BB0003902789CE67538FFB402037538A0B40397
:100BC0000375388278A0E6F8600674282409D8FCFA
:100BD000F55F2278A5E6F954037000E9540C700023
:100BE000E954307000E954C0700022AA70AB71EB78
:100BF000C313F4FBEA13F4FA8A928B93D22D43E6E3
:100C00008022C2AF53E67F75910085459485469555
:100C1000759104854792854893D22D43E680D2AFE3
:100C200022755D00755E007597DE7597AD7581C0A4
:100C300043FF8075EF0675A90075A90071037580E3
:100C40007F75F1F075A48075807F75D4FF75900075
:100C500075F27375A57375900075D57F75A00075D5
:100C6000A60175A72075CC0175A70075E34075E254
:100C7000027103E4F8F6D8FD7116121232789886E4
:100C80005B75300175A71075C13075A70075A90394
:100C9000C2AF120429518812042112042112042126
:100CA000518E1204211204211204215194120421A4
:100CB000120421120421519A519A12042971D3C2AB
:100CC000AF75A71053CEEF75A70053A4DFD285757B
:100CD000A91375A71075C10075A700755D00755E35
:100CE0000078FA79FA308507D9FBD8F7021C00C2E0
:100CF000AF71827898865B710375A71075C13075E6
:100D0000A70075A90375C804759104C22D75D84054
:100D100075D90875F782759E0375960175DB427566
:100D2000DA4275A82175E61075B801759B80759D2E
:100D30000075D10C75BCB975BB1075E88075B20132
:100D4000120411900000758800757220903E00E436
:100D500093B45419A3E493B44C13A3E493B4580D7F
:100D6000A3E493B4010712F900D23B8002C23B9086
:100D70000000753600C230754D00754E0075E45D9B
:100D8000D2337588517589AA758C00758D00C2A9FA
:100D9000D2ABD2AAD2AF758E0C7561007560287582
:100DA000642875220A12044C756020C3E522940A57
:100DB000754D00754E00404C75E4D5C233758E0CF0
:100DC00075610075602875642875220A12044C75D7
:100DD0006020C3E522940A754D00754E00402575CC
:100DE0008E0C75618075601475641475220A120486
:100DF0004C756010C3E522940A754D00754E004095
:100E000003020CBF120440203003020CBFC2AFA289
:100E100033823B4006519A519A800451945194D2A6
:100E2000AF12045012044CC3E54F9401400280EF0E
:100E3000C2AFA233823B401D5188D2AF12044CC2D4
:100E4000AF5188D2AF12044CC2AF5188D2AF120456
:100E50004CC2AF8006519A519A519AD2AF120450A7
:100E6000753000757000757100754000754100E4C3
:100E7000F531F53275200005203001477520000559
:100E800031E531F4703D0532789AE6781914601234
:100E9000783214600D787D14600878FA1460037558
:100EA0003200C3E53298401B7103120411153275EC
:100EB00031007899865BC2AF519AD2AF7898865B41
:100EC00012044C120444E523700281BF12043C302A
:100ED00030A5C3E54F9401500AC3E54D9401501667
:100EE000020E7712044CE5237003020CBF754D000F
:100EF000754E0002109CC3E54D94017016C2AF718F
:100F0000037899865B51887898865BD2AF12044C3F
:100F100002108BC3E54D94027016C2AF710378992D
:100F2000865B518E7898865BD2AF12044C02108B90
:100F3000C3E54D94037016C2AF71037899865B5177
:100F4000947898865BD2AF12044C02108BC3E54DA7
:100F500094047016C2AF71037899865B519A7898A1
:100F6000865BD2AF12044C02108BC3E54D94057022
:100F700016C2AF71037899865B519A7898865BD2D6
:100F8000AF12044C02108BC3E54D9407701AC3E5F1
:100F90004E94065002C1CC7401303A027403788832
:100FA000F6C238C23902108BC3E54D9408701AC3DB
:100FB000E54E94065002C1CC7402303A02740478B3
:100FC00088F6D238D23902108BC3E54D94097019D6
:100FD000C3E54E94065003020ECC303A0CC3788819
:100FE000E69402F6C23A02108BC3E54D940A7017DC
:100FF000C3E54E94065003020ECC203A0A7888E6E8
:101000002402F6D23A018BC3E54D94147026C3E551
:101010004E94065003020ECCC2AF901A0B7400938C
:10102000D2AF7888F613C238C2394002D2384002B3
:10103000D2398057C3E54D94157038C3E54E9406F8
:10104000404FC2AF901A0B740093D2AFF8B80102B0
:101050007402B802027401B803027404B804027482
:10106000037888F613C238C2394002D2384002D21F
:10107000398018C3E54D940C7011755DA5755EF14E
:10108000C3E54E9406400A5179D2AF754E00754DB6
:1010900000755D00755E00C230020ECCC2AF120B4F
:1010A00003E4D2AFE4F559F524F525F53775590871
:1010B00012043C1204C130EDFDA8BDA9BEE97001C7
:1010C000F8885A1204C5755908C2AF12052C855804
:1010D00056855857D2AF303A07C238303102D2382D
:1010E000D228753300120A37120A6012053B120526
:1010F0006B12053B12056B12053B12081A12091BF5
:1011000012099312056B12080A202C0312047B307B
:101110002C031204AB12091B1209BC12056B120836
:101120001A12091B1209E512056B12080A12091B93
:10113000120A0E12056B12081A12091B120A371234
:10114000056B1204C112080A12091B120A6012046C
:10115000C512056B30282785585679187A0CC3E5D7
:101160003399400EC228D2298A358558568558575A
:10117000800CC3E54F940140030210FA410430296A
:101180001F202B1CE535147006C229D22A01FAF55E
:1011900035203A07C3E54F940140030210FA8064FA
:1011A000753600203A0F78FA79A4E760027803C315
:1011B000E55098504FE523604B303A172038052012
:1011C0003107800F303102800A202B07D22B85583F
:1011D00056212A78F0302B058558567820C3E571C2
:1011E0009850030210FA302B1BC22BC23830310248
:1011F000D238D22975351285585601FA0536E54F91
:1012000060024107753600C2AF120B0375240075EA
:101210002500D2AF120425120B0378A4E66006D293
:1012200095D291D287C3E53694044003020CBF02E5
:101230000E63901A0D782051B2E520B4550AA351DF
:10124000B2E520B4AA028013755DA5755EF1120B9C
:10125000165179755D00755E00801D901A037880C7
:101260007B0A51B2A308DBFA901A0F788C7B1A51D3
:10127000B2A308DBFA901A2922C2AF51F551D290DD
:101280001A00740151B7A3740351B7A3742151B765
:10129000901A0378807B0A51B6A308DBFA901A0FE4
:1012A000788C7B1A51B6A308DBFA710851E6901AC4
:1012B0002922E493F622E6438F01538FFDFFC3E515
:1012C00083941C400122EF855DB7855EB7F0538F94
:1012D000FE22438F02438F01855DB7855EB7901A6A
:1012E0000DF0538FFC22901A0D745551B7901A0EC1
:1012F00074AA51B7227A3079D07820901A4051B22E
:10130000E520F709A3DAF7227A3079D0901A40E77E
:1013100051B709A3DAF9227C05120429DCFB22C2A9
:08132000AF120A88D2AF2222AD
:1019E0007597DE7597AD43EF02B4A5030219FD901C
:0A19F000FBFDE493B4A5F502FBC073
:1019FD00020C21010321FFFFFFFFFFFF09FF01FF84
:101A0D0055AA01FFFFFFFFFF03FFFFFF25D0285061
:0D1A1D0004FF02FF7AFF0701FFFF0000FF3A
:101A400023565F485F30352320202020202020208F
:101A500023424C48454C492445464D3842323123B7
:101A60002020202020202020202020202020202076
:101C0000C2AFC2D37597DE7597AD7581C075A90057
:101C100075A90043FF80752438752503B1DE752949
:101C2000A5752AF143F12053A4DFD28575D4FF7541
:101C3000E3407DFA780379E67C1075220075230075
:101C4000901DEB7B06752498752501308502814B2C
:101C5000208508D8FBD9F9DCF781BD308508D8FB91
:101C6000D9F9DCF781BDB19EE493A3C39A6004DD8A
:101C7000C381BDDBDBB190600281347B08E493FA61
:101C8000A3B171DBF87A30B171752200752300B110
:101C900090EAFCEBFDC3ED94FE400EB1908A278BD9
:101CA00028ED30E0048A828B83B1907AC270D8C369
:101CB000ED94FE601950CEBD0029EC600F75200038
:101CC0007521FF752900752A000200008100A827F0
:101CD000A9280809D804D90281E0B194EAF281D494
:101CE0000D81A9C3ED94035051EDA2E092007AC595
:101CF000C3E5829400E583941C508C200010438F30
:101D000002438F018529B7852AB7F0300027A8271D
:101D1000A9280809438F01538FFDD804D902A135A2
:101D2000C3E583941C4003A3A11AE28529B7852A41
:101D3000B7F0A3A11A538FFC81857AC1BD030CE4CF
:101D400093A3FAB155DCF8B14D81858187AA22AB06
:101D500023B171EBFAEA6222752608C3E52313F575
:101D600023E52213F52250066323A0632201D52622
:101D7000EAB1DEB1DE75260AEAF4200102D285302E
:101D80000102C285B1DEC3134002C201D526EB2297
:101D9000B194EAFB208502A194308502A1997526B1
:101DA00008AE24AF25C3EF13FFEE13FEB1E2B1DEA0
:101DB000C3EA133085024480FA30E703632201C38B
:101DC000E52313F523E52213F52250066323A063D0
:101DD0002201D526D9E52265236523F52222AE24EA
:101DE000AF250E0FDEFEDFFCD20122424C48656CAF
:091DF0006934373164E8B20601E0
:00000001FF
