:020000040000FA
:090000000219E0858A6502036A19
:03000B0002F9B047
:03001300020417CD
:03001B000200FFE1
:03002B0002033697
:03003B0002F93097
:03005B0002042676
:10007300C2AF53E67F7592FA7593FFD2AF53917F68
:0C008300302D08C22D303B0302F9703212
:0E009B00C29FB285C574C886A5C804C574325C
:1000B0004A45534330312023323420202020202051
:1000C0000406080C10182030406080A0C0C2AFC0E9
:1000D00082C083903E00E493B4541BA3E493B44CD9
:1000E00015A3E493B4580FA3A3A3E493B404071295
:1000F000F900D23B8002C23BD083D082D2AF22C271
:10010000AFC2A8C2CAC28EC0D0D2D3A8CCA9CDD209
:10011000CAD2AF53E6EF85618BC0E0C0F0758A00AC
:10012000C3E89562F8E99563F9C3E913F9E813F8B0
:10013000C3E913F9E813F8E9701DE89573401895C1
:10014000735014E582B4100F7C007B007A007908AC
:10015000900000A8602160900000D2A8D2AA617629
:10016000E0FDC39CC39840EF98EB33FB0582E0FCB5
:10017000C39DC39840E198EB33FB0582E0FDC39C2F
:10018000C39840D398EB33FB0582E0FCC39DC39832
:1001900040C598EB33FB0582E0FDC39CC39840B794
:1001A00098EB33FB0582E0FCC39DC39840A998EB14
:1001B00033FB0582E0FDC39CC398409B98EB33FB67
:1001C0000582E0FCC39DC398408D98EB33FB05820C
:1001D00021DB900000D2A8D2AA6176E0FDC39CC3C7
:1001E0009840EF98EA33FA0582E0FCC39DC398403B
:1001F000E198EA33FA0582E0FDC39CC39840D398A6
:10020000EA33FA0582E0FCC39DC39840C598EA33FF
:10021000FA0582E0FDC39CC39840B798EA33FA051B
:1002200082E0FCC39DC39840A998EA33FA0582E0B6
:10023000FDC39CC398409B98EA33FA0582E0FCC357
:100240009DC398408D98EA33FA0582EBC46B6A54DB
:10025000F0F9EAC4303301F454F0C3996009900016
:1002600000D2A8D2AA6176D2C0EBF4C454F0F9EA65
:10027000F4C4540F49FAEBF4C4540FFBC3EAF994E5
:1002800060FAEB9400FB5020C3E97B007A00790010
:100290006016C3135006F9C3954D600AE9F54D7514
:1002A0004E0079008002054E303A27C3EA94D0F818
:1002B000EB9407F9400BE8FAE9FB203109D2314110
:1002C000C6303102C231203902B231C3EA33FAEB0F
:1002D00033FBEB2B3B3BF9C3EB13FBEA13FAEA29A5
:1002E000FAEB3400FB30E3047AFF7BFFE52554038F
:1002F000601B202A18E55833F9EB7007C3E99A40D0
:1003000002E9FAE536C4332AFAEB3400FBC3EA33D8
:10031000C4540FF8EB33C454F048F87005EA600297
:100320007801900000E52260021522618C900000A7
:10033000D2A8D2AA6176C0D0C0E0C2CF053AE55CAF
:100340006005755C006165755C01E523600215233D
:10035000C3E54F60057550006165E5502401F55017
:1003600050037550FFD0E0D0D032C0E0E565856124
:100370008BF0A3D0E0320522E52270021522C3E5FE
:10038000229432500261F7754F0061FA884FD230E3
:10039000E86003755000C3E556FC95574002AC5722
:1003A000C3EC954F5008EC75F008A4FAABF0EBF4F1
:1003B000135403F9EAF4FC13F8E56423F564EC54F0
:1003C000012431835564600BE82401E9340020E204
:1003D0000208F9C3E89446FAE99400FB50047A0055
:1003E0007B00885189528A538B5475230A53F7DF57
:1003F00043F7408005005575230AE5E6A2E082C078
:10040000400ED0F0D0E0D0D0D2A8D2AA43E610322D
:10041000D0F0D0E0D0D032C2AAD28EC2CA85CC628F
:1004200085CD63D2CA3253F7DFC0E0E5F9E5FA3093
:10043000E20F8551FB8552FC8553E98554EA53F759
:10044000BFD0E0327901801879038014790A8010D6
:10045000790F800C791E80087964800479C8800047
:1004600075A91375A71075C10075A700781474F0ED
:10047000000000D5E0FAD8F6D9F275A71075C130A2
:1004800075A70075A903227901801479038010797A
:100490000A800C791E80087964800479C880007510
:1004A00091007594307595F9759104D22D43E680CD
:1004B000303B0C53E67F302D0912F95075A7002010
:1004C0002DFDD9DB2278FF20282879A1E76023E5DC
:1004D00071601F74FF8571F0848539F030290375D0
:1004E000F005A4F8C5F0600278FFC3E89558500203
:1004F000A858885722C3E57094A0E5719400E55789
:10050000500314A106046002F5572275E8902205F5
:1005100059C3E5599408405330EDF4A8BDA9BE7500
:100520005900E9FA79A0E76041EA7006E55A6018D7
:10053000800CC3E8955A600EE55A5005600A148095
:10054000070460FA8002E55AF55AC3955F401B75AF
:1005500056C0C394044013755680C39404400B7571
:100560005640C39404400375560022E556241050AB
:100570000274FFF55622743279A687F0A4C5F0A262
:10058000F733F558227570007571F022C2AFC2CAF8
:10059000A8CCA9CDAA3A30CF010AD2CAD2AFC3EAB9
:1005A00013FAE913F9E813F8853B3E853C3F883B95
:1005B000893C8A3D22C2AFC2CAA8CCA9CDAA3A3092
:1005C000CF010AD2CAD2AFC3EA13FAE913F9E8138A
:1005D000F8AB3BAC3C883B893CC3E89BF8E99C20EA
:1005E000280B547FF9302C030206D68041AD3D8A9A
:1005F0003DF9EA9D547FFA600678FF79FF8013AEDB
:100600003EAF3F8B3E8C3FA83BA93CC3E89EF8E938
:100610009FF9C3E57113FBE57013FAE82AF570E959
:100620003BF57150067570FF7571FF02067BAA706D
:10063000AB71AC70AD717E047F02C3EB9404400DCE
:100640001E1FC3EB940840052029021E1FC3ED1393
:10065000FDEC13FCDEF7C3EA9CFAEB9DFBEF6009AF
:10066000C3E913F9E813F8DFF7EA28FAEB39FB8A54
:10067000708B7150067BFF8B708B71C3EB940250B3
:1006800002D22C3028057F030206A77892E6FFC32A
:10069000E537948240110FC3E53794A040010FC3A2
:1006A000EF940640027F057E02E571C4540FF9E520
:1006B00071C454F0F8E570C4540F28F8C3E89EFAEA
:1006C000E99400FB4009C3EA9401EB940050047ADA
:1006D00001E4FB020722AA70AB71EBC4FEEAC4542A
:1006E0000F4EFCC3EA9CFAEB9400FBC3E813C31360
:1006F000F8EA28FAEB3400FB8A708B71C3EB9402A2
:100700004002C22C7802EBC4FE7B00EAC4540F4EB8
:10071000FAC3EA98FA4005C3940150027A0178922C
:10072000E6FF303B0C53E67F302D0912F95075A7D8
:1007300000202DFD854992854A93D22D43E680C342
:10074000E49AF8E49BF9C3E833F8E933F9302C0371
:100750000207C4E8FAE9FBD3E913FDE813FC884972
:10076000894AC3EF94036038EF20E00CE82CF8E9E5
:100770003DF9ECFAEDFB8013E828F8E939F9C3E814
:100780002401F8E93400F97AFF7BFFC3EF940340BA
:100790000F8A4B8B4C884589468C478D480207F958
:1007A000884B894C8A458B468C478D48302812757A
:1007B0004BF0754CFF7547F07548FF7549F0754A69
:1007C000FF0207F9E8FAD3E813FC8849C3EF940362
:1007D0006021EF20E007E82CF8ECFAE1E4E82824B7
:1007E00001F87AFFC3EF940340098A4B88458C4790
:1007F0000207F9884B8A458C47303B0C53E67F3023
:100800002D0912F95075A700202DFD753402D22D47
:1008100043E680E5255403602DA870A971C3E91350
:10082000F9E813F8302804E92440F9C2AF53E67F11
:10083000759100C3E498F594E499F595759104D207
:100840002D43E680D2AF22D22075440075200030BF
:100850002B03752040800ED2207544007520403057
:100860002B0375200078017901202C28E5255403FD
:100870006002C2207905E571C313700104F8C394C6
:100880000540027805302804781B791BC3E833F84B
:10089000C3E933F9202D10E544600C302803D5342A
:1008A00004D221211C110E0544E59BF45440B520CF
:1008B00002210430280908C3E89940011801942056
:1008C000200B08C3E89940030208650194C2205335
:1008D000E67F759100302C117594007595F0759137
:1008E00004D22D43E680020865E5717EFFC33340E4
:1008F00009C3334005C3334001FEC3E49E75940031
:10090000F59501DEC3E533940150030208653020FC
:1009100003020865D802211A0194C221C2AF53E62E
:100920007F759100854B94854C9575910485459212
:10093000854693D22D43E680D2AFE5255403600768
:100940002029020533801030210D202B0A2020079A
:100950001581158102121B2278003020027801E5F2
:100960003775F007A4F9E5F028F5F0E9A2F013A235
:10097000F113A2F213F537C394785003753778C397
:10098000E53795384009C290C292C29475D53F3080
:100990003B0C53E67F302D0912F95075A700202D2E
:1009A000FD854792854893D22D43E68022C2AF53FE
:1009B000E67F7591008545948546958547928548E3
:1009C00093759104D22D43E680D2AF22203810C215
:1009D000AFD293C29175D50FD2AF759F03419CC220
:1009E000AFD293C29575D53CD2AF759F03419C2081
:1009F0003810C2AFC29475D533C291D2AF759F1370
:100A0000419CC2AFC29075D533C295D2AF759F23BA
:100A1000419C203810C2AFD291C29575D533D2AF68
:100A2000759F238077C2AFD295C29175D533D2AF6F
:100A3000759F138067203810C2AFC29275D53CC233
:100A400095D2AF759F038054C2AFC29275D50FC2C5
:100A500091D2AF759F038044203810C2AFD295C2A7
:100A60009375D53CD2AF759F138031C2AFD291C27E
:100A70009375D50FD2AF759F238021203810C2AF58
:100A8000C29075D50FC293D2AF759F23800EC2AFAF
:100A9000C29475D53CC293D2AF759F13227A1C7B4A
:100AA0003C80127A147B4B800C7A107B5A80067A39
:100AB0000A7B788000E55BD5E0012275A91375A754
:100AC0001075C10075A7007902E4D293D5E0FDD27C
:100AD00092D5E0FDC292D5E0FDC293D5E0FDE920BC
:100AE000E002D29030E002D294E55BD5E0FDE9204F
:100AF000E002C29030E002C2947496D5E0FDD9C9FC
:100B0000EAF8D5E0FDD8FBDBACD29375A71075C130
:100B10003075A70075A90322C290C292C294D291E7
:100B2000D293D29575D53F22788076FF0876FF085C
:100B300076FF0876FF0876FF0876FF0876090876C4
:100B4000FF087601788C76010876FF0876FF087634
:100B5000FF0876FF0876FF0876030876FF0876FF21
:100B60000876FF0876250876D0087628087650089B
:100B700076040876FF0876020876FF08767A08760B
:100B8000FF0876070876010876FF0876FF087600EA
:100B9000087600227888E6C39403D23A5002C23A1B
:100BA000C238E630E102D238A23892397886E614AB
:100BB0009000C09378A6F67886E6F539C394025083
:100BC00003753902789CE67538FFB402037538A0C6
:100BD000B4030375388278A0E6F860067428240907
:100BE000D8FCF55F2278A5E6F954037000E9540CAF
:100BF0007000E954307000E954C0700022AA70AB54
:100C000071EBC313F4FBEA13F4FA8A928B93D22D9F
:100C100043E68022C2AF53E67F75910085459485F7
:100C20004695759104854792854893D22D43E68079
:100C3000D2AF22755D00755E007597DE7597AD7554
:100C400081C043FF8075EF0675A90075A900711872
:100C50007580FF75F1F075A4007580FF75D4FF7580
:100C6000902A75F23F75A53F75902A75D53F75A0FE
:100C70000075A60175A72075CC0175A70075E34026
:100C800075E2027118E4F8F6D8FD71281212517855
:100C900098865B75300175640175A71075C1307554
:100CA000A70075A903C2AF12045C519D1204501233
:100CB000045012045051A312045012045012045054
:100CC00051A912045012045012045051AF51AF12E6
:100CD000045871E5C2AF75A71053CEEF75A7005346
:100CE000A4DFD28575A91375A71075C10075A7007B
:100CF000755D00755E00AAE475E4D578FA79FA307E
:100D00008509D9FBD8F7021C008AE4C2AF71947838
:100D100098865B711875A71075C13075A70075A905
:100D20000375C804759104C22D75D84075D908752E
:100D3000F782759E0375960075DA4275DB4275A8D9
:100D40002175E61075B801759B80759D0075D10CF5
:100D500075BCB975BB1075E88075B201120444907A
:100D600000007588007572201200CD753600C23003
:100D7000754D00754E0075E45DD2337588517589E7
:100D8000AA758C00758D00C2A9D2ABD2AAD2AF755C
:100D90008E0C75610075602875732875220A12041F
:100DA00097756020C3E522940A754D00754E00408A
:100DB0006E758E0C75618075601475731475220ADA
:100DC000120497756010C3E522940A754D00754EA4
:100DD00000404C75E4D5C233758E0C7561007560AA
:100DE0002875732875220A120497756020C3E522BE
:100DF000940A754D00754E004025758E0C75618006
:100E000075601475731475220A120497756010C307
:100E1000E522940A754D00754E004003020CD41271
:100E200000CD12048B203003020CD4C2AFA2338257
:100E30003B400651AF51AF800451A951A9D2AF1226
:100E4000049B120497C3E54F9401400280EFC2AFA8
:100E5000A233823B401D519DD2AF120497C2AF51C5
:100E60009DD2AF120497C2AF519DD2AF120497C268
:100E7000AF800651AF51AF51AFD2AF12049B753066
:100E800000757000757100754000754100E4F53122
:100E9000F53275200005203001477520000531E549
:100EA00031F4703D0532789AE67819146012783280
:100EB00014600D787D14600878FA146003753200B0
:100EC000C3E53298401B7118120444153275310085
:100ED0007899865BC2AF51AFD2AF7898865B120427
:100EE0009712048FE523700281D41204873030A555
:100EF000C3E54F9401500AC3E54D94015016020E0C
:100F000095120497E5237003020CD4754D00754EBD
:100F1000000210BBC3E54D94017016C2AF71187882
:100F200099865B519D7898865BD2AF120497021028
:100F3000AAC3E54D94027016C2AF71187899865B0A
:100F400051A37898865BD2AF1204970210AAC3E52A
:100F50004D94037016C2AF71187899865B51A978C9
:100F600098865BD2AF1204970210AAC3E54D940491
:100F70007016C2AF71187899865B51AF7898865B0E
:100F8000D2AF1204970210AAC3E54D94057016C2A1
:100F9000AF71187899865B51AF7898865BD2AF12A3
:100FA00004970210AAC3E54D9407701BC3E54E9445
:100FB000065002020EEA7401303A0274037888F691
:100FC000C238C2390210AAC3E54D9408701BC3E5AC
:100FD0004E94065002020EEA7402303A027404780B
:100FE00088F6D238D2390210AAC3E54D9409701898
:100FF000C3E54E94065003020EEA303A0BC37888DC
:10100000E69402F6C23A01AAC3E54D940A7017C3EA
:10101000E54E94065003020EEA203A0A7888E62448
:1010200002F6D23A01AAC3E54D94147026C3E54EE8
:1010300094065003020EEAC2AF901A0B740093D2CA
:10104000AF7888F613C238C2394002D2384002D293
:10105000398057C3E54D94157038C3E54E9406406A
:101060004FC2AF901A0B740093D2AFF8B80102745C
:1010700002B802027401B803027404B804027403D3
:101080007888F613C238C2394002D2384002D239C9
:101090008018C3E54D940C7011755DA5755EF1C3A4
:1010A000E54E9406400A5198D2AF754E00754D003A
:1010B000755D00755E00C230020EEAC2AF120B18F9
:1010C000E4D2AFE4F559F524F525F5377559081242
:1010D000048712050B30EDFDA8BDA9BEE97001F82B
:1010E000885A12050F755908C2AF120576855856F1
:1010F000855857D2AF303A07C238303102D238D291
:1011000028753300120A58120A7B1205851205B59C
:101110001205851205B512058512085712095812D5
:1011200009CC1205B5120847202C031204C5302C37
:10113000031204F51209581209EF1205B5120857E7
:10114000120958120A121205B5120847120958124C
:101150000A351205B5120857120958120A58120515
:10116000B512050B120847120958120A7B12050F17
:101170001205B530282785585679187A0CC3E533FF
:1011800099400EC228D2298A3585585685585780ED
:101190000CC3E54F94014003021119412330291F6C
:1011A000202B1CE535147006C229D22A2119F535E9
:1011B000203A07C3E54F940140030211198064757A
:1011C0003600203A0F78FA79A4E760027803C3E585
:1011D0005098504FE523604B303A172038052031A6
:1011E00007800F303102800A202B07D22B855856FA
:1011F000214978F0302B058558567820C3E5719841
:101200005003021119302B1BC22BC238303102D2CD
:1012100038D22975351285585621190536E54F60A3
:10122000024126753600C2AF120B18752500D2AFE9
:10123000120497120B1875240078A4E66006C29178
:10124000C293C295C3E53694044003020CD4020E47
:1012500081901A0D782051D1E520B4550AA351D1BF
:10126000E520B4AA028013755DA5755EF1120B2806
:101270005198755D00755E00801D901A0378807B23
:101280000A51D1A308DBFA901A0F788C7B1A51D13E
:10129000A308DBFA901A2922C2AF711451F1901AF7
:1012A00000740251D6A3740351D6A3742151D69071
:1012B0001A0378807B0A51D5A308DBFA901A0F78BD
:1012C0008C7B1A51D5A308DBFA71277105901A2976
:1012D00022E493F622E6438F01538FFDFFC3E5839B
:1012E000941C400122EF855DB7855EB7F0538FFEF9
:1012F00022438F02438F01855DB7855EB7901A0D3B
:10130000F0538FFC22901A0D745551D6901A0E741A
:10131000AA51D6227A3079D07820901A4051D1E55E
:1013200020F709A3DAF7227A3079D0901A40E751F2
:10133000D609A3DAF9227C0512045CDCFB22C2AFD9
:07134000120A9DD2AF222228
:1019E0007597DE7597AD43EF02B4A5030219FD901C
:0A19F000FBFDE493B4A5F502FBC073
:1019FD00020C33020321FFFFFFFFFFFF09FF01FF71
:101A0D0055AA01FFFFFFFFFF03FFFFFF25D0285061
:0D1A1D0004FF02FF7AFF0701FFFF0000FF3A
:101A4000234F5F485F373023202020202020202094
:101A500023424C48454C492445464D3842323123B7
:101A60002020202020202020202020202020202076
:101C0000C2AFC2D37597DE7597AD7581C075A90057
:101C100075A90043FF80752438752503B1DE752949
:101C2000A5752AF143F12053A4DFD28575D4FF7541
:101C3000E3407DFA780379E67C1075220075230075
:101C4000901DEB7B06752498752501308502814B2C
:101C5000208508D8FBD9F9DCF781BD308508D8FB91
:101C6000D9F9DCF781BDB19EE493A3C39A6004DD8A
:101C7000C381BDDBDBB190600281347B08E493FA61
:101C8000A3B171DBF87A30B171752200752300B110
:101C900090EAFCEBFDC3ED94FE400EB1908A278BD9
:101CA00028ED30E0048A828B83B1907AC270D8C369
:101CB000ED94FE601950CEBD0029EC600F75200038
:101CC0007521FF752900752A000200008100A827F0
:101CD000A9280809D804D90281E0B194EAF281D494
:101CE0000D81A9C3ED94035051EDA2E092007AC595
:101CF000C3E5829400E583941C508C200010438F30
:101D000002438F018529B7852AB7F0300027A8271D
:101D1000A9280809438F01538FFDD804D902A135A2
:101D2000C3E583941C4003A3A11AE28529B7852A41
:101D3000B7F0A3A11A538FFC81857AC1BD030CE4CF
:101D400093A3FAB155DCF8B14D81858187AA22AB06
:101D500023B171EBFAEA6222752608C3E52313F575
:101D600023E52213F52250066323A0632201D52622
:101D7000EAB1DEB1DE75260AEAF4200102D285302E
:101D80000102C285B1DEC3134002C201D526EB2297
:101D9000B194EAFB208502A194308502A1997526B1
:101DA00008AE24AF25C3EF13FFEE13FEB1E2B1DEA0
:101DB000C3EA133085024480FA30E703632201C38B
:101DC000E52313F523E52213F52250066323A063D0
:101DD0002201D526D9E52265236523F52222AE24EA
:101DE000AF250E0FDEFEDFFCD20122424C48656CAF
:091DF0006934373164E8B20601E0
:00000001FF
