:020000040000FA
:060000000219E002036E8C
:03000B0002F9B047
:030013000203FCE9
:03001B000200FDE3
:03002B0002033A93
:03003B0002F93097
:03005B0002040B91
:1000730053E67FC2AF7592FA7593FFD2AF53917F68
:0C008300302D08C22D303B0302F9703212
:0E009B00C29FB280C574C886A5C804C5743261
:1000B0004A4553433031202020202020202020207A
:1000C0000406080C10182030406080A0C0C2AFC0E9
:1000D00082C083903E00E493B45419A3E493B44CDB
:1000E00013A3E493B4580DA3E493B4030712F900E7
:1000F000D23B8002C23BD083D082D2AF22C2AFC2F9
:10010000A853E6EFC28E85618BC0D0D2D3C0E0C0C9
:10011000F0C2CAA8CCA9CDD2CAD2AF758A00C3E8B2
:100120009562F8E99563F9C3E913F9E813F8C3E9AF
:1001300013F9E813F8E9701DE895734018957350AA
:1001400014E582B4100F7C007B007A0079089000DF
:1001500000A860215E900000D2A8D2AA617AE0FDDA
:10016000C39CC39840EF98EB33FB0582E0FCC39D32
:10017000C39840E198EB33FB0582E0FDC39CC39834
:1001800040D398EB33FB0582E0FCC39DC39840C588
:1001900098EB33FB0582E0FDC39CC39840B798EB16
:1001A00033FB0582E0FCC39DC39840A998EB33FB69
:1001B0000582E0FDC39CC398409B98EB33FB05820E
:1001C000E0FCC39DC398408D98EB33FB058221D999
:1001D000900000D2A8D2AA617AE0FDC39CC39840E7
:1001E000EF98EA33FA0582E0FCC39DC39840E1989A
:1001F000EA33FA0582E0FDC39CC39840D398EA3302
:10020000FA0582E0FCC39DC39840C598EA33FA051D
:1002100082E0FDC39CC39840B798EA33FA0582E0B8
:10022000FCC39DC39840A998EA33FA0582E0FDC358
:100230009CC398409B98EA33FA0582E0FCC39DC3B7
:1002400098408D98EA33FA0582EBC46B6A54F0F952
:10025000EAC4303301F454F0C3996009900000D22D
:10026000A8D2AA617AD2C0EBF4C454F0F9EAF4C47B
:10027000540F49FAEBF4C4540FFBC3EAF99460FA43
:10028000EB9400FB5020C3E97B007A0079006016F4
:10029000C3135006F9C3954D600AE9F54D754E003C
:1002A00079008002054E303A27C3EA94D0F8EB94E7
:1002B00007F9400BE8FAE9FB203109D23141C4309B
:1002C0003102C231203902B231C3EA33FAEB33FBD7
:1002D000EB2B3B3BF9C3EB13FBEA13FAEA29FAEBEE
:1002E0003400FB30E3047AFF7BFFE5255403601AFA
:1002F000202A17E55833F9EB7007C3E99A4002E961
:10030000FAE536C42AFAEB3400FBC3EA33C4540FCF
:10031000F8EB33C454F048F87005EA60027801C382
:10032000EB13FBEA13FA900000E52260021522614C
:1003300090900000D2A8D2AA617AC0D0C0E0C2CF0B
:10034000053AE55C6005755C006169755C01E52353
:1003500060021523C3E54F60057550006169E550E3
:100360002401F55050037550FFD0E0D0D032C0E0EA
:10037000E58A85618BF0A3D0E0320522E522700288
:100380001522C3E5229432500261DC754F0061DF13
:10039000884FD230E86003755000C3E556FC95578E
:1003A0004002AC57C3EC954F5008EC75F004A4FA2A
:1003B000ABF0EAF4F8EBF45403F9C3E89432FAE949
:1003C0009400FB50047A007B00885189528A538B39
:1003D0005475230A53F7DF43F740800375230AE57A
:1003E000E6A2E082C0400ED0F0D0E0D0D0D2A8D2B9
:1003F000AA43E61032D0F0D0E0D0D032C2AAD28EDA
:10040000C2CA85CC6285CD63D2CA32C2AFC0D0C069
:10041000E0D2D3A8F9E55530E10AE5FA20E12E2033
:10042000E02B812CE5FA30E22420E121C3E55213D0
:10043000F8E55113F5FB88FCC3E55413F8E55313B5
:10044000F5E988EA85525553F7BF53E6EF53F7DFD6
:10045000D0E0D0D0D2AF32790180187903801479FE
:100460000A8010790F800C791E80087964800479E5
:10047000C88000781474F0000000D5E0FAD8F6D9EE
:10048000F2227901801479038010790A800C791E98
:1004900080087964800479C8800075910075943073
:1004A0007595F9759104D22D43E680303B0BC2AFB0
:1004B000302D0912F95075A700202DFDD2AFD9DAE1
:1004C0002278FF20282879A1E76023E571601F7456
:1004D000FF8571F0848539F030290375F005A4F8A3
:1004E000C5F0600278FFC3E895585002A8588857B5
:1004F00022C3E57094A0E5719400E557500314A160
:1005000002046002F5572275E890220559C3E559A7
:100510009408405330EDF4A8BDA9BE755900E9FA1E
:1005200079A0E76041EA7006E55A6018800CC3E8DC
:10053000955A600EE55A5005600A1480070460FA67
:100540008002E55AF55AC3955F401B7556C0C394A7
:10055000044013755680C39404400B755640C394F1
:1005600004400375560022E5562410500274FFF52E
:100570005622743279A687F0A4C5F0A2F733F55855
:10058000227570007571F022C2AFC2CAA8CCA9CD85
:10059000AA3A30CF010AD2CAD2AFC3EA13FAE9139A
:1005A000F9E813F8853B3E853C3F883B893C8A3D12
:1005B00022C2AFC2CAA8CCA9CDAA3A30CF010AD272
:1005C000CAD2AFC3EA13FAE913F9E813F8AB3BACAC
:1005D0003C883B893CC3E89BF8E99C8840F5412076
:1005E000280B547FF9302C030206D68041AD3D8A9A
:1005F0003DF9EA9D547FFA600678FF79FF8013AEDB
:100600003EAF3F8B3E8C3FA83BA93CC3E89EF8E938
:100610009FF9C3E57113FBE57013FAE82AF570E959
:100620003BF57150067570FF7571FF02067BAA706D
:10063000AB71AC70AD717E047F02C3EB9404400DCE
:100640001E1FC3EB940840052029021E1FC3ED1393
:10065000FDEC13FCDEF7C3EA9CFAEB9DFBEF6009AF
:10066000C3E913F9E813F8DFF7EA28FAEB39FB8A54
:10067000708B7150067BFF8B708B71C3EB940250B3
:1006800002D22C3028057F030206A77892E6FFC32A
:10069000E537948240110FC3E53794A040010FC3A2
:1006A000EF940640027F057E02E571C4540FF9E520
:1006B00071C454F0F8E570C4540F28F8C3E89EFAEA
:1006C000E99400FB4009C3EA9401EB940050047ADA
:1006D00001E4FB020722AA70AB71EBC4FEEAC4542A
:1006E0000F4EFCC3EA9CFAEB9400FBC3E813C31360
:1006F000F8EA28FAEB3400FB8A708B71C3EB9402A2
:100700004002C22C7802EBC4FE7B00EAC4540F4EB8
:10071000FAC3EA98FA4005C3940150027A0178922C
:10072000E6FF303B0BC2AF302D0912F95075A70020
:10073000202DFDD2AF854992854A93D22D43E68084
:10074000C3E49AF8E49BF9C3E833F8E933F9302CB1
:10075000030207C5E8FAE9FBD3E913FDE813FC88B7
:1007600049894AC3EF94036038EF20E00CE82CF885
:10077000E93DF9ECFAEDFB8013E828F8E939F9C313
:10078000E82401F8E93400F97AFF7BFFC3EF940312
:10079000400F8A4B8B4C884589468C478D48020711
:1007A000FA884B894C8A458B468C478D48302812F5
:1007B000754BF0754CFF7547F07548FF7549F0753E
:1007C0004AFF0207FAE8FAD3E813FC8849C3EF941A
:1007D000036021EF20E007E82CF8ECFAE1E5E828D7
:1007E0002401F87AFFC3EF940340098A4B88458CB3
:1007F000470207FA884B8A458C47303B0BC2AF3023
:100800002D0912F95075A700202DFDD2AF753402C5
:10081000D22D43E680E52554036034A870A971C346
:10082000E913F9E813F8C3E913F9E813F8302804D9
:10083000E92440F9C2AF53E67F759100C3E498F50F
:1008400094E499F595759104D22D43E680D2AF22B8
:10085000D220754400752000302B03752040800E97
:10086000D220754400752040302B0375200078019C
:100870007901202C28E52554036002C2207919E56E
:1008800071C313700104F8C3941940027819302819
:1008900004781B791BC3E833F8C3E933F9202D1022
:1008A000E544600C302803D53404D22121241110F2
:1008B0000544E59B5440B52002210C30280908C3AB
:1008C000E899400118019D20200B08C3E8994003D6
:1008D00002086E019DC22053E67F759100302C11F5
:1008E0007594007595F0759104D22D43E680020849
:1008F0006EE5717EFFC3334009C3334005C3334007
:1009000001FEC3E49E759400F59501E6C3E53394BA
:1009100001500302086E30200302086ED802212223
:10092000019DC221C2AF53E67F759100854B94852E
:100930004C95759104854592854693D22D43E6806A
:10094000D2AFE5255403600720290205338010301B
:10095000210D202B0A2020071581158102124C221F
:1009600078003020027801E53775F007A4F9E5F04A
:1009700028F5F0E9A2F013A2F113A2F213F537C3A0
:1009800094785003753778C3E5379538400CC286A4
:10099000C290C29275D4FF75D50F303B0BC2AF30F9
:1009A0002D0912F95075A700202DFDD2AF85479271
:1009B000854893D22D43E68022C2AF53E67F7591DE
:1009C00000854594854695854792854893759104A1
:1009D000D22D43E680D2AF22203813C2AFC291D2CB
:1009E0008775D4FF75D503D2AF759F4241CCC2AF96
:1009F000C291D29375D43F75D50FD2AF759F424146
:100A0000CC203813C2AFC29275D4FF75D50CD287F3
:100A1000D2AF759F5241CCC2AFC28675D4FF75D597
:100A20000CD293D2AF759F3241CC203813C2AFC2E3
:100A300087D29375D4FF75D50CD2AF759F3241CC58
:100A4000C2AFC293D28775D4FF75D50CD2AF759F54
:100A5000528079203813C2AFC29075D43F75D50F3C
:100A6000D293D2AF759F428063C2AFC29075D4FF5C
:100A700075D503D287D2AF759F428050203813C2FC
:100A8000AFC293D29175D43F75D50FD2AF759F5237
:100A9000803AC2AFC287D29175D4FF75D503D2AF69
:100AA000759F328027203813C2AFC28675D4FF7578
:100AB000D503D291D2AF759F328011C2AFC2927569
:100AC000D43F75D50FD291D2AF759F52227A1C7B3D
:100AD0003C80127A147B4B800C7A107B5A80067A09
:100AE0000A7B788000E55BD5E0012275A91375A724
:100AF0001075C10075A7007902E4C291D5E0FDD25E
:100B000090D5E0FDC290D5E0FDD291D5E0FDE92081
:100B1000E002D28630E002D292E55BD5E0FDE9202A
:100B2000E002C28630E002C2927496D5E0FDD9C9D7
:100B3000EAF8D5E0FDD8FBDBACC29175A71075C112
:100B40003075A70075A90322C286C290C292C287DF
:100B5000C291C29375D4FF75D50F22788076FF08B5
:100B600076FF0876FF0876FF0876FF0876FF08769E
:100B7000090876FF087601788C76010876FF0876FA
:100B8000FF0876FF0876FF0876FF0876030876FFF1
:100B90000876FF0876FF0876250876D008762808BC
:100BA00076500876040876FF0876020876FF087605
:100BB0007A0876FF0876070876010876FF0876FF40
:100BC000087600087600227888E6C39403D23A506B
:100BD00002C23AC238E630E102D238A238923978FD
:100BE00086E6149000C09378A6F67886E6F539C3B9
:100BF00094025003753902789CE67538FFB40203FD
:100C00007538A0B4030375388278A0E6F8600674DE
:100C1000282409D8FCF55F2278A5E6F95403700072
:100C2000E9540C7000E954307000E954C07000229F
:100C3000AA70AB71EBC313F4FBEA13F4FA8A928B3C
:100C400093D22D43E68022C2AF53E67F7591008593
:100C50004594854695759104854792854893D22D94
:100C600043E680D2AF22755D00755E007597DE7534
:100C700097AD7581C043FF8075EF0675A90075A912
:100C800000714875803F75F1C375A4C075803F75CC
:100C9000D4FF75900075F20F75A50F75900075D58E
:100CA0000F75A00075A60175A72075CC0175A7006A
:100CB00075E34075E2027148E4F8F6D8FD715B1205
:100CC00012827898865B75300175A71075C13075F2
:100CD000A70075A903C2AF12046F51CD12046712A9
:100CE000046712046751D312046712046712046781
:100CF00051D912046712046712046751DF51DF12E1
:100D0000046F9118C2AF75A71053CEEF75A70053AB
:100D1000A4FED28075A91375A71075C10075A70030
:100D2000755D00755E00AAE475E48078FA79FA30A2
:100D30008009D9FBD8F7021C008AE4C2AF71C778DA
:100D400098865B714875A71075C13075A70075A9A5
:100D50000375C804759104C22D75D84075D90875FE
:100D6000F782759E0315F775960275DA4275DB42B8
:100D700075A82175E61075B801759B80759D007585
:100D8000D10C75BCB975BB1075E88075B201120441
:100D9000579000007588007572011200CD753600FD
:100DA000C230754D00754E0075E408D23375885118
:100DB0007589AA758C00758D00C2A9D2ABD2AAD252
:100DC000AF758E0C75610075602875732875220AE1
:100DD000120492756020C3E522940A754D00754E89
:100DE00000406E758E0C7561807560147573147596
:100DF000220A120492756010C3E522940A754D0010
:100E0000754E00404C75E480C233758E0C756100E0
:100E100075602875732875220A120492756020C3C4
:100E2000E522940A754D00754E004025758E0C75AF
:100E3000618075601475731475220A1204927560CE
:100E400010C3E522940A754D00754E004003020D53
:100E5000041200CD120486203003020D04C2AFA29A
:100E600033823B400651DF51DF800451D951D9D242
:100E7000AF120496120492C3E54F9401400280EF32
:100E8000C2AFA233823B401D51CDD2AF120492C2F9
:100E9000AF51CDD2AF120492C2AF51CDD2AF120436
:100EA00092C2AF800651DF51DF51DFD2AF120496FC
:100EB000753000757000757100754000754100E473
:100EC000F531F53275200005203001477520000509
:100ED00031E531F4703D0532789AE67819146012E4
:100EE000783214600D787D14600878FA1460037508
:100EF0003200C3E53298401B714812045715327511
:100F000031007899865BC2AF51DFD2AF7898865BAB
:100F100012049212048AE5237002A10412048230A2
:100F200030A5C3E54F9401500AC3E54D9401501616
:100F3000020EC7120492E5237003020D04754D00E2
:100F4000754E000210ECC3E54D94017016C2AF71EE
:100F5000487899865B51CD7898865BD2AF1204921F
:100F60000210DBC3E54D94027016C2AF7148789948
:100F7000865B51D37898865BD2AF1204920210DB65
:100F8000C3E54D94037016C2AF71487899865B51E2
:100F9000D97898865BD2AF1204920210DBC3E54D7C
:100FA00094047016C2AF71487899865B51DF7898C7
:100FB000865BD2AF1204920210DBC3E54D9405703C
:100FC00016C2AF71487899865B51DF7898865BD2FC
:100FD000AF1204920210DBC3E54D9407701BC3E50A
:100FE0004E94065002020F1C7401303A02740378CA
:100FF00088F6C238C2390210DBC3E54D9408701A76
:10100000C3E54E94065002020F1C7402303A02747B
:10101000047888F6D238D23901DBC3E54D940970E3
:1010200018C3E54E94065003020F1C303A0BC378E8
:1010300088E69402F6C23A01DBC3E54D940A7017C4
:10104000C3E54E94065003020F1C203A0A7888E646
:101050002402F6D23A01DBC3E54D94147026C3E5B1
:101060004E94065003020F1CC2AF901A0B740093EB
:10107000D2AF7888F613C238C2394002D238400263
:10108000D2398057C3E54D94157038C3E54E9406A8
:10109000404FC2AF901A0B740093D2AFF8B8010260
:1010A0007402B802027401B803027404B804027432
:1010B000037888F613C238C2394002D2384002D2CF
:1010C000398018C3E54D940C7011755DA5755EF1FE
:1010D000C3E54E9406400A51C9D2AF754E00754D16
:1010E00000755D00755E00C230020F1CC2AF120BAE
:1010F00048E4D2AFE4F559F524F525F537755908DC
:1011000012048212050730EDFDA8BDA9BEE97001E9
:10111000F8885A12050B755908C2AF120572855826
:1011200056855857D2AF303A07C238303102D238DC
:10113000D228753300120A7C120AA5120581120505
:10114000B11205811205B112058112086012096001
:101150001209D81205B1120850202C031204C13014
:101160002C031204F1120960120A011205B11208CF
:1011700060120960120A2A1205B1120850120960A1
:10118000120A531205B1120860120960120A7C1289
:1011900005B1120507120850120960120AA51205BE
:1011A0000B1205B130282785585679187A0CC3E5FB
:1011B0003399400EC228D2298A358558568558570A
:1011C000800CC3E54F9401400302114A4154302979
:1011D0001F202B1CE535147006C229D22A214AF59E
:1011E00035203A07C3E54F9401400302114A806459
:1011F000753600203A0F78FA79A4E760027803C3C5
:10120000E55098504FE523604B303A1720380520C1
:101210003107800F303102800A202B07D22B8558EE
:1012200056217A78F0302B058558567820C3E57121
:1012300098500302114A302B1BC22BC238303102A6
:10124000D238D229753512855856214A0536E54FD0
:1012500060024157753600C2AF120B48752500D2A7
:10126000AF120492120B4875240078A4E66006D2EF
:1012700087D291D293C3E53694044003020D040251
:101280000EB3901A0D78207102E520B4550AA371AF
:1012900002E520B4AA028013755DA5755EF1120BFC
:1012A0005B51C9755D00755E00801D901A037880E2
:1012B0007B0A7102A308DBFA901A0F788C7B1A71F3
:1012C00002A308DBFA901A2922C2AF71457122905D
:1012D0001A0074027107A374017107A374217107C6
:1012E000901A0378807B0A7106A308DBFA901A0F24
:1012F000788C7B1A7106A308DBFA71587136901A44
:101300002922E493F622E6438F01538FFDFFC3E5C4
:1013100083941C400122EF855DB7855EB7F0538F43
:10132000FE22438F02438F01855DB7855EB7901A19
:101330000DF0538FFC22901A0D74557107901A0E00
:1013400074AA7107227A3079D07820901A407102FD
:10135000E520F709A3DAF7227A3079D0901A40E72E
:10136000710709A3DAF9227C0512046FDCFB22C2A3
:08137000AF120ACDD2AF222218
:1019E0007597DE7597AD43EF02B4A5030219FD901C
:0A19F000FBFDE493B4A5F502FBC073
:1019FD00020C66020121FFFFFFFFFFFF09FF01FF40
:101A0D0055AA01FFFFFFFFFF03FFFFFF25D0285061
:0D1A1D0004FF02FF7AFF0701FFFF0000FF3A
:101A400023435F485F3530232020202020202020A2
:101A500023424C48454C492445464D3842323123B7
:101A60002020202020202020202020202020202076
:101C0000C2AFC2D37597DE7597AD7581C075A90057
:101C100075A90043FF80752438752503B1DE752949
:101C2000A5752AF143F10153A4FED28075D4FF7546
:101C3000E3407DFA780379E67C1075220075230075
:101C4000901DEB7B06752498752501308002814B31
:101C5000208008D8FBD9F9DCF781BD308008D8FB9B
:101C6000D9F9DCF781BDB19EE493A3C39A6004DD8A
:101C7000C381BDDBDBB190600281347B08E493FA61
:101C8000A3B171DBF87A30B171752200752300B110
:101C900090EAFCEBFDC3ED94FE400EB1908A278BD9
:101CA00028ED30E0048A828B83B1907AC270D8C369
:101CB000ED94FE601950CEBD0029EC600F75200038
:101CC0007521FF752900752A000200008100A827F0
:101CD000A9280809D804D90281E0B194EAF281D494
:101CE0000D81A9C3ED94035051EDA2E092007AC595
:101CF000C3E5829400E583941C508C200010438F30
:101D000002438F018529B7852AB7F0300027A8271D
:101D1000A9280809438F01538FFDD804D902A135A2
:101D2000C3E583941C4003A3A11AE28529B7852A41
:101D3000B7F0A3A11A538FFC81857AC1BD030CE4CF
:101D400093A3FAB155DCF8B14D81858187AA22AB06
:101D500023B171EBFAEA6222752608C3E52313F575
:101D600023E52213F52250066323A0632201D52622
:101D7000EAB1DEB1DE75260AEAF4200102D2803033
:101D80000102C280B1DEC3134002C201D526EB229C
:101D9000B194EAFB208002A194308002A1997526BB
:101DA00008AE24AF25C3EF13FFEE13FEB1E2B1DEA0
:101DB000C3EA133080024480FA30E703632201C390
:101DC000E52313F523E52213F52250066323A063D0
:101DD0002201D526D9E52265236523F52222AE24EA
:101DE000AF250E0FDEFEDFFCD20122424C48656CAF
:091DF0006934373164E8B20601E0
:00000001FF
