:020000040000FA
:060000000219E0020328D2
:03000B0002F9B047
:030013000203B035
:03001B000200BD23
:03002B000202F4DA
:03003B0002F93097
:03005B000203BFDE
:1000730053E67FC2AF7592FA7593FFD2AF53917F68
:0C008300302D08C22D303B0302F9703212
:03009B0002F990D7
:1000A0004A4553433031202020202020202020208A
:1000B0000406080C10182030406080A0C0C2AFC2F7
:1000C000A853E6EFC28E85618BC0D0D2D3C0E0C00A
:1000D000F0C2CAA8CCA9CDD2CAD2AF758A00C3E8F3
:1000E0009562F8E99563F9C3E913F9E813F8C3E9F0
:1000F00013F9E813F8E9701DE89564401895645009
:1001000014E582B4100F7C007B007A00790890001F
:1001100000A860211E900000D2A8D2AA6134E0FDA0
:10012000C39CC39840EF98EB33FB0582E0FCC39D72
:10013000C39840E198EB33FB0582E0FDC39CC39874
:1001400040D398EB33FB0582E0FCC39DC39840C5C8
:1001500098EB33FB0582E0FDC39CC39840B798EB56
:1001600033FB0582E0FCC39DC39840A998EB33FBA9
:100170000582E0FDC39CC398409B98EB33FB05824E
:10018000E0FCC39DC398408D98EB33FB0582219919
:10019000900000D2A8D2AA6134E0FDC39CC398406D
:1001A000EF98EA33FA0582E0FCC39DC39840E198DA
:1001B000EA33FA0582E0FDC39CC39840D398EA3342
:1001C000FA0582E0FCC39DC39840C598EA33FA055E
:1001D00082E0FDC39CC39840B798EA33FA0582E0F9
:1001E000FCC39DC39840A998EA33FA0582E0FDC399
:1001F0009CC398409B98EA33FA0582E0FCC39DC3F8
:1002000098408D98EA33FA0582EBC46B6A54F0F992
:10021000EAC4303301F454F0C3996009900000D26D
:10022000A8D2AA6134D2C0EBF4C454F0F9EAF4C401
:10023000540F49FAEBF4C4540FFBC3EAF99460FA83
:10024000EB9400FB5020C3E97B007A007900601634
:10025000C3135006F9C3954D600AE9F54D754E007C
:1002600079008002054E303A27C3EA94D0F8EB9427
:1002700007F9400BE8FAE9FB203109D2314184301B
:100280003102C231203902B231C3EA33FAEB33FB17
:10029000EB2B3B3BF9C3EB13FBEA13FAEA29FAEB2E
:1002A0003400FB30E3047AFF7BFFE5255403601B39
:1002B000202A18E55833F9EB7007C3E99A4002E9A0
:1002C000FAE536C4332AFAEB3400FBC3EA33C454EC
:1002D0000FF8EB33C454F048F87005EA6002780177
:1002E000900000E52260021522614A900000D2A829
:1002F000D2AA6134C0D0C0E0C2CF053AE55C600547
:10030000755C006123755C01E52360021523C3E57C
:100310004F60057550006123E5502401F5505003EE
:100320007550FFD0E0D0D032C0E0E58A85618BF017
:10033000A3D0E0320522E52270021522C3E5229403
:100340003250026190754F006193884FD230E8605F
:1003500003755000C3E556FC95574002AC57C3ECFB
:10036000954F5008EC75F008A4FAABF0EAF4F8EBFE
:10037000F45407F98851895275230AE55530E2088B
:1003800053F7DF43F740800B53D8FE43DA01800375
:1003900075230AE5E6A2E082C0400ED0F0D0E0D09E
:1003A000D0D2A8D2AA43E61032D0F0D0E0D0D032DA
:1003B000C2AAD28EC2CA85CC6285CD63D2CA32C2ED
:1003C000AFC0D0C0E0D2D38551FB8552FC855255D9
:1003D00053F7BF53DAFE53E6EF53F7DF53D8FED09F
:1003E000E0D0D0D2AF327901801879038014790A35
:1003F0008010790F800C791E80087964800479C898
:100400008000781474F0000000D5E0FAD8F6D9F234
:10041000227901801479038010790A800C791E807A
:10042000087964800479C8800075910075943075EE
:1004300095F9759104D22D43E680303B0BC2AF3065
:100440002D0912F95075A700202DFDD2AFD9DA225F
:1004500078FF20282879A1E76023E571601F74FFE9
:100460008571F0848539F030290375F005A4F8C54D
:10047000F0600278FFC3E895585002A858885722C8
:10048000C3E57094A0E5719400E557500314819181
:10049000046002F5572275E890220559C3E5599486
:1004A00008405330EDF4A8BDA9BE755900E9FA79AA
:1004B000A0E76041EA7006E55A6018800CC3E89531
:1004C0005A600EE55A5005600A1480070460FA80ED
:1004D00002E55AF55AC3955F401B7556C0C3940494
:1004E0004013755680C39404400B755640C3940462
:1004F000400375560022E5562410500274FFF5564D
:1005000022743279A687F0A4C5F0A2F733F55822F9
:100510007570007571F022C2AFC2CAA8CCA9CDAA6D
:100520003A30CF010AD2CAD2AFC3EA13FAE913F9BB
:10053000E813F8853B3E853C3F883B893C8A3D2259
:10054000C2AFC2CAA8CCA9CDAA3A30CF010AD2CA3A
:10055000D2AFC3EA13FAE913F9E813F8AB3BAC3CAA
:10056000883B893CC3E89BF8E99C8840F5412028FA
:100570000B547FF9302C030206658041AD3D8A3D66
:10058000F9EA9D547FFA600678FF79FF8013AE3E4A
:10059000AF3F8B3E8C3FA83BA93CC3E89EF8E99F48
:1005A000F9C3E57113FBE57013FAE82AF570E93B2E
:1005B000F57150067570FF7571FF02060AAA70ABDF
:1005C00071AC70AD717E047F02C3EB9404400D1ECC
:1005D0001FC3EB940840052029021E1FC3ED13FD25
:1005E000EC13FCDEF7C3EA9CFAEB9DFBEF6009C35A
:1005F000E913F9E813F8DFF7EA28FAEB39FB8A7018
:100600008B7150067BFF8B708B71C3EB9402500291
:10061000D22C3028057F030206367892E6FFC3E528
:1006200037948240110FC3E53794A040010FC3EF08
:10063000940640027F057E02E571C4540FF9E5710E
:10064000C454F0F8E570C4540F28F8C3E89EFAE9E2
:100650009400FB4009C3EA9401EB940050047A0132
:10066000E4FB0206B1AA70AB71EBC4FEEAC4540FFE
:100670004EFCC3EA9CFAEB9400FBC3E813C313F8E7
:10068000EA28FAEB3400FB8A708B71C3EB940240CA
:1006900002C22C7802EBC4FE7B00EAC4540F4EFA6F
:1006A000C3EA98FA4005C3940150027A017892E6B1
:1006B000FF303B0BC2AF302D0912F95075A7002057
:1006C0002DFDD2AF854992854A93D22D43E680C352
:1006D000E49AF8E49BF9C3E833F8E933F9302C03E2
:1006E000020754E8FAE9FBD3E913FDE813FC884953
:1006F000894AC3EF94036038EF20E00CE82CF8E956
:100700003DF9ECFAEDFB8013E828F8E939F9C3E884
:100710002401F8E93400F97AFF7BFFC3EF9403402A
:100720000F8A4B8B4C884589468C478D4802078938
:10073000884B894C8A458B468C478D4830281275EA
:100740004BF0754CFF7547F07548FF7549F0754AD9
:10075000FF020789E8FAD3E813FC8849C3EF940342
:100760006021EF20E007E82CF8ECFAE174E8282497
:1007700001F87AFFC3EF940340098A4B88458C4700
:10078000020789884B8A458C47303B0BC2AF302D1E
:100790000912F95075A700202DFDD2AF753402D291
:1007A0002D43E680E52554036034A870A971C3E9A0
:1007B00013F9E813F8C3E913F9E813F8302804E94A
:1007C0002440F9C2AF53E67F759100C3E498F594D5
:1007D000E499F595759104D22D43E680D2AF22D2EB
:1007E00020754400752000302B03752040800ED208
:1007F00020754400752040302B0375200078017966
:1008000001202C28E52554036002C2207919E571E6
:10081000C313700104F8C3941940027819302804F6
:10082000781B791BC3E833F8C3E933F9202D11E5B0
:1008300044600D302803D53404D22101B412079F3F
:100840000544E59B5440B52002019C30280908C3AB
:10085000E899400118012C20200B08C3E8994003B7
:100860000207FD012CC22053E67F759100302C1148
:100870007594007595F0759104D22D43E6800207BA
:10088000FDE5717EFFC3334009C3334005C33340E8
:1008900001FEC3E49E759400F5950176C3E533949B
:1008A0000150030207FD3020030207FDD80201B208
:1008B000012CC221C2AF53E67F759100854B948510
:1008C0004C95759104854592854693D22D43E680DB
:1008D000D2AFE5255403600720290205338010308C
:1008E000210D202B0A2020071581158102120922D3
:1008F00078003020027801E53775F007A4F9E5F0BB
:1009000028F5F0E9A2F013A2F113A2F213F537C310
:1009100094785003753778C3E5379538400CC29505
:10092000C291C28775D4FF75D57F303B0BC2AF3003
:100930002D0912F95075A700202DFDD2AF854792E1
:10094000854893D22D43E68022C2AF53E67F75914E
:100950000085459485469585479285489375910411
:10096000D22D43E680D2AF22203817C2AFC291C247
:1009700096D295D28775D4FF75D57FD2AF759F1269
:10098000418CC2AFC291C290D287D29575D4FF7507
:10099000D53FD2AF759F12418C203817C2AFC287A6
:1009A000D29175D4FF75D56FC296D295D2AF759F8F
:1009B00032418CC2AFC295D29175D4FF75D56FC24A
:1009C00090D287D2AF759F02418C203817C2AFC238
:1009D00095C290D287D29175D4FF75D56FD2AF757D
:1009E0009F02418CC2AFC287C296D295D29175D474
:1009F000FF75D56FD2AF759F32418C203817C2AFCB
:100A0000C291D29575D4FF75D53FC290D287D2AF2F
:100A1000759F128077C2AFC291D28775D4FF75D50A
:100A20007FC296D295D2AF759F128060203817C2D0
:100A3000AFC287C294D291D29575D4FF75D53FD2FB
:100A4000AF759F328046C2AFC295C294D291D28711
:100A500075D4FF75D57FD2AF759F02802F203817D0
:100A6000C2AFC295D28775D4FF75D57FC294D2919B
:100A7000D2AF759F028015C2AFC287D29575D4FFE1
:100A800075D53FC294D291D2AF759F32227A1C7B2A
:100A90003C80127A147B4B800C7A107B5A80067A49
:100AA0000A7B788000E55BD5E0012275A91375A764
:100AB0001075C10075A7007902E4C291D5E0FDD29E
:100AC00094D291D5E0FDC291D5E0FDC294D291D5EA
:100AD000E0FDE920E004D296D29530E004D290D235
:100AE00087E55BD5E0FDE920E002C29530E002C277
:100AF000877496D5E0FDD9C1EAF8D5E0FDD8FBDBD7
:100B0000A4C29175A71075C13075A70075A90322FD
:100B1000C295C291C287C295C291C28775D4FF7532
:100B2000D57F22788076FF0876FF0876FF0876FF6B
:100B30000876FF0876FF0876090876FF08760178C0
:100B40008C76010876FF0876FF0876FF0876FF08A6
:100B500076FF0876030876FF0876FF0876FF0876AA
:100B6000250876D00876280876500876040876FF9F
:100B70000876020876FF08767A0876FF0876070876
:100B800076010876FF0876FF08760008760022785E
:100B900088E6C39403D23A5002C23AC238E630E142
:100BA00002D238A23892397886E6149000B0937851
:100BB000A6F67886E6F539C39402500375390278B3
:100BC0009CE67538FFB402037538A0B4030375388A
:100BD0008278A0E6F8600674282409D8FCF55F2224
:100BE00078A5E6F954037000E9540C7000E954301C
:100BF0007000E954C0700022AA70AB71EBC313F40B
:100C0000FBEA13F4FA8A928B93D22D43E68022C238
:100C1000AF53E67F7591008545948546957591049F
:100C2000854792854893D22D43E680D2AF22755DE9
:100C300000755E007597DE7597AD7581C043FF80C6
:100C400075EF0675A90075A900711075807F75F1A3
:100C5000F075A48075807F75D4FF75900075F27370
:100C600075A57375900075D57F75A00075A6017583
:100C7000A72075CC0175A70075E34075E2027110DD
:100C8000E4F8F6D8FD71231212457898865B75302A
:100C90000175A71075C13075A70075A903C2AF1201
:100CA00003FE518D1203F61203F61203F65193124E
:100CB00003F61203F61203F651991203F61203F625
:100CC0001203F6519F519F1203FE71E0C2AF75A748
:100CD0001053CEEF75A70053A4DFD28575A9137505
:100CE000A71075C10075A700755D00755E0078FAE4
:100CF00079FA308507D9FBD8F7021C00C2AF718F93
:100D00007898865B711075A71075C13075A700754E
:100D1000A90375C804759104C22D75D84075D9080A
:100D200075F783759E0075960075DA4A75DB007558
:100D3000A82175E61075B801759B80759D0075D169
:100D40000C75BCB975BB1075E88075B2011203E66D
:100D5000900000758800757220903E00E493B454B2
:100D600019A3E493B44C13A3E493B4580DA3E493F0
:100D7000B4010712F900D23B8002C23B900000751B
:100D80003600C230754D00754E0075E45DD2337586
:100D900088517589AA758C00758D00C2A9D2ABD215
:100DA000AAD2AF758E0C75610075602875642875C0
:100DB000220A120421756020C3E522940A754D00B1
:100DC000754E00404C75E4D5C233758E0C756100CC
:100DD00075602875642875220A120421756020C385
:100DE000E522940A754D00754E004025758E0C75F0
:100DF000618075601475641475220A12042175608F
:100E000010C3E522940A754D00754E004003020C94
:100E1000CC120415203003020CCCC2AFA233823BAB
:100E20004006519F519F800451995199D2AF1204AD
:100E300025120421C3E54F9401400280EFC2AFA206
:100E400033823B401D518DD2AF120421C2AF518D70
:100E5000D2AF120421C2AF518DD2AF120421C2AF62
:100E60008006519F519F519FD2AF120425753000CB
:100E7000757000757100754000754100E4F531F53D
:100E80003275200005203001477520000531E5311D
:100E9000F4703D0532789AE67819146012783214AD
:100EA000600D787D14600878FA146003753200C311
:100EB000E53298401B71101203E615327531007847
:100EC00099865BC2AF519FD2AF7898865B1204219E
:100ED000120419E523700281CC1204113030A5C32D
:100EE000E54F9401500AC3E54D94015016020E845B
:100EF000120421E5237003020CCC754D00754E00E1
:100F00000210A9C3E54D94017016C2AF7110789913
:100F1000865B518D7898865BD2AF120421021098BF
:100F2000C3E54D94027016C2AF71107899865B517B
:100F3000937898865BD2AF120421021098C3E54DD6
:100F400094037016C2AF71107899865B51997898A6
:100F5000865BD2AF120421021098C3E54D94047051
:100F600016C2AF71107899865B519F7898865BD2D4
:100F7000AF120421021098C3E54D94057016C2AF5C
:100F800071107899865B519F7898865BD2AF120476
:100F900021021098C3E54D9407701AC3E54E9406DC
:100FA0005002C1D97401303A0274037888F6C2380D
:100FB000C239021098C3E54D9408701AC3E54E94E7
:100FC000065002C1D97402303A0274047888F6D20D
:100FD00038D239021098C3E54D94097019C3E54E13
:100FE00094065003020ED9303A0CC37888E6940276
:100FF000F6C23A021098C3E54D940A7017C3E54E45
:1010000094065003020ED9203A0A7888E62402F6A4
:10101000D23A0198C3E54D94147026C3E54E940668
:101020005003020ED9C2AF901A0B740093D2AF785E
:1010300088F613C238C2394002D2384002D2398011
:1010400057C3E54D94157038C3E54E9406404FC222
:10105000AF901A0B740093D2AFF8B801027402B8C3
:1010600002027401B803027404B80402740378889D
:10107000F613C238C2394002D2384002D239801841
:10108000C3E54D940C7011755DA5755EF1C3E54E19
:101090009406400A518CD2AF754E00754D00755DB7
:1010A00000755E00C230020ED9C2AF120B10E4D23E
:1010B000AFE4F559F524F525F537755908120411F3
:1010C00012049630EDFDA8BDA9BEE97001F8885A5A
:1010D00012049A755908C2AF1205018558568558F1
:1010E00057D2AF303A07C238303102D238D22875E1
:1010F0003300120A2C120A5D120510120540120567
:10110000101205401205101207EF1208F0120968BC
:101110001205401207DF202C03120450302C03125A
:1011200004801208F01209991205401207EF120804
:10113000F01209CA1205401207DF1208F01209FB6B
:101140001205401207EF1208F0120A2C1205401285
:1011500004961207DF1208F0120A5D12049A1205B3
:101160004030282785585679187A0CC3E5339940C2
:101170000EC228D2298A35855856855857800CC307
:10118000E54F94014003021107411130291F202B24
:101190001CE535147006C229D22A2107F535203AFC
:1011A00007C3E54F940140030211078064753600C0
:1011B000203A0F78FA79A4E760027803C3E55098E3
:1011C000504FE523604B303A172038052031078017
:1011D0000F303102800A202B07D22B855856213739
:1011E00078F0302B058558567820C3E57198500368
:1011F000021107302B1BC22BC238303102D238D239
:101200002975351285585621070536E54F6002418C
:1012100014753600C2AF120B10752400752500D26C
:10122000AF1203FA120B1078A4E6600CC296D295A6
:10123000C294D291C290D287C3E53694044003028F
:101240000CCC020E70901A0D782051C5E520B455D3
:101250000AA351C5E520B4AA028013755DA5755E89
:10126000F1120B23518C755D00755E00801D901A84
:101270000378807B0A51C5A308DBFA901A0F788C9B
:101280007B1A51C5A308DBFA901A2922C2AF710854
:1012900051E5901A00740151CAA3740351CAA37492
:1012A0002151CA901A0378807B0A51C9A308DBFA3E
:1012B000901A0F788C7B1A51C9A308DBFA711B5165
:1012C000F9901A2922E493F622E6438F01538FFD09
:1012D000FFC3E583941C400122EF855DB7855EB7AF
:1012E000F0538FFE22438F02438F01855DB7855EE9
:1012F000B7901A0DF0538FFC22901A0D745551CAF5
:10130000901A0E74AA51CA227A3079D07820901A95
:101310004051C5E520F709A3DAF7227A3079D09059
:101320001A40E751CA09A3DAF9227C051203FEDC50
:0B133000FB22C2AF120A8DD2AF2222B6
:1019E0007597DE7597AD43EF02B4A5030219FD901C
:0A19F000FBFDE493B4A5F502FBC073
:1019FD00020C2E010321FFFFFFFFFFFF09FF01FF77
:101A0D0055AA01FFFFFFFFFF03FFFFFF25D0285061
:0D1A1D0004FF02FF7AFF0701FFFF0000FF3A
:101A400023565F485F303023202020202020202094
:101A500023424C48454C492445464D3842323123B7
:101A60002020202020202020202020202020202076
:101C0000C2AFC2D37597DE7597AD7581C075A90057
:101C100075A90043FF80752438752503B1DE752949
:101C2000A5752AF143F12053A4DFD28575D4FF7541
:101C3000E3407DFA780379E67C1075220075230075
:101C4000901DEB7B06752498752501308502814B2C
:101C5000208508D8FBD9F9DCF781BD308508D8FB91
:101C6000D9F9DCF781BDB19EE493A3C39A6004DD8A
:101C7000C381BDDBDBB190600281347B08E493FA61
:101C8000A3B171DBF87A30B171752200752300B110
:101C900090EAFCEBFDC3ED94FE400EB1908A278BD9
:101CA00028ED30E0048A828B83B1907AC270D8C369
:101CB000ED94FE601950CEBD0029EC600F75200038
:101CC0007521FF752900752A000200008100A827F0
:101CD000A9280809D804D90281E0B194EAF281D494
:101CE0000D81A9C3ED94035051EDA2E092007AC595
:101CF000C3E5829400E583941C508C200010438F30
:101D000002438F018529B7852AB7F0300027A8271D
:101D1000A9280809438F01538FFDD804D902A135A2
:101D2000C3E583941C4003A3A11AE28529B7852A41
:101D3000B7F0A3A11A538FFC81857AC1BD030CE4CF
:101D400093A3FAB155DCF8B14D81858187AA22AB06
:101D500023B171EBFAEA6222752608C3E52313F575
:101D600023E52213F52250066323A0632201D52622
:101D7000EAB1DEB1DE75260AEAF4200102D285302E
:101D80000102C285B1DEC3134002C201D526EB2297
:101D9000B194EAFB208502A194308502A1997526B1
:101DA00008AE24AF25C3EF13FFEE13FEB1E2B1DEA0
:101DB000C3EA133085024480FA30E703632201C38B
:101DC000E52313F523E52213F52250066323A063D0
:101DD0002201D526D9E52265236523F52222AE24EA
:101DE000AF250E0FDEFEDFFCD20122424C48656CAF
:091DF0006934373164E8B20601E0
:00000001FF
