:020000040000FA
:060000000219E00203708A
:03000B0002F9B047
:030013000203F8ED
:03001B000200FFE1
:03002B0002033C91
:03003B0002F93097
:03005B0002040795
:1000730053E67FC2AF7592FA7593FFD2AF53917F68
:0C008300302D08C22D303B0302F9703212
:0E009B00C29FB287C574C886A5C804C574325A
:1000B0004A4553433031202020202020202020207A
:1000C0000406080C10182030406080A0C0C2AFC0E9
:1000D00082C083903E00E493B4541BA3E493B44CD9
:1000E00015A3E493B4580FA3A3A3E493B403071296
:1000F000F900D23B8002C23BD083D082D2AF22C271
:10010000AFC2A853E6EFC28E85618BC0D0D2D3C0F8
:10011000E0C0F0C2CAA8CCA9CDD2CAD2AF758A00BD
:10012000C3E89562F8E99563F9C3E913F9E813F8B0
:10013000C3E913F9E813F8E9701DE89573401895C1
:10014000735014E582B4100F7C007B007A007908AC
:10015000900000A8602160900000D2A8D2AA617C23
:10016000E0FDC39CC39840EF98EB33FB0582E0FCB5
:10017000C39DC39840E198EB33FB0582E0FDC39C2F
:10018000C39840D398EB33FB0582E0FCC39DC39832
:1001900040C598EB33FB0582E0FDC39CC39840B794
:1001A00098EB33FB0582E0FCC39DC39840A998EB14
:1001B00033FB0582E0FDC39CC398409B98EB33FB67
:1001C0000582E0FCC39DC398408D98EB33FB05820C
:1001D00021DB900000D2A8D2AA617CE0FDC39CC3C1
:1001E0009840EF98EA33FA0582E0FCC39DC398403B
:1001F000E198EA33FA0582E0FDC39CC39840D398A6
:10020000EA33FA0582E0FCC39DC39840C598EA33FF
:10021000FA0582E0FDC39CC39840B798EA33FA051B
:1002200082E0FCC39DC39840A998EA33FA0582E0B6
:10023000FDC39CC398409B98EA33FA0582E0FCC357
:100240009DC398408D98EA33FA0582EBC46B6A54DB
:10025000F0F9EAC4303301F454F0C3996009900016
:1002600000D2A8D2AA617CD2C0EBF4C454F0F9EA5F
:10027000F4C4540F49FAEBF4C4540FFBC3EAF994E5
:1002800060FAEB9400FB5020C3E97B007A00790010
:100290006016C3135006F9C3954D600AE9F54D7514
:1002A0004E0079008002054E303A27C3EA94D0F818
:1002B000EB9407F9400BE8FAE9FB203109D2314110
:1002C000C6303102C231203902B231C3EA33FAEB0F
:1002D00033FBEB2B3B3BF9C3EB13FBEA13FAEA29A5
:1002E000FAEB3400FB30E3047AFF7BFFE52554038F
:1002F000601A202A17E55833F9EB7007C3E99A40D2
:1003000002E9FAE536C42AFAEB3400FBC3EA33C447
:10031000540FF8EB33C454F048F87005EA600278E3
:1003200001C3EB13FBEA13FA900000E5226002150B
:10033000226192900000D2A8D2AA617CC0D0C0E015
:10034000C2CF053AE55C6005755C00616B755C01C8
:10035000E52360021523C3E54F6005755000616B0E
:10036000E5502401F55050037550FFD0E0D0D03255
:10037000C0E0E58A85618BF0A3D0E0320522E5225A
:1003800070021522C3E5229432500261D8754F00E5
:1003900061DB884FD230E86003755000C3E556FC3E
:1003A00095574002AC57C3EC954F5008EC75F004DC
:1003B000A4FAABF0EAF4F8EBF45403F9885189524B
:1003C00075230AE55530E10853F7DF43F740800B0A
:1003D00053D8FE43DA01800375230AE5E6A2E082E2
:1003E000C0400ED0F0D0E0D0D0D2A8D2AA43E610C0
:1003F00032D0F0D0E0D0D032C2AAD28EC2CA85CCE0
:100400006285CD63D2CA32C2AFC0D0C0E0D2D3853C
:1004100051FB8552FC85525553F7BF53DAFE53E624
:10042000EF53F7DF53D8FED0E0D0D0D2AF3279010E
:10043000801879038014790A8010790F800C791E56
:1004400080087964800479C88000781474F0000012
:1004500000D5E0FAD8F6D9F2227901801479038028
:1004600010790A800C791E80087964800479C8802C
:10047000007591007594307595F9759104D22D43EE
:10048000E680303B0BC2AF302D0912F95075A70042
:10049000202DFDD2AFD9DA2278FF20282879A1E7D4
:1004A0006023E571601F74FF8571F0848539F03039
:1004B000290375F005A4F8C5F0600278FFC3E8953C
:1004C000585002A858885722C3E57094A0E571944B
:1004D00000E55750031481D9046002F5572275E8EE
:1004E00090220559C3E5599408405330EDF4A8BD56
:1004F000A9BE755900E9FA79A0E76041EA7006E5FE
:100500005A6018800CC3E8955A600EE55A50056091
:100510000A1480070460FA8002E55AF55AC3955F11
:10052000401B7556C0C394044013755680C3940491
:10053000400B755640C39404400375560022E5569F
:100540002410500274FFF55622743279A687F0A465
:10055000C5F0A2F733F558227570007571F022C20C
:10056000AFC2CAA8CCA9CDAA3A30CF010AD2CAD20A
:10057000AFC3EA13FAE913F9E813F8853B3E853C6B
:100580003F883B893C8A3D22C2AFC2CAA8CCA9CDD4
:10059000AA3A30CF010AD2CAD2AFC3EA13FAE9139A
:1005A000F9E813F8AB3BAC3C883B893CC3E89BF8CB
:1005B000E99C8840F54120280B547FF9302C030238
:1005C00006AD8041AD3D8A3DF9EA9D547FFA600653
:1005D00078FF79FF8013AE3EAF3F8B3E8C3FA83B48
:1005E000A93CC3E89EF8E99FF9C3E57113FBE570E8
:1005F00013FAE82AF570E93BF57150067570FF753E
:1006000071FF020652AA70AB71AC70AD717E047FAF
:1006100002C3EB9404400D1E1FC3EB940840052059
:1006200029021E1FC3ED13FDEC13FCDEF7C3EA9C89
:10063000FAEB9DFBEF6009C3E913F9E813F8DFF764
:10064000EA28FAEB39FB8A708B7150067BFF8B70BE
:100650008B71C3EB94025002D22C3028057F030229
:10066000067E7892E6FFC3E537948240110FC3E51A
:100670003794A040010FC3EF940640027F057E022D
:10068000E571C4540FF9E571C454F0F8E570C45431
:100690000F28F8C3E89EFAE99400FB4009C3EA94E6
:1006A00001EB940050047A01E4FB0206F9AA70AB56
:1006B00071EBC4FEEAC4540F4EFCC3EA9CFAEB94FF
:1006C00000FBC3E813C313F8EA28FAEB3400FB8AF3
:1006D000708B71C3EB94024002C22C7802EBC4FE13
:1006E0007B00EAC4540F4EFAC3EA98FA4005C3945B
:1006F0000150027A017892E6FF303B0BC2AF302DF9
:100700000912F95075A700202DFDD2AF85499285B9
:100710004A93D22D43E680C3E49AF8E49BF9C3E8F8
:1007200033F8E933F9302C0302079CE8FAE9FBD3EC
:10073000E913FDE813FC8849894AC3EF9403603844
:10074000EF20E00CE82CF8E93DF9ECFAEDFB801322
:10075000E828F8E939F9C3E82401F8E93400F97A1E
:10076000FF7BFFC3EF9403400F8A4B8B4C88458976
:10077000468C478D480207D1884B894C8A458B4669
:100780008C478D48302812754BF0754CFF7547F03B
:100790007548FF7549F0754AFF0207D1E8FAD3E8BA
:1007A00013FC8849C3EF94036021EF20E007E82C95
:1007B000F8ECFAE1BCE8282401F87AFFC3EF9403CF
:1007C00040098A4B88458C470207D1884B8A458C63
:1007D00047303B0BC2AF302D0912F95075A70020EE
:1007E0002DFDD2AF753402D22D43E680E5255403AA
:1007F0006034A870A971C3E913F9E813F8C3E913C9
:10080000F9E813F8302804E92440F9C2AF53E67F31
:10081000759100C3E498F594E499F595759104D227
:100820002D43E680D2AF22D22075440075200030DF
:100830002B03752040800ED2207544007520403077
:100840002B0375200078017901202C28E52554031D
:100850006002C2207919E571C313700104F8C394D2
:100860001940027819302804781B791BC3E833F843
:10087000C3E933F9202D11E544600D302803D53448
:1008800004D22101FC1207E70544E59B5440B52042
:100890000201E430280908C3E899400118017420D6
:1008A000200B08C3E89940030208450174C2205395
:1008B000E67F759100302C117594007595F0759157
:1008C00004D22D43E680020845E5717EFFC3334024
:1008D00009C3334005C3334001FEC3E49E75940051
:1008E000F59501BEC3E5339401500302084530205D
:1008F00003020845D80201FA0174C221C2AF53E6CF
:100900007F759100854B94854C9575910485459232
:10091000854693D22D43E680D2AFE5255403600788
:100920002029020533801030210D202B0A202007BA
:10093000158115810212552278003020027801E5D8
:100940003775F007A4F9E5F028F5F0E9A2F013A255
:10095000F113A2F213F537C394785003753778C3B7
:10096000E5379538400653F28F75D5FF303B0BC203
:10097000AF302D0912F95075A700202DFDD2AF859B
:100980004792854893D22D43E68022C2AF53E67F3B
:100990007591008545948546958547928548937560
:1009A0009104D22D43E680D2AF22203817C2AF5334
:1009B000F2DFC29643F24075D5EF43F210D2AF7525
:1009C0009F5341CEC2AF53F2DFC29443F21075D5AC
:1009D000BF43F240D2AF759F5341CE203817C2AF0C
:1009E00053F2EF75D5DF43F220C29643F240D2AF07
:1009F000759F6341CEC2AF53F2BF75D5DF43F2207E
:100A0000C29443F210D2AF759F2341CE203817C253
:100A1000AF53F2BFC29443F21075D5DF43F220D238
:100A2000AF759F2341CEC2AF53F2EFC29643F2405F
:100A300075D5DF43F220D2AF759F6341CE203817C2
:100A4000C2AF53F2DF75D5BF43F240C29443F210F8
:100A5000D2AF759F538077C2AF53F2DF75D5EF43A6
:100A6000F210C29643F240D2AF759F538060203897
:100A700017C2AF53F2EFC29543F22075D5BF43F2D0
:100A800040D2AF759F638046C2AF53F2BFC2954359
:100A9000F22075D5EF43F210D2AF759F23802F203F
:100AA0003817C2AF53F2BF75D5EF43F210C295436A
:100AB000F220D2AF759F238015C2AF53F2EF75D5E8
:100AC000BF43F240C29543F220D2AF759F63227AB2
:100AD0001C7B3C80127A147B4B800C7A107B5A80F2
:100AE000067A0A7B788000E55BD5E0012275A913C0
:100AF00075A71075C10075A7007902E453F2DFD520
:100B0000E0FDD29543F220D5E0FD53F2DFD5E0FDC4
:100B1000C29543F220D5E0FDE920E005D29643F2EC
:100B20004030E005D29443F210E55BD5E0FDE920CA
:100B3000E00353F2BF30E00353F2EF7496D5E0FDCB
:100B4000D9B9EAF8D5E0FDD8FBDB9C53F2DF75A7F5
:100B50001075C13075A70075A9032253F28F53F2A7
:100B60008F75D5FF22788076FF0876FF0876FF081C
:100B700076FF0876FF0876FF0876090876FF087684
:100B800001788C76010876FF0876FF0876FF0876F4
:100B9000FF0876FF0876030876FF0876FF0876FFE1
:100BA0000876250876D00876280876500876040856
:100BB00076FF0876020876FF08767A0876FF0876D0
:100BC000070876010876FF0876FF087600087600A9
:100BD000227888E6C39403D23A5002C23AC238E679
:100BE00030E102D238A23892397886E6149000C0FB
:100BF0009378A6F67886E6F539C3940250037539E2
:100C000002789CE67538FFB402037538A0B403037C
:100C100075388278A0E6F8600674282409D8FCF5B7
:100C20005F2278A5E6F954037000E9540C7000E9DE
:100C300054307000E954C0700022AA70AB71EBC34D
:100C400013F4FBEA13F4FA8A928B93D22D43E680D5
:100C500022C2AF53E67F7591008545948546957510
:100C60009104854792854893D22D43E680D2AF22E6
:100C7000755D00755E007597DE7597AD7581C04333
:100C8000FF8075EF0675A90075A900715B7580FF7F
:100C900075F19375A4007580FF75D4FF759000758C
:100CA000F28F75A57075900075D5FF75A00075A6BB
:100CB0000175A72075CC0175A70075E34075E202A8
:100CC000715BE4F8F6D8FD71651212947898865B32
:100CD00075300175A71075C13075A70075A903C2DD
:100CE000AF12044651CF12043E12043E12043E518C
:100CF000D512043E12043E12043E51DB12043E1291
:100D0000043E12043E51E151E11204469122C2AF69
:100D100075A71053CEEF75A70053A47FD28775A98E
:100D20001375A71075C10075A700755D00755E008D
:100D3000AAE475E4F778FA79FA308709D9FBD8F78D
:100D4000021C008AE4C2AF71D17898865B715B7532
:100D5000A71075C13075A70075A90375C8047591F2
:100D600004C22D75D84075D90875F783759E001596
:100D7000F775960075DA4A75DB0075A82175E610DF
:100D800075B801759B80759D0075D10C75BCB975E2
:100D9000BB1075E88075B20112042E9000007588B2
:100DA000007572801200CD753600C230754D007529
:100DB0004E0075E47FD2337588517589AA758C0011
:100DC000758D00C2A9D2ABD2AAD2AF758E0C756157
:100DD0000075602875732875220A120469756020F1
:100DE000C3E522940A754D00754E00406E758E0C59
:100DF00075618075601475731475220A1204697523
:100E00006010C3E522940A754D00754E00404C7584
:100E1000E4F7C233758E0C75610075602875732810
:100E200075220A120469756020C3E522940A754D83
:100E300000754E004025758E0C75618075601475C7
:100E4000731475220A120469756010C3E522940AAE
:100E5000754D00754E004003020D0E1200CD1204B8
:100E60005D203003020D0EC2AFA233823B4006511B
:100E7000E151E1800451DB51DBD2AF12046D120469
:100E800069C3E54F9401400280EFC2AFA233823BB9
:100E9000401D51CFD2AF120469C2AF51CFD2AF12B1
:100EA0000469C2AF51CFD2AF120469C2AF800651FC
:100EB000E151E151E1D2AF12046D7530007570005F
:100EC000757100754000754100E4F531F53275200B
:100ED0000005203001477520000531E531F4703DF3
:100EE0000532789AE67819146012783214600D7819
:100EF0007D14600878FA146003753200C3E53298F7
:100F0000401B715B12042E15327531007899865B97
:100F1000C2AF51E1D2AF7898865B120469120461C6
:100F2000E5237002A10E1204593030A5C3E54F9499
:100F300001500AC3E54D94015016020ED112046906
:100F4000E5237003020D0E754D00754E000210F57D
:100F5000C3E54D94017016C2AF715B7899865B5101
:100F6000CF7898865BD2AF1204690210E4C3E54DD6
:100F700094027016C2AF715B7899865B51D57898F0
:100F8000865BD2AF1204690210E4C3E54D9403708E
:100F900016C2AF715B7899865B51DB7898865BD21D
:100FA000AF1204690210E4C3E54D94047016C2AF99
:100FB000715B7899865B51E17898865BD2AF1204B9
:100FC000690210E4C3E54D94057016C2AF715B78F9
:100FD00099865B51E17898865BD2AF120469021062
:100FE000E4C3E54D9407701AC3E54E94065002021F
:100FF0000F267401303A0274037888F6C238C23979
:1010000001E4C3E54D9408701AC3E54E94065002FE
:10101000020F267402303A0274047888F6D238D26D
:101020003901E4C3E54D94097018C3E54E940650A8
:1010300003020F26303A0BC37888E69402F6C23AD0
:1010400001E4C3E54D940A7017C3E54E94065003BE
:10105000020F26203A0A7888E62402F6D23A01E402
:10106000C3E54D94147026C3E54E94065003020F59
:1010700026C2AF901A0B740093D2AF7888F613C2D1
:1010800038C2394002D2384002D2398057C3E54DC8
:1010900094157038C3E54E9406404FC2AF901A0BBA
:1010A000740093D2AFF8B801027402B8020274015E
:1010B000B803027404B8040274037888F613C238C3
:1010C000C2394002D2384002D2398018C3E54D946B
:1010D0000C7011755DA5755EF1C3E54E9406400A6E
:1010E00051DBD2AF754E00754D00755D00755E0029
:1010F000C230020F26C2AF120B5BE4D2AFE4F55947
:10110000F524F525F5377559081204591204DE3017
:10111000EDFDA8BDA9BEE97001F8885A1204E27578
:101120005908C2AF120549855856855857D2AF3075
:101130003A07C238303102D238D228753300120A49
:101140006E120A9F1205581205881205581205885A
:101150001205581208371209381209AA1205881206
:101160000827202C03120498302C031204C81209FB
:10117000381209DB120588120837120938120A0CD6
:10118000120588120827120938120A3D1205881222
:101190000837120938120A6E1205881204DE120886
:1011A00027120938120A9F1204E2120588302827F4
:1011B00085585679187A0CC3E53399400EC228D267
:1011C000298A35855856855857800CC3E54F9401B8
:1011D0004003021153415D30291F202B1CE53514BB
:1011E0007006C229D22A2153F535203A07C3E54FAC
:1011F000940140030211538064753600203A0F7841
:10120000FA79A4E760027803C3E55098504FE523CC
:10121000604B303A17203805203107800F303102FB
:10122000800A202B07D22B855856218378F0302B4B
:10123000058558567820C3E5719850030211533044
:101240002B1BC22BC238303102D238D2297535124D
:1012500085585621530536E54F60024160753600CA
:10126000C2AF120B5B752500D2AF120469120B5B83
:1012700075240078A4E6600FC29643F240C29543FD
:10128000F220C29443F210C3E53694044003020DE9
:101290000E020EBD901A0D78207114E520B4550A87
:1012A000A37114E520B4AA028013755DA5755EF1E3
:1012B000120B6551DB755D00755E00801D901A0391
:1012C00078807B0A7114A308DBFA901A0F788C7B64
:1012D0001A7114A308DBFA901A2922C2AF71577150
:1012E00034901A0074027119A374027119A3742145
:1012F0007119901A0378807B0A7118A308DBFA90A1
:101300001A0F788C7B1A7118A308DBFA716A71487E
:10131000901A2922E493F622E6438F01538FFDFFB2
:10132000C3E583941C400122EF855DB7855EB7F06D
:10133000538FFE22438F02438F01855DB7855EB7D1
:10134000901A0DF0538FFC22901A0D74557119905C
:101350001A0E74AA7119227A3079D07820901A4026
:101360007114E520F709A3DAF7227A3079D0901AC0
:1013700040E7711909A3DAF9227C05120446DCFB67
:0A13800022C2AF120ACFD2AF222220
:1019E0007597DE7597AD43EF02B4A5030219FD901C
:0A19F000FBFDE493B4A5F502FBC073
:1019FD00020C70020221FFFFFFFFFFFF09FF01FF35
:101A0D0055AA01FFFFFFFFFF03FFFFFF25D0285061
:0D1A1D0004FF02FF7AFF0701FFFF0000FF3A
:101A400023575F485F303023202020202020202093
:101A500023424C48454C492445464D3842323123B7
:101A60002020202020202020202020202020202076
:101C0000C2AFC2D37597DE7597AD7581C075A90057
:101C100075A90043FF80752438752503B1DE752949
:101C2000A5752AF143F18053A47FD28775D4FF753F
:101C3000E3407DFA780379E67C1075220075230075
:101C4000901DEB7B06752498752501308702814B2A
:101C5000208708D8FBD9F9DCF781BD308708D8FB8D
:101C6000D9F9DCF781BDB19EE493A3C39A6004DD8A
:101C7000C381BDDBDBB190600281347B08E493FA61
:101C8000A3B171DBF87A30B171752200752300B110
:101C900090EAFCEBFDC3ED94FE400EB1908A278BD9
:101CA00028ED30E0048A828B83B1907AC270D8C369
:101CB000ED94FE601950CEBD0029EC600F75200038
:101CC0007521FF752900752A000200008100A827F0
:101CD000A9280809D804D90281E0B194EAF281D494
:101CE0000D81A9C3ED94035051EDA2E092007AC595
:101CF000C3E5829400E583941C508C200010438F30
:101D000002438F018529B7852AB7F0300027A8271D
:101D1000A9280809438F01538FFDD804D902A135A2
:101D2000C3E583941C4003A3A11AE28529B7852A41
:101D3000B7F0A3A11A538FFC81857AC1BD030CE4CF
:101D400093A3FAB155DCF8B14D81858187AA22AB06
:101D500023B171EBFAEA6222752608C3E52313F575
:101D600023E52213F52250066323A0632201D52622
:101D7000EAB1DEB1DE75260AEAF4200102D287302C
:101D80000102C287B1DEC3134002C201D526EB2295
:101D9000B194EAFB208702A194308702A1997526AD
:101DA00008AE24AF25C3EF13FFEE13FEB1E2B1DEA0
:101DB000C3EA133087024480FA30E703632201C389
:101DC000E52313F523E52213F52250066323A063D0
:101DD0002201D526D9E52265236523F52222AE24EA
:101DE000AF250E0FDEFEDFFCD20122424C48656CAF
:091DF0006934373164E8B20601E0
:00000001FF
