:020000040000FA
:060000000219E002036A90
:03000B0002F9B047
:030013000203F8ED
:03001B000200FFE1
:03002B0002033697
:03003B0002F93097
:03005B0002040795
:1000730053E67FC2AF7592FA7593FFD2AF53917F68
:0C008300302D08C22D303B0302F9703212
:0E009B00C29FB287C574C886A5C804C574325A
:1000B0004A4553433031202020202020202020207A
:1000C0000406080C10182030406080A0C0C2AFC0E9
:1000D00082C083903E00E493B4541BA3E493B44CD9
:1000E00015A3E493B4580FA3A3A3E493B403071296
:1000F000F900D23B8002C23BD083D082D2AF22C271
:10010000AFC2A853E6EFC28E85618BC0D0D2D3C0F8
:10011000E0C0F0C2CAA8CCA9CDD2CAD2AF758A00BD
:10012000C3E89562F8E99563F9C3E913F9E813F8B0
:10013000C3E913F9E813F8E9701DE89573401895C1
:10014000735014E582B4100F7C007B007A007908AC
:10015000900000A8602160900000D2A8D2AA617629
:10016000E0FDC39CC39840EF98EB33FB0582E0FCB5
:10017000C39DC39840E198EB33FB0582E0FDC39C2F
:10018000C39840D398EB33FB0582E0FCC39DC39832
:1001900040C598EB33FB0582E0FDC39CC39840B794
:1001A00098EB33FB0582E0FCC39DC39840A998EB14
:1001B00033FB0582E0FDC39CC398409B98EB33FB67
:1001C0000582E0FCC39DC398408D98EB33FB05820C
:1001D00021DB900000D2A8D2AA6176E0FDC39CC3C7
:1001E0009840EF98EA33FA0582E0FCC39DC398403B
:1001F000E198EA33FA0582E0FDC39CC39840D398A6
:10020000EA33FA0582E0FCC39DC39840C598EA33FF
:10021000FA0582E0FDC39CC39840B798EA33FA051B
:1002200082E0FCC39DC39840A998EA33FA0582E0B6
:10023000FDC39CC398409B98EA33FA0582E0FCC357
:100240009DC398408D98EA33FA0582EBC46B6A54DB
:10025000F0F9EAC4303301F454F0C3996009900016
:1002600000D2A8D2AA6176D2C0EBF4C454F0F9EA65
:10027000F4C4540F49FAEBF4C4540FFBC3EAF994E5
:1002800060FAEB9400FB5020C3E97B007A00790010
:100290006016C3135006F9C3954D600AE9F54D7514
:1002A0004E0079008002054E303A27C3EA94D0F818
:1002B000EB9407F9400BE8FAE9FB203109D2314110
:1002C000C6303102C231203902B231C3EA33FAEB0F
:1002D00033FBEB2B3B3BF9C3EB13FBEA13FAEA29A5
:1002E000FAEB3400FB30E3047AFF7BFFE52554038F
:1002F000601B202A18E55833F9EB7007C3E99A40D0
:1003000002E9FAE536C4332AFAEB3400FBC3EA33D8
:10031000C4540FF8EB33C454F048F87005EA600297
:100320007801900000E52260021522618C900000A7
:10033000D2A8D2AA6176C0D0C0E0C2CF053AE55CAF
:100340006005755C006165755C01E523600215233D
:10035000C3E54F60057550006165E5502401F55017
:1003600050037550FFD0E0D0D032C0E0E58A8561FF
:100370008BF0A3D0E0320522E52270021522C3E5FE
:10038000229432500261D8754F0061DB884FD23021
:10039000E86003755000C3E556FC95574002AC5722
:1003A000C3EC954F5008EC75F008A4FAABF0EAF4F2
:1003B000F8EBF45407F9C3E89432FAE99400FB50DF
:1003C000047A007B00885189528A538B5475230A22
:1003D00053F7DF43F740800375230AE5E6A2E08286
:1003E000C0400ED0F0D0E0D0D0D2A8D2AA43E610C0
:1003F00032D0F0D0E0D0D032C2AAD28EC2CA85CCE0
:100400006285CD63D2CA32C2AFC0D0C0E0D2D3A819
:10041000F9E55530E20AE5FA20E22E20E12B8128A9
:10042000E5FA30E22420E121C3E55213F8E5511347
:10043000F5E988EAC3E55413F8E55313F5FB88FCA6
:1004400085525553F7BF53E6EF53F7DFD0E0D0D0D6
:10045000D2AF327901801879038014790A8010793B
:100460000F800C791E80087964800479C880007838
:100470001474F0000000D5E0FAD8F6D9F222790120
:10048000801479038010790A800C791E80087964C1
:10049000800479C880007591007594307595F97560
:1004A0009104D22D43E680303B0BC2AF302D0912B0
:1004B000F95075A700202DFDD2AFD9DA2278FF20A0
:1004C000282879A1E76023E571601F74FF8571F02A
:1004D000848539F030290375F005A4F8C5F0600271
:1004E00078FFC3E895585002A858885722C3E57092
:1004F00094A0E5719400E55750031481FE04600256
:10050000F5572275E890220559C3E55994084053E0
:1005100030EDF4A8BDA9BE755900E9FA79A0E760ED
:1005200041EA7006E55A6018800CC3E8955A600EDF
:10053000E55A5005600A1480070460FA8002E55A03
:10054000F55AC3955F401B7556C0C394044013759C
:100550005680C39404400B755640C3940440037501
:10056000560022E5562410500274FFF556227432CC
:1005700079A687F0A4C5F0A2F733F558227570006C
:100580007571F022C2AFC2CAA8CCA9CDAA3A30CFA9
:10059000010AD2CAD2AFC3EA13FAE913F9E813F891
:1005A000853B3E853C3F883B893C8A3D22C2AFC2A9
:1005B000CAA8CCA9CDAA3A30CF010AD2CAD2AFC3B9
:1005C000EA13FAE913F9E813F8AB3BAC3C883B8932
:1005D0003CC3E89BF8E99C8840F54120280B547FF8
:1005E000F9302C030206D28041AD3D8A3DF9EA9DE7
:1005F000547FFA600678FF79FF8013AE3EAF3F8BE1
:100600003E8C3FA83BA93CC3E89EF8E99FF9C3E5AF
:100610007113FBE57013FAE82AF570E93BF57150A8
:10062000067570FF7571FF020677AA70AB71AC702A
:10063000AD717E047F02C3EB9404400D1E1FC3EB1B
:10064000940840052029021E1FC3ED13FDEC13FC86
:10065000DEF7C3EA9CFAEB9DFBEF6009C3E913F9EF
:10066000E813F8DFF7EA28FAEB39FB8A708B715050
:10067000067BFF8B708B71C3EB94025002D22C303F
:1006800028057F030206A37892E6FFC3E53794822C
:1006900040110FC3E53794A040010FC3EF9406400B
:1006A000027F057E02E571C4540FF9E571C454F070
:1006B000F8E570C4540F28F8C3E89EFAE99400FBEB
:1006C0004009C3EA9401EB940050047A01E4FB0270
:1006D000071EAA70AB71EBC4FEEAC4540F4EFCC3F4
:1006E000EA9CFAEB9400FBC3E813C313F8EA28FA78
:1006F000EB3400FB8A708B71C3EB94024002C22C76
:100700007802EBC4FE7B00EAC4540F4EFAC3EA98A9
:10071000FA4005C3940150027A017892E6FF303B1B
:100720000BC2AF302D0912F95075A700202DFDD254
:10073000AF854992854A93D22D43E680C3E49AF867
:10074000E49BF9C3E833F8E933F9302C030207C11D
:10075000E8FAE9FBD3E913FDE813FC8849894AC3A9
:10076000EF94036038EF20E00CE82CF8E93DF9EC59
:10077000FAEDFB8013E828F8E939F9C3E82401F819
:10078000E93400F97AFF7BFFC3EF9403400F8A4BF3
:100790008B4C884589468C478D480207F6884B89E3
:1007A0004C8A458B468C478D48302812754BF07526
:1007B0004CFF7547F07548FF7549F0754AFF020711
:1007C000F6E8FAD3E813FC8849C3EF94036021EFFD
:1007D00020E007E82CF8ECFAE1E1E8282401F87AB7
:1007E000FFC3EF940340098A4B88458C470207F604
:1007F000884B8A458C47303B0BC2AF302D0912F92C
:100800005075A700202DFDD2AF753402D22D43E6DE
:1008100080E52554036034A870A971C3E913F9E891
:1008200013F8C3E913F9E813F8302804E92440F970
:10083000C2AF53E67F759100C3E498F594E499F54F
:1008400095759104D22D43E680D2AF22D220754413
:1008500000752000302B03752040800ED220754497
:1008600000752040302B0375200078017901202C81
:1008700032E52554036002C2207905E571C3137087
:100880000104C313700104C313700104F8C3940579
:1008900040027805302804781B791BC3E833F8C37D
:1008A000E933F9202D10E544600C302803D53404D9
:1008B000D221212A110C0544E59B5440B520022188
:1008C0001230280908C3E89940011801A320200B21
:1008D00008C3E899400302086A01A3C22053E67FD7
:1008E000759100302C117594007595F0759104D2B6
:1008F0002D43E68002086AE5717EFFC3334009C3D9
:10090000334005C3334001FEC3E49E759400F59562
:1009100001ECC3E5339401500302086A302003025E
:10092000086AD802212801A3C221C2AF53E67F750D
:100930009100854B94854C9575910485459285462B
:1009400093D22D43E680D2AFE525540360072029DA
:10095000020533801030210D202B0A20200715813D
:1009600015810212812278003020027801E5377566
:10097000F007A4F9E5F028F5F0E9A2F013A2F113CD
:10098000A2F213F537C394785003753778C3E5376F
:100990009538400653F28F75D5FF303B0BC2AF3010
:1009A0002D0912F95075A700202DFDD2AF85479271
:1009B000854893D22D43E68022C2AF53E67F7591DE
:1009C00000854594854695854792854893759104A1
:1009D000D22D43E680D2AF22203817C2AF53F2DFC8
:1009E000C29643F24075D5EF43F210D2AF759F53D4
:1009F00041FCC2AF53F2DFC29443F21075D5BF433E
:100A0000F240D2AF759F5341FC203817C2AF53F26A
:100A1000EF75D5DF43F220C29643F240D2AF759F07
:100A20006341FCC2AF53F2BF75D5DF43F220C294DD
:100A300043F210D2AF759F2341FC203817C2AF5349
:100A4000F2BFC29443F21075D5DF43F220D2AF75E6
:100A50009F2341FCC2AF53F2EFC29643F24075D5DB
:100A6000DF43F220D2AF759F6341FC203817C2AF3D
:100A700053F2DF75D5BF43F240C29443F210D2AFB8
:100A8000759F538077C2AF53F2DF75D5EF43F210F5
:100A9000C29643F240D2AF759F538060203817C290
:100AA000AF53F2EFC29543F22075D5BF43F240D267
:100AB000AF759F638046C2AF53F2BFC29543F22029
:100AC00075D5EF43F210D2AF759F23802F203817D2
:100AD000C2AF53F2BF75D5EF43F210C29543F22077
:100AE000D2AF759F238015C2AF53F2EF75D5BF43C8
:100AF000F240C29543F220D2AF759F63227A1C7BED
:100B00003C80127A147B4B800C7A107B5A80067AD8
:100B10000A7B788000E55BD5E0012275A91375A7F3
:100B20001075C10075A7007902E453F2DFD5E0FD2E
:100B3000D29543F220D5E0FD53F2DFD5E0FDC2951A
:100B400043F220D5E0FDE920E005D29643F24030A3
:100B5000E005D29443F210E55BD5E0FDE920E00327
:100B600053F2BF30E00353F2EF7496D5E0FDD9B9EC
:100B7000EAF8D5E0FDD8FBDB9C53F2DF75A71075D2
:100B8000C13075A70075A9032253F28F53F28F75F8
:100B9000D5FF22788076FF0876FF0876FF0876FF7B
:100BA0000876FF0876FF0876090876FF0876017850
:100BB0008C76010876FF0876FF0876FF0876FF0836
:100BC00076FF0876030876FF0876FF0876FF08763A
:100BD000250876D00876280876500876040876FF2F
:100BE0000876020876FF08767A0876FF0876070806
:100BF00076010876FF0876FF0876000876002278EE
:100C000088E6C39403D23A5002C23AC238E630E1D1
:100C100002D238A23892397886E6149000C09378D0
:100C2000A6F67886E6F539C3940250037539027842
:100C30009CE67538FFB402037538A0B40303753819
:100C40008278A0E6F8600674282409D8FCF55F22B3
:100C500078A5E6F954037000E9540C7000E95430AB
:100C60007000E954C0700022AA70AB71EBC313F49A
:100C7000FBEA13F4FA8A928B93D22D43E68022C2C8
:100C8000AF53E67F7591008545948546957591042F
:100C9000854792854893D22D43E680D2AF22755D79
:100CA00000755E007597DE7597AD7581C043FF8056
:100CB00075EF0675A90075A90071897580FF75F13A
:100CC0009375A4007580FF75D4FF75900075F28F41
:100CD00075A57075900075D5FF75A00075A6017596
:100CE000A72075CC0175A70075E34075E2027189F4
:100CF000E4F8F6D8FD71931212C07898865B7530CF
:100D00000175A71075C13075A70075A903C2AF1290
:100D1000046B51FD12046312046312046371031225
:100D200004631204631204637109120463120463FE
:100D3000120463710F710F12046B9150C2AF75A74B
:100D40001053CEEF75A70053A47FD28775A91375F2
:100D5000A71075C10075A700755D00755E00AAE457
:100D600075E4F778FA79FA308709D9FBD8F7021CCD
:100D7000008AE4C2AF71FF7898865B718975A7100D
:100D800075C13075A70075A90375C804759104C2B3
:100D90002D75D84075D90875F782759E0375960133
:100DA00075DB4275DA4275A82175E61075B80175D4
:100DB0009B80759D0075D10C75BCB975BB1075E82D
:100DC0008075B2011204539000007588007572801E
:100DD0001200CD753600C230754D00754E0075E4B9
:100DE0007FD2337588517589AA758C00758D00C2C4
:100DF000A9D2ABD2AAD2AF758E0C756100756028EE
:100E000075732875220A12048E756020C3E522943A
:100E10000A754D00754E00406E758E0C75618075BB
:100E2000601475731475220A12048E756010C3E580
:100E300022940A754D00754E00404C75E4F7C2339C
:100E4000758E0C75610075602875732875220A12FD
:100E5000048E756020C3E522940A754D00754E001E
:100E60004025758E0C75618075601475731475223C
:100E70000A12048E756010C3E522940A754D007540
:100E80004E004003020D3C1200CD120482203003BC
:100E9000020D3CC2AFA233823B4006710F710F803E
:100EA0000471097109D2AF12049212048EC3E54F86
:100EB0009401400280EFC2AFA233823B401D51FD3E
:100EC000D2AF12048EC2AF51FDD2AF12048EC2AFA8
:100ED00051FDD2AF12048EC2AF8006710F710F7137
:100EE0000FD2AF12049275300075700075710075E5
:100EF0004000754100E4F531F532752000052030E1
:100F000001477520000531E531F4703D0532789ACE
:100F1000E67819146012783214600D787D14600838
:100F200078FA146003753200C3E53298401B71896A
:100F300012045315327531007899865BC2AF710F78
:100F4000D2AF7898865B12048E120486E523700275
:100F5000A13C12047E3030A5C3E54F9401500AC372
:100F6000E54D94015016020EFD12048EE523700328
:100F7000020D3C754D00754E00021121C3E54D94E4
:100F8000017016C2AF71897899865B51FD78988699
:100F90005BD2AF12048E021110C3E54D940270169D
:100FA000C2AF71897899865B71037898865BD2AFFE
:100FB00012048E021110C3E54D94037016C2AF7176
:100FC000897899865B71097898865BD2AF12048E16
:100FD000021110C3E54D94047016C2AF718978995F
:100FE000865B710F7898865BD2AF12048E02111067
:100FF000C3E54D94057016C2AF71897899865B126E
:101000000B0F7898865BD2AF12048E2110C3E54D8A
:101010009407701AC3E54E94065002020F527401F1
:10102000303A0274037888F6C238C2392110C3E519
:101030004D9408701AC3E54E94065002020F527484
:1010400002303A0274047888F6D238D2392110C3BB
:10105000E54D94097018C3E54E94065003020F52F3
:10106000303A0BC37888E69402F6C23A2110C3E501
:101070004D940A7017C3E54E94065003020F522098
:101080003A0A7888E62402F6D23A2110C3E54D9454
:10109000147026C3E54E94065003020F52C2AF905F
:1010A0001A0B740093D2AF7888F613C238C2394055
:1010B00002D2384002D2398057C3E54D94157038BA
:1010C000C3E54E9406404FC2AF901A0B740093D202
:1010D000AFF8B801027402B802027401B8030274D6
:1010E00004B8040274037888F613C238C239400287
:1010F000D2384002D2398018C3E54D940C70117576
:101100005DA5755EF1C3E54E9406400A7107D2AF46
:10111000754E00754D00755D00755E00C230020FA2
:1011200052C2AF120B89E4D2AFE4F559F524F5258C
:10113000F53775590812047E12050330EDFDA8BD80
:10114000A9BEE97001F8885A120507755908C2AF9F
:1011500012056E855856855857D2AF303A07C238B7
:10116000303102D238D228753300120A9C120ACDCF
:1011700012057D1205AD12057D1205AD12057D1219
:10118000085C1209661209D81205AD12084C202C11
:10119000031204BD302C031204ED120966120A0971
:1011A0001205AD12085C120966120A3A1205AD1258
:1011B000084C120966120A6B1205AD12085C12097E
:1011C00066120A9C1205AD12050312084C1209663C
:1011D000120ACD1205071205AD3028278558567919
:1011E000187A0CC3E53399400EC228D2298A358576
:1011F0005856855857800CC3E54F9401400302119F
:101200007F418930291F202B1CE535147006C22927
:10121000D22A217FF535203A07C3E54F94014003D8
:1012200002117F8064753600203A0F78FA79A4E7BE
:1012300060027803C3E55098504FE523604B303A85
:1012400017203805203107800F303102800A202B0B
:1012500007D22B85585621AF78F0302B058558568C
:101260007820C3E57198500302117F302B1BC22BED
:10127000C238303102D238D22975351285585621FC
:101280007F0536E54F6002418C753600C2AF120B08
:1012900089752500D2AF12048E120B89752400784F
:1012A000A4E6600FC29643F240C29543F220C29476
:1012B00043F210C3E53694044003020D3C020EE9EC
:1012C000901A0D78207140E520B4550AA37140E5CD
:1012D00020B4AA028013755DA5755EF1120B93719F
:1012E00007755D00755E00801D901A0378807B0A8B
:1012F0007140A308DBFA901A0F788C7B1A7140A317
:1013000008DBFA901A2922C2AF71837160901A002B
:1013100074027145A374027145A374217145901A3A
:101320000378807B0A7144A308DBFA901A0F788C4B
:101330007B1A7144A308DBFA71967174901A292202
:10134000E493F622E6438F01538FFDFFC3E58394B8
:101350001C400122EF855DB7855EB7F0538FFE22FA
:10136000438F02438F01855DB7855EB7901A0DF0FC
:10137000538FFC22901A0D74557145901A0E74AA61
:101380007145227A3079D07820901A407140E5205A
:10139000F709A3DAF7227A3079D0901A40E771453D
:1013A00009A3DAF9227C0512046BDCFB22C2AF121E
:0613B0000AFDD2AF22226B
:1019E0007597DE7597AD43EF02B4A5030219FD901C
:0A19F000FBFDE493B4A5F502FBC073
:1019FD00020C9E020221FFFFFFFFFFFF09FF01FF07
:101A0D0055AA01FFFFFFFFFF03FFFFFF25D0285061
:0D1A1D0004FF02FF7AFF0701FFFF0000FF3A
:101A400023575F485F32352320202020202020208C
:101A500023424C48454C492445464D3842323123B7
:101A60002020202020202020202020202020202076
:101C0000C2AFC2D37597DE7597AD7581C075A90057
:101C100075A90043FF80752438752503B1DE752949
:101C2000A5752AF143F18053A47FD28775D4FF753F
:101C3000E3407DFA780379E67C1075220075230075
:101C4000901DEB7B06752498752501308702814B2A
:101C5000208708D8FBD9F9DCF781BD308708D8FB8D
:101C6000D9F9DCF781BDB19EE493A3C39A6004DD8A
:101C7000C381BDDBDBB190600281347B08E493FA61
:101C8000A3B171DBF87A30B171752200752300B110
:101C900090EAFCEBFDC3ED94FE400EB1908A278BD9
:101CA00028ED30E0048A828B83B1907AC270D8C369
:101CB000ED94FE601950CEBD0029EC600F75200038
:101CC0007521FF752900752A000200008100A827F0
:101CD000A9280809D804D90281E0B194EAF281D494
:101CE0000D81A9C3ED94035051EDA2E092007AC595
:101CF000C3E5829400E583941C508C200010438F30
:101D000002438F018529B7852AB7F0300027A8271D
:101D1000A9280809438F01538FFDD804D902A135A2
:101D2000C3E583941C4003A3A11AE28529B7852A41
:101D3000B7F0A3A11A538FFC81857AC1BD030CE4CF
:101D400093A3FAB155DCF8B14D81858187AA22AB06
:101D500023B171EBFAEA6222752608C3E52313F575
:101D600023E52213F52250066323A0632201D52622
:101D7000EAB1DEB1DE75260AEAF4200102D287302C
:101D80000102C287B1DEC3134002C201D526EB2295
:101D9000B194EAFB208702A194308702A1997526AD
:101DA00008AE24AF25C3EF13FFEE13FEB1E2B1DEA0
:101DB000C3EA133087024480FA30E703632201C389
:101DC000E52313F523E52213F52250066323A063D0
:101DD0002201D526D9E52265236523F52222AE24EA
:101DE000AF250E0FDEFEDFFCD20122424C48656CAF
:091DF0006934373164E8B20601E0
:00000001FF
