:020000040000FA
:060000000219E002036A90
:03000B0002F9B047
:030013000203FAEB
:03001B000200FFE1
:03002B0002033697
:03003B0002F93097
:03005B0002040993
:1000730053E67FC2AF7592FA7593FFD2AF53917F68
:0C008300302D08C22D303B0302F9703212
:0E009B00C29FB283C574C886A5C804C574325E
:1000B0004A4553433031202020202020202020207A
:1000C0000406080C10182030406080A0C0C2AFC0E9
:1000D00082C083903E00E493B4541BA3E493B44CD9
:1000E00015A3E493B4580FA3A3A3E493B403071296
:1000F000F900D23B8002C23BD083D082D2AF22C271
:10010000AFC2A853E6EFC28E85618BC0D0D2D3C0F8
:10011000E0C0F0C2CAA8CCA9CDD2CAD2AF758A00BD
:10012000C3E89562F8E99563F9C3E913F9E813F8B0
:10013000C3E913F9E813F8E9701DE89573401895C1
:10014000735014E582B4100F7C007B007A007908AC
:10015000900000A8602160900000D2A8D2AA617629
:10016000E0FDC39CC39840EF98EB33FB0582E0FCB5
:10017000C39DC39840E198EB33FB0582E0FDC39C2F
:10018000C39840D398EB33FB0582E0FCC39DC39832
:1001900040C598EB33FB0582E0FDC39CC39840B794
:1001A00098EB33FB0582E0FCC39DC39840A998EB14
:1001B00033FB0582E0FDC39CC398409B98EB33FB67
:1001C0000582E0FCC39DC398408D98EB33FB05820C
:1001D00021DB900000D2A8D2AA6176E0FDC39CC3C7
:1001E0009840EF98EA33FA0582E0FCC39DC398403B
:1001F000E198EA33FA0582E0FDC39CC39840D398A6
:10020000EA33FA0582E0FCC39DC39840C598EA33FF
:10021000FA0582E0FDC39CC39840B798EA33FA051B
:1002200082E0FCC39DC39840A998EA33FA0582E0B6
:10023000FDC39CC398409B98EA33FA0582E0FCC357
:100240009DC398408D98EA33FA0582EBC46B6A54DB
:10025000F0F9EAC4303301F454F0C3996009900016
:1002600000D2A8D2AA6176D2C0EBF4C454F0F9EA65
:10027000F4C4540F49FAEBF4C4540FFBC3EAF994E5
:1002800060FAEB9400FB5020C3E97B007A00790010
:100290006016C3135006F9C3954D600AE9F54D7514
:1002A0004E0079008002054E303A27C3EA94D0F818
:1002B000EB9407F9400BE8FAE9FB203109D2314110
:1002C000C6303102C231203902B231C3EA33FAEB0F
:1002D00033FBEB2B3B3BF9C3EB13FBEA13FAEA29A5
:1002E000FAEB3400FB30E3047AFF7BFFE52554038F
:1002F000601B202A18E55833F9EB7007C3E99A40D0
:1003000002E9FAE536C4332AFAEB3400FBC3EA33D8
:10031000C4540FF8EB33C454F048F87005EA600297
:100320007801900000E52260021522618C900000A7
:10033000D2A8D2AA6176C0D0C0E0C2CF053AE55CAF
:100340006005755C006165755C01E523600215233D
:10035000C3E54F60057550006165E5502401F55017
:1003600050037550FFD0E0D0D032C0E0E58A8561FF
:100370008BF0A3D0E0320522E52270021522C3E5FE
:10038000229432500261DA754F0061DD884FD2301D
:10039000E86003755000C3E556FC95574002AC5722
:1003A000C3EC954F5008EC75F008A4FAABF0EAF4F2
:1003B000F8EBF45407F9C3E8941EFAE99400FB50F3
:1003C000047A007B0088518952755300755400757A
:1003D000230A53F7DF43F740800375230AE5E6A2BB
:1003E000E082C0400ED0F0D0E0D0D0D2A8D2AA4354
:1003F000E61032D0F0D0E0D0D032C2AAD28EC2CA3B
:1004000085CC6285CD63D2CA32C2AFC0D0C0E0D243
:10041000D3A8F9E55530E20AE5FA20E22E20E12BD7
:10042000812AE5FA30E22420E121C3E55213F8E500
:100430005113F5FB88FCC3E55413F8E55313F5E9B4
:1004400088EA85525553F7BF53E6EF53F7DFD0E004
:10045000D0D0D2AF327901801879038014790A8024
:1004600010790F800C791E80087964800479C88027
:1004700000781474F0000000D5E0FAD8F6D9F22222
:100480007901801479038010790A800C791E800824
:100490007964800479C880007591007594307595F1
:1004A000F9759104D22D43E680303B0BC2AF302D5D
:1004B0000912F95075A700202DFDD2AFD9DA2278A4
:1004C000FF20282879A1E76023E571601F74FF856C
:1004D00071F0848539F030290375F005A4F8C5F072
:1004E000600278FFC3E895585002A858885722C385
:1004F000E57094A0E5719400E557500314A1000441
:100500006002F5572275E890220559C3E559940811
:10051000405330EDF4A8BDA9BE755900E9FA79A0A1
:10052000E76041EA7006E55A6018800CC3E8955A06
:10053000600EE55A5005600A1480070460FA8002D4
:10054000E55AF55AC3955F401B7556C0C3940440E5
:1005500013755680C39404400B755640C3940440F1
:100560000375560022E5562410500274FFF55622FA
:10057000743279A687F0A4C5F0A2F733F558227536
:1005800070007571F022C2AFC2CAA8CCA9CDAA3A38
:1005900030CF010AD2CAD2AFC3EA13FAE913F9E89D
:1005A00013F8853B3E853C3F883B893C8A3D22C20F
:1005B000AFC2CAA8CCA9CDAA3A30CF010AD2CAD2BA
:1005C000AFC3EA13FAE913F9E813F8AB3BAC3C8884
:1005D0003B893CC3E89BF8E99C8840F54120280B07
:1005E000547FF9302C030206D48041AD3D8A3DF999
:1005F000EA9D547FFA600678FF79FF8013AE3EAF24
:100600003F8B3E8C3FA83BA93CC3E89EF8E99FF98D
:10061000C3E57113FBE57013FAE82AF570E93BF5C1
:100620007150067570FF7571FF020679AA70AB7183
:10063000AC70AD717E047F02C3EB9404400D1E1FAD
:10064000C3EB940840052029021E1FC3ED13FDECE7
:1006500013FCDEF7C3EA9CFAEB9DFBEF6009C3E9EC
:1006600013F9E813F8DFF7EA28FAEB39FB8A708B05
:100670007150067BFF8B708B71C3EB94025002D2DA
:100680002C3028057F030206A57892E6FFC3E537E4
:10069000948240110FC3E53794A040010FC3EF943B
:1006A0000640027F057E02E571C4540FF9E571C46E
:1006B00054F0F8E570C4540F28F8C3E89EFAE994A2
:1006C00000FB4009C3EA9401EB940050047A01E472
:1006D000FB020720AA70AB71EBC4FEEAC4540F4EB4
:1006E000FCC3EA9CFAEB9400FBC3E813C313F8EADB
:1006F00028FAEB3400FB8A708B71C3EB9402400242
:10070000C22C7802EBC4FE7B00EAC4540F4EFAC33D
:10071000EA98FA4005C3940150027A017892E6FF04
:10072000303B0BC2AF302D0912F95075A700202DB8
:10073000FDD2AF854992854A93D22D43E680C3E42A
:100740009AF8E49BF9C3E833F8E933F9302C030253
:1007500007C3E8FAE9FBD3E913FDE813FC884989EC
:100760004AC3EF94036038EF20E00CE82CF8E93D31
:10077000F9ECFAEDFB8013E828F8E939F9C3E8242D
:1007800001F8E93400F97AFF7BFFC3EF9403400FCF
:100790008A4B8B4C884589468C478D480207F888E0
:1007A0004B894C8A458B468C478D48302812754BB7
:1007B000F0754CFF7547F07548FF7549F0754AFFB5
:1007C0000207F8E8FAD3E813FC8849C3EF94036002
:1007D00021EF20E007E82CF8ECFAE1E3E828240117
:1007E000F87AFFC3EF940340098A4B88458C47028F
:1007F00007F8884B8A458C47303B0BC2AF302D0938
:1008000012F95075A700202DFDD2AF753402D22DFC
:1008100043E680E52554036034A870A971C3E91349
:10082000F9E813F8C3E913F9E813F8302804E924C8
:1008300040F9C2AF53E67F759100C3E498F594E4A4
:1008400099F595759104D22D43E680D2AF22D2203E
:10085000754400752000302B03752040800ED22097
:10086000754400752040302B037520007801790114
:10087000202C28E52554036002C2207919E571C3B4
:1008800013700104F8C394194002781930280478D1
:100890001B791BC3E833F8C3E933F9202D10E54475
:1008A000600C302803D53404D2212122110E0544D6
:1008B000E59B5440B52002210A30280908C3E89975
:1008C000400118019B20200B08C3E899400302084F
:1008D0006C019BC22053E67F759100302C117594FA
:1008E000007595F0759104D22D43E68002086CE501
:1008F000717EFFC3334009C3334005C3334001FE5B
:10090000C3E49E759400F59501E4C3E5339401506A
:100910000302086C30200302086CD8022120019BDE
:10092000C221C2AF53E67F759100854B94854C95EB
:10093000759104854592854693D22D43E680D2AFCA
:10094000E525540360072029020533801030210D6E
:10095000202B0A20200715811581021223227800FE
:100960003020027801E53775F007A4F9E5F028F5A5
:10097000F0E9A2F013A2F113A2F213F537C39478B1
:100980005003753778C3E53795384009C291C29254
:10099000C29375D57F303B0BC2AF302D0912F95091
:1009A00075A700202DFDD2AF854792854893D22DA3
:1009B00043E68022C2AF53E67F759100854594855A
:1009C0004695854792854893759104D22D43E680DC
:1009D000D2AF22203810C2AFC295D29475D537D28B
:1009E000AF759F4541A3C2AFC295D29675D56DD262
:1009F000AF759F4541A3203810C2AFC29375D55B38
:100A0000D294D2AF759F6541A3C2AFC29175D55B39
:100A1000D296D2AF759F7541A3203810C2AFC29451
:100A2000D29675D55BD2AF759F758077C2AFC296EF
:100A3000D29475D55BD2AF759F658067203810C2A0
:100A4000AFC29275D56DD296D2AF759F458054C214
:100A5000AFC29275D537D294D2AF759F45804420EE
:100A60003810C2AFC296D29575D56DD2AF759F655D
:100A70008031C2AFC294D29575D537D2AF759F750C
:100A80008021203810C2AFC29175D537D295D2AF30
:100A9000759F75800EC2AFC29375D56DD295D2AFDA
:100AA000759F65227A1C7B3C80127A147B4B800CEC
:100AB0007A107B5A80067A0A7B788000E55BD5E065
:100AC000012275A91375A71075C10075A7007902D9
:100AD000E4C295D5E0FDD292D5E0FDC292D5E0FD0D
:100AE000D295D5E0FDE920E002D29130E002D29328
:100AF000E55BD5E0FDE920E002C29130E002C2935F
:100B00007496D5E0FDD9C9EAF8D5E0FDD8FBDBAC99
:100B1000C29575A71075C13075A70075A90322C2CB
:100B200091C292C293C294C295C29675D57F227823
:100B30008076FF0876FF0876FF0876FF0876FF08C4
:100B400076FF0876090876FF087601788C7601082A
:100B500076FF0876FF0876FF0876FF0876FF0876AE
:100B6000030876FF0876FF0876FF0876250876D01A
:100B70000876280876500876040876FF087602087A
:100B800076FF08767A0876FF0876070876010876F9
:100B9000FF0876FF087600087600227888E6C3947E
:100BA00003D23A5002C23AC238E630E102D238A249
:100BB0003892397886E6149000C09378A6F6788645
:100BC000E6F539C394025003753902789CE675380E
:100BD000FFB402037538A0B4030375388278A0E629
:100BE000F8600674282409D8FCF55F2278A5E6F998
:100BF0005403D2827002C282E9540C7000E954306E
:100C00007000E954C0700022AA70AB71EBC313F4FA
:100C1000FBEA13F4FA8A928B93D22D43E68022C228
:100C2000AF53E67F7591008545948546957591048F
:100C3000854792854893D22D43E680D2AF22755DD9
:100C400000755E007597DE7597AD7581C043FF80B6
:100C500075EF0675A90075A900711F7580FB75F108
:100C60000F75A4047580FB75D4FF75900075F27E36
:100C700075A57E75900075D57F75A00075A6017568
:100C8000A72075CC0175A70075E34075E202711FBE
:100C9000E4F8F6D8FD712F1212597898865B7530FA
:100CA0000175A71075C13075A70075A903C2AF12F1
:100CB000046D51A412046512046512046551AA1250
:100CC000046512046512046551B0120465120465CE
:100CD00012046551B651B612046D71ECC2AF75A71E
:100CE0001053CEEF75A70053A4F7D28375A91375DF
:100CF000A71075C10075A700755D00755E00AAE4B8
:100D000075E4B378FA79FA308309D9FBD8F7021C75
:100D1000008AE4C2AF719B7898865B711F75A7103B
:100D200075C13075A70075A90375C804759104C213
:100D30002D75D84075D90875F782759E0375960292
:100D400075DA4275DB4275A82175E61075B8017534
:100D50009B80759D0075D10C75BCB975BB1075E88D
:100D60008075B201120455900000758800757208F4
:100D70001200CD753600C230754D00754E0075E419
:100D80003BD2337588517589AA758C00758D00C268
:100D9000A9D2ABD2AAD2AF758E0C7561007560284E
:100DA00075732875220A120490756020C3E5229499
:100DB0000A754D00754E00406E758E0C756180751C
:100DC000601475731475220A120490756010C3E5DF
:100DD00022940A754D00754E00404C75E4B3C23341
:100DE000758E0C75610075602875732875220A125E
:100DF0000490756020C3E522940A754D00754E007D
:100E00004025758E0C75618075601475731475229C
:100E10000A120490756010C3E522940A754D00759E
:100E20004E004003020CDC1200CD1204842030037B
:100E3000020CDCC2AFA233823B400651B651B680F1
:100E40000451B051B0D2AF120494120490C3E54FD4
:100E50009401400280EFC2AFA233823B401D51A4F7
:100E6000D2AF120490C2AF51A4D2AF120490C2AF5D
:100E700051A4D2AF120490C2AF800651B651B65100
:100E8000B6D2AF120494753000757000757100759C
:100E90004000754100E4F531F53275200005203041
:100EA00001477520000531E531F4703D0532789A2F
:100EB000E67819146012783214600D787D14600899
:100EC00078FA146003753200C3E53298401B711F35
:100ED00012045515327531007899865BC2AF51B650
:100EE000D2AF7898865B120490120488E5237002D2
:100EF00081DC1204803030A5C3E54F9401500AC351
:100F0000E54D94015016020E9D120490E5237003E6
:100F1000020CDC754D00754E000210C3C3E54D9404
:100F2000017016C2AF711F7899865B51A4789886BC
:100F30005BD2AF1204900210B2C3E54D940270165A
:100F4000C2AF711F7899865B51AA7898865BD2AF41
:100F50001204900210B2C3E54D94037016C2AF7133
:100F60001F7899865B51B07898865BD2AF12049057
:100F70000210B2C3E54D94047016C2AF711F789988
:100F8000865B51B67898865BD2AF1204900210B29D
:100F9000C3E54D94057016C2AF711F7899865B51F9
:100FA000B67898865BD2AF1204900210B2C3E54DBA
:100FB0009407701BC3E54E94065002020EF27401B2
:100FC000303A0274037888F6C238C2390210B2C3CC
:100FD000E54D9408701BC3E54E94065002020EF2D4
:100FE0007402303A0274047888F6D238D23902108A
:100FF000B2C3E54D94097018C3E54E940650030240
:101000000EF2303A0BC37888E69402F6C23A01B287
:10101000C3E54D940A7017C3E54E94065003020EC3
:10102000F2203A0A7888E62402F6D23A01B2C3E501
:101030004D94147026C3E54E94065003020EF2C27E
:10104000AF901A0B740093D2AF7888F613C238C2EF
:10105000394002D2384002D2398057C3E54D941549
:101060007038C3E54E9406404FC2AF901A0B74001F
:1010700093D2AFF8B801027402B802027401B80347
:10108000027404B8040274037888F613C238C239B3
:101090004002D2384002D2398018C3E54D940C701A
:1010A00011755DA5755EF1C3E54E9406400A51A029
:1010B000D2AF754E00754D00755D00755E00C23093
:1010C000020EF2C2AF120B1FE4D2AFE4F559F524C1
:1010D000F525F53775590812048012050530EDFD28
:1010E000A8BDA9BEE97001F8885A1205097559080A
:1010F000C2AF120570855856855857D2AF303A079F
:10110000C238303102D238D228753300120A5F1249
:101110000A8212057F1205AF12057F1205AF120574
:101120007F12085E12095E1209D31205AF12084E33
:10113000202C031204BF302C031204EF12095E129C
:1011400009F61205AF12085E12095E120A1912059D
:10115000AF12084E12095E120A3C1205AF12085E69
:1011600012095E120A5F1205AF12050512084E122F
:10117000095E120A821205091205AF302827855828
:101180005679187A0CC3E53399400EC228D2298AC1
:1011900035855856855857800CC3E54F9401400358
:1011A000021121412B30291F202B1CE5351470061C
:1011B000C229D22A2121F535203A07C3E54F9401EF
:1011C00040030211218064753600203A0F78FA79C5
:1011D000A4E760027803C3E55098504FE523604BC5
:1011E000303A17203805203107800F303102800A4D
:1011F000202B07D22B855856215178F0302B0585AE
:1012000058567820C3E571985003021121302B1BEA
:10121000C22BC238303102D238D2297535128558E6
:101220005621210536E54F6002412E753600C2AFCA
:10123000120B1F752500D2AF120490120B1F7524DC
:101240000078A4E66006D294D295D296C3E536948F
:10125000044003020CDC020E89901A0D782051D94B
:10126000E520B4550AA351D9E520B4AA028013752C
:101270005DA5755EF1120B2F51A0755D00755E00C6
:10128000801D901A0378807B0A51D9A308DBFA905D
:101290001A0F788C7B1A51D9A308DBFA901A2922ED
:1012A000C2AF711C51F9901A00740251DEA374028E
:1012B00051DEA3742151DE901A0378807B0A51DD40
:1012C000A308DBFA901A0F788C7B1A51DDA308DB98
:1012D000FA712F710D901A2922E493F622E6438FBA
:1012E00001538FFDFFC3E583941C400122EF855D10
:1012F000B7855EB7F0538FFE22438F02438F01857F
:101300005DB7855EB7901A0DF0538FFC22901A0DD1
:10131000745551DE901A0E74AA51DE227A3079D0BB
:101320007820901A4051D9E520F709A3DAF7227AFC
:101330003079D0901A40E751DE09A3DAF9227C0512
:0F13400012046DDCFB22C2AF120AA4D2AF22222C
:1019E0007597DE7597AD43EF02B4A5030219FD901C
:0A19F000FBFDE493B4A5F502FBC073
:1019FD00020C3E020221FFFFFFFFFFFF09FF01FF67
:101A0D0055AA01FFFFFFFFFF03FFFFFF25D0285061
:0D1A1D0004FF02FF7AFF0701FFFF0000FF3A
:101A4000234D5F485F313523202020202020202097
:101A500023424C48454C492445464D3842323123B7
:101A60002020202020202020202020202020202076
:101C0000C2AFC2D37597DE7597AD7581C075A90057
:101C100075A90043FF80752438752503B1DE752949
:101C2000A5752AF143F10853A4F7D28375D4FF7543
:101C3000E3407DFA780379E67C1075220075230075
:101C4000901DEB7B06752498752501308302814B2E
:101C5000208308D8FBD9F9DCF781BD308308D8FB95
:101C6000D9F9DCF781BDB19EE493A3C39A6004DD8A
:101C7000C381BDDBDBB190600281347B08E493FA61
:101C8000A3B171DBF87A30B171752200752300B110
:101C900090EAFCEBFDC3ED94FE400EB1908A278BD9
:101CA00028ED30E0048A828B83B1907AC270D8C369
:101CB000ED94FE601950CEBD0029EC600F75200038
:101CC0007521FF752900752A000200008100A827F0
:101CD000A9280809D804D90281E0B194EAF281D494
:101CE0000D81A9C3ED94035051EDA2E092007AC595
:101CF000C3E5829400E583941C508C200010438F30
:101D000002438F018529B7852AB7F0300027A8271D
:101D1000A9280809438F01538FFDD804D902A135A2
:101D2000C3E583941C4003A3A11AE28529B7852A41
:101D3000B7F0A3A11A538FFC81857AC1BD030CE4CF
:101D400093A3FAB155DCF8B14D81858187AA22AB06
:101D500023B171EBFAEA6222752608C3E52313F575
:101D600023E52213F52250066323A0632201D52622
:101D7000EAB1DEB1DE75260AEAF4200102D2833030
:101D80000102C283B1DEC3134002C201D526EB2299
:101D9000B194EAFB208302A194308302A1997526B5
:101DA00008AE24AF25C3EF13FFEE13FEB1E2B1DEA0
:101DB000C3EA133083024480FA30E703632201C38D
:101DC000E52313F523E52213F52250066323A063D0
:101DD0002201D526D9E52265236523F52222AE24EA
:101DE000AF250E0FDEFEDFFCD20122424C48656CAF
:091DF0006934373164E8B20601E0
:00000001FF
