:020000040000FA
:060000000219E002036A90
:03000B0002F9B047
:030013000203F2F3
:03001B000200FFE1
:03002B0002033697
:03003B0002F93097
:03005B000204019B
:1000730053E67FC2AF7592FA7593FFD2AF53917F68
:0C008300302D08C22D303B0302F9703212
:0E009B00C29FB285C574C886A5C804C574325C
:1000B0004A4553433031202020202020202020207A
:1000C0000406080C10182030406080A0C0C2AFC0E9
:1000D00082C083903E00E493B4541BA3E493B44CD9
:1000E00015A3E493B4580FA3A3A3E493B403071296
:1000F000F900D23B8002C23BD083D082D2AF22C271
:10010000AFC2A853E6EFC28E85618BC0D0D2D3C0F8
:10011000E0C0F0C2CAA8CCA9CDD2CAD2AF758A00BD
:10012000C3E89562F8E99563F9C3E913F9E813F8B0
:10013000C3E913F9E813F8E9701DE89573401895C1
:10014000735014E582B4100F7C007B007A007908AC
:10015000900000A8602160900000D2A8D2AA617629
:10016000E0FDC39CC39840EF98EB33FB0582E0FCB5
:10017000C39DC39840E198EB33FB0582E0FDC39C2F
:10018000C39840D398EB33FB0582E0FCC39DC39832
:1001900040C598EB33FB0582E0FDC39CC39840B794
:1001A00098EB33FB0582E0FCC39DC39840A998EB14
:1001B00033FB0582E0FDC39CC398409B98EB33FB67
:1001C0000582E0FCC39DC398408D98EB33FB05820C
:1001D00021DB900000D2A8D2AA6176E0FDC39CC3C7
:1001E0009840EF98EA33FA0582E0FCC39DC398403B
:1001F000E198EA33FA0582E0FDC39CC39840D398A6
:10020000EA33FA0582E0FCC39DC39840C598EA33FF
:10021000FA0582E0FDC39CC39840B798EA33FA051B
:1002200082E0FCC39DC39840A998EA33FA0582E0B6
:10023000FDC39CC398409B98EA33FA0582E0FCC357
:100240009DC398408D98EA33FA0582EBC46B6A54DB
:10025000F0F9EAC4303301F454F0C3996009900016
:1002600000D2A8D2AA6176D2C0EBF4C454F0F9EA65
:10027000F4C4540F49FAEBF4C4540FFBC3EAF994E5
:1002800060FAEB9400FB5020C3E97B007A00790010
:100290006016C3135006F9C3954D600AE9F54D7514
:1002A0004E0079008002054E303A27C3EA94D0F818
:1002B000EB9407F9400BE8FAE9FB203109D2314110
:1002C000C6303102C231203902B231C3EA33FAEB0F
:1002D00033FBEB2B3B3BF9C3EB13FBEA13FAEA29A5
:1002E000FAEB3400FB30E3047AFF7BFFE52554038F
:1002F000601B202A18E55833F9EB7007C3E99A40D0
:1003000002E9FAE536C4332AFAEB3400FBC3EA33D8
:10031000C4540FF8EB33C454F048F87005EA600297
:100320007801900000E52260021522618C900000A7
:10033000D2A8D2AA6176C0D0C0E0C2CF053AE55CAF
:100340006005755C006165755C01E523600215233D
:10035000C3E54F60057550006165E5502401F55017
:1003600050037550FFD0E0D0D032C0E0E58A8561FF
:100370008BF0A3D0E0320522E52270021522C3E5FE
:10038000229432500261D2754F0061D5884FD2302D
:10039000E86003755000C3E556FC95574002AC5722
:1003A000C3EC954F5008EC75F008A4FAABF0EAF4F2
:1003B000F8EBF45407F98851895275230AE5553052
:1003C000E20853F7DF43F740800B53D8FE43DA01CE
:1003D000800375230AE5E6A2E082C0400ED0F0D08B
:1003E000E0D0D0D2A8D2AA43E61032D0F0D0E0D0EC
:1003F000D032C2AAD28EC2CA85CC6285CD63D2CA9F
:1004000032C2AFC0D0C0E0D2D38551FB8552FC854B
:10041000525553F7BF53DAFE53E6EF53F7DF53D885
:10042000FED0E0D0D0D2AF327901801879038014A9
:10043000790A8010790F800C791E80087964800415
:1004400079C88000781474F0000000D5E0FAD8F67E
:10045000D9F2227901801479038010790A800C790D
:100460001E80087964800479C880007591007594B5
:10047000307595F9759104D22D43E680303B0BC25F
:10048000AF302D0912F95075A700202DFDD2AFD93C
:10049000DA2278FF20282879A1E76023E571601F20
:1004A00074FF8571F0848539F030290375F005A457
:1004B000F8C5F0600278FFC3E895585002A8588844
:1004C0005722C3E57094A0E5719400E557500314DA
:1004D00081D3046002F5572275E890220559C3E5DF
:1004E000599408405330EDF4A8BDA9BE755900E9F0
:1004F000FA79A0E76041EA7006E55A6018800CC3FB
:10050000E8955A600EE55A5005600A1480070460A9
:10051000FA8002E55AF55AC3955F401B7556C0C371
:1005200094044013755680C39404400B755640C321
:100530009404400375560022E5562410500274FFBF
:10054000F55622743279A687F0A4C5F0A2F733F5E8
:1005500058227570007571F022C2AFC2CAA8CCA92A
:10056000CDAA3A30CF010AD2CAD2AFC3EA13FAE910
:1005700013F9E813F8853B3E853C3F883B893C8A6C
:100580003D22C2AFC2CAA8CCA9CDAA3A30CF010A37
:10059000D2CAD2AFC3EA13FAE913F9E813F8AB3BB6
:1005A000AC3C883B893CC3E89BF8E99C8840F5411A
:1005B00020280B547FF9302C030206A78041AD3D63
:1005C0008A3DF9EA9D547FFA600678FF79FF80132F
:1005D000AE3EAF3F8B3E8C3FA83BA93CC3E89EF8A4
:1005E000E99FF9C3E57113FBE57013FAE82AF5708A
:1005F000E93BF57150067570FF7571FF02064CAA54
:1006000070AB71AC70AD717E047F02C3EB9404409B
:100610000D1E1FC3EB940840052029021E1FC3EDC9
:1006200013FDEC13FCDEF7C3EA9CFAEB9DFBEF60D5
:1006300009C3E913F9E813F8DFF7EA28FAEB39FB05
:100640008A708B7150067BFF8B708B71C3EB9402A9
:100650005002D22C3028057F030206787892E6FFFC
:10066000C3E537948240110FC3E53794A040010FD2
:10067000C3EF940640027F057E02E571C4540FF972
:10068000E571C454F0F8E570C4540F28F8C3E89E2F
:10069000FAE99400FB4009C3EA9401EB940050048A
:1006A0007A01E4FB0206F3AA70AB71EBC4FEEAC464
:1006B000540F4EFCC3EA9CFAEB9400FBC3E813C34F
:1006C00013F8EA28FAEB3400FB8A708B71C3EB94C1
:1006D000024002C22C7802EBC4FE7B00EAC4540F35
:1006E0004EFAC3EA98FA4005C3940150027A0178A1
:1006F00092E6FF303B0BC2AF302D0912F95075A7BF
:1007000000202DFDD2AF854992854A93D22D43E634
:1007100080C3E49AF8E49BF9C3E833F8E933F9308D
:100720002C03020796E8FAE9FBD3E913FDE813FC72
:100730008849894AC3EF94036038EF20E00CE82C25
:10074000F8E93DF9ECFAEDFB8013E828F8E939F90E
:10075000C3E82401F8E93400F97AFF7BFFC3EF9482
:1007600003400F8A4B8B4C884589468C478D480245
:1007700007CB884B894C8A458B468C478D4830285F
:1007800012754BF0754CFF7547F07548FF7549F0D1
:10079000754AFF0207CBE8FAD3E813FC8849C3EF98
:1007A00094036021EF20E007E82CF8ECFAE1B6E8CA
:1007B000282401F87AFFC3EF940340098A4B884547
:1007C0008C470207CB884B8A458C47303B0BC2AF26
:1007D000302D0912F95075A700202DFDD2AF7534C8
:1007E00002D22D43E680E52554036034A870A97138
:1007F000C3E913F9E813F8C3E913F9E813F830284B
:1008000004E92440F9C2AF53E67F759100C3E49830
:10081000F594E499F595759104D22D43E680D2AF15
:1008200022D220754400752000302B0375204080B3
:100830000ED220754400752040302B0375200078BF
:10084000017901202C28E52554036002C220791982
:10085000E571C313700104F8C3941940027819308C
:100860002804781B791BC3E833F8C3E933F9202D3A
:1008700011E544600D302803D53404D22101F6126D
:1008800007E10544E59B5440B5200201DE3028090C
:1008900008C3E899400118016E20200B08C3E899AD
:1008A000400302083F016EC22053E67F759100307D
:1008B0002C117594007595F0759104D22D43E68046
:1008C00002083FE5717EFFC3334009C3334005C3CF
:1008D000334001FEC3E49E759400F59501B8C3E56D
:1008E000339401500302083F30200302083FD8022E
:1008F00001F4016EC221C2AF53E67F759100854BB2
:1009000094854C95759104854592854693D22D43E7
:10091000E680D2AFE5255403600720290205338025
:100920001030210D202B0A2020071581158102127D
:10093000532278003020027801E53775F007A4F9DA
:10094000E5F028F5F0E9A2F013A2F113A2F213F5F5
:1009500037C394785003753778C3E5379538400C22
:10096000C295C291C28775D4FF75D57F303B0BC24B
:10097000AF302D0912F95075A700202DFDD2AF859B
:100980004792854893D22D43E68022C2AF53E67F3B
:100990007591008545948546958547928548937560
:1009A0009104D22D43E680D2AF22203817C2AFC2C5
:1009B00091C296D295D28775D4FF75D57FD2AF7587
:1009C0009F1241CEC2AFC291C290D287D29575D448
:1009D000FF75D53FD2AF759F1241CE203817C2AFF9
:1009E000C287D29175D4FF75D56FC296D295D2AF1A
:1009F000759F3241CEC2AFC295D29175D4FF75D5E5
:100A00006FC290D287D2AF759F0241CE203817C2F5
:100A1000AFC295C290D287D29175D4FF75D56FD2EF
:100A2000AF759F0241CEC2AFC287C296D295D29116
:100A300075D4FF75D56FD2AF759F3241CE20381770
:100A4000C2AFC291D29575D4FF75D53FC290D287FF
:100A5000D2AF759F128077C2AFC291D28775D4FF93
:100A600075D57FC296D295D2AF759F12806020381F
:100A700017C2AFC287C294D291D29575D4FF75D5F3
:100A80003FD2AF759F328046C2AFC295C294D29119
:100A9000D28775D4FF75D57FD2AF759F02802F2086
:100AA0003817C2AFC295D28775D4FF75D57FC2946F
:100AB000D291D2AF759F028015C2AFC287D2957511
:100AC000D4FF75D53FC294D291D2AF759F32227AAE
:100AD0001C7B3C80127A147B4B800C7A107B5A80F2
:100AE000067A0A7B788000E55BD5E0012275A913C0
:100AF00075A71075C10075A7007902E4C291D5E011
:100B0000FDD294D291D5E0FDC291D5E0FDC294D240
:100B100091D5E0FDE920E004D296D29530E004D2F0
:100B200090D287E55BD5E0FDE920E002C29530E098
:100B300002C2877496D5E0FDD9C1EAF8D5E0FDD8A8
:100B4000FBDBA4C29175A71075C13075A70075A90C
:100B50000322C295C291C287C295C291C28775D441
:100B6000FF75D57F22788076FF0876FF0876FF082C
:100B700076FF0876FF0876FF0876090876FF087684
:100B800001788C76010876FF0876FF0876FF0876F4
:100B9000FF0876FF0876030876FF0876FF0876FFE1
:100BA0000876250876D00876280876500876040856
:100BB00076FF0876020876FF08767A0876FF0876D0
:100BC000070876010876FF0876FF087600087600A9
:100BD000227888E6C39403D23A5002C23AC238E679
:100BE00030E102D238A23892397886E6149000C0FB
:100BF0009378A6F67886E6F539C3940250037539E2
:100C000002789CE67538FFB402037538A0B403037C
:100C100075388278A0E6F8600674282409D8FCF5B7
:100C20005F2278A5E6F954037000E9540C7000E9DE
:100C300054307000E954C0700022AA70AB71EBC34D
:100C400013F4FBEA13F4FA8A928B93D22D43E680D5
:100C500022C2AF53E67F7591008545948546957510
:100C60009104854792854893D22D43E680D2AF22E6
:100C7000755D00755E007597DE7597AD7581C04333
:100C8000FF8075EF0675A90075A900715275807F08
:100C900075F1F075A48075807F75D4FF759000752F
:100CA000F27375A57375900075D57F75A00075A654
:100CB0000175A72075CC0175A70075E34075E202A8
:100CC0007152E4F8F6D8FD716512128F7898865B40
:100CD00075300175A71075C13075A70075A903C2DD
:100CE000AF12044051CF12043812043812043851A4
:100CF000D512043812043812043851DB12043812A9
:100D0000043812043851E151E11204409122C2AF7B
:100D100075A71053CEEF75A70053A4DFD28575A930
:100D20001375A71075C10075A700755D00755E008D
:100D3000AAE475E4D578FA79FA308509D9FBD8F7B1
:100D4000021C008AE4C2AF71D17898865B7152753B
:100D5000A71075C13075A70075A90375C8047591F2
:100D600004C22D75D84075D90875F783759E007536
:100D7000960075DA4A75DB0075A82175E61075B81E
:100D800001759B80759D0075D10C75BCB975BB1044
:100D900075E88075B201120428900000758800750E
:100DA00072201200CD753600C230754D00754E00B0
:100DB00075E45DD2337588517589AA758C00758D7F
:100DC00000C2A9D2ABD2AAD2AF758E0C75610075E4
:100DD000602875732875220A120463756020C3E5C4
:100DE00022940A754D00754E00406E758E0C75612B
:100DF0008075601475731475220A1204637560108F
:100E0000C3E522940A754D00754E00404C75E4D53B
:100E1000C233758E0C756100756028757328752254
:100E20000A120463756020C3E522940A754D0075AB
:100E30004E004025758E0C756180756014757314B5
:100E400075220A120463756010C3E522940A754D79
:100E500000754E004003020D0E1200CD1204572003
:100E60003003020D0EC2AFA233823B400651E15166
:100E7000E1800451DB51DBD2AF120467120463C37B
:100E8000E54F9401400280EFC2AFA233823B401D88
:100E900051CFD2AF120463C2AF51CFD2AF120463AD
:100EA000C2AF51CFD2AF120463C2AF800651E1513D
:100EB000E151E1D2AF1204677530007570007571B1
:100EC00000754000754100E4F531F53275200005EC
:100ED000203001477520000531E531F4703D0532C1
:100EE000789AE67819146012783214600D787D14BF
:100EF000600878FA146003753200C3E53298401B2D
:100F0000715212042815327531007899865BC2AF90
:100F100051E1D2AF7898865B12046312045BE5233B
:100F20007002A10E1204533030A5C3E54F94015056
:100F30000AC3E54D94015016020ECF120463E52357
:100F40007003020D0E754D00754E000210F3C3E5DF
:100F50004D94017016C2AF71527899865B51CF786B
:100F600098865BD2AF1204630210E2C3E54D94028F
:100F70007016C2AF71527899865B51D57898865BAE
:100F8000D2AF1204630210E2C3E54D94037016C29F
:100F9000AF71527899865B51DB7898865BD2AF123D
:100FA00004630210E2C3E54D94047016C2AF71529F
:100FB0007899865B51E17898865BD2AF1204630220
:100FC00010E2C3E54D94057016C2AF715278998650
:100FD0005B51E17898865BD2AF1204630210E2C3E2
:100FE000E54D9407701AC3E54E94065002020F2493
:100FF0007401303A0274037888F6C238C23901E2CB
:10100000C3E54D9408701AC3E54E94065002020FD2
:10101000247402303A0274047888F6D238D2390146
:10102000E2C3E54D94097018C3E54E9406500302DF
:101030000F24303A0BC37888E69402F6C23A01E2F4
:10104000C3E54D940A7017C3E54E94065003020F92
:1010500024203A0A7888E62402F6D23A01E2C3E56F
:101060004D94147026C3E54E94065003020F24C21B
:10107000AF901A0B740093D2AF7888F613C238C2BF
:10108000394002D2384002D2398057C3E54D941519
:101090007038C3E54E9406404FC2AF901A0B7400EF
:1010A00093D2AFF8B801027402B802027401B80317
:1010B000027404B8040274037888F613C238C23983
:1010C0004002D2384002D2398018C3E54D940C70EA
:1010D00011755DA5755EF1C3E54E9406400A51D6C3
:1010E000D2AF754E00754D00755D00755E00C23063
:1010F000020F24C2AF120B52E4D2AFE4F559F5242B
:10110000F525F5377559081204531204D830EDFD52
:10111000A8BDA9BEE97001F8885A1204DC75590807
:10112000C2AF120543855856855857D2AF303A079B
:10113000C238303102D238D228753300120A6E120A
:101140000A9F1205521205821205521205821205DB
:10115000521208311209321209AA1205821208210C
:10116000202C03120492302C031204C212093212F2
:1011700009DB120582120831120932120A0C12051B
:1011800082120821120932120A3D12058212083118
:10119000120932120A6E1205821204D812082112A4
:1011A0000932120A9F1204DC120582302827855862
:1011B0005679187A0CC3E53399400EC228D2298A91
:1011C00035855856855857800CC3E54F9401400328
:1011D000021151415B30291F202B1CE5351470068C
:1011E000C229D22A2151F535203A07C3E54F94018F
:1011F00040030211518064753600203A0F78FA7965
:10120000A4E760027803C3E55098504FE523604B94
:10121000303A17203805203107800F303102800A1C
:10122000202B07D22B855856218178F0302B05854D
:1012300058567820C3E571985003021151302B1B8A
:10124000C22BC238303102D238D2297535128558B6
:101250005621510536E54F6002415E753600C2AF3A
:10126000120B52752500D2AF120463120B52752473
:101270000078A4E6600CC296D295C294D291C29036
:10128000D287C3E53694044003020D0E020EBB90D4
:101290001A0D7820710FE520B4550AA3710FE520CF
:1012A000B4AA028013755DA5755EF1120B6551D667
:1012B000755D00755E00801D901A0378807B0A7151
:1012C0000FA308DBFA901A0F788C7B1A710FA30812
:1012D000DBFA901A2922C2AF7152712F901A007452
:1012E000027114A374027114A374217114901A036F
:1012F00078807B0A7113A308DBFA901A0F788C7B35
:101300001A7113A308DBFA71657143901A2922E45C
:1013100093F622E6438F01538FFDFFC3E583941CB0
:10132000400122EF855DB7855EB7F0538FFE224303
:101330008F02438F01855DB7855EB7901A0DF0531C
:101340008FFC22901A0D74557114901A0E74AA71A4
:1013500014227A3079D07820901A40710FE520F766
:1013600009A3DAF7227A3079D0901A40E77114098C
:10137000A3DAF9227C05120440DCFB22C2AF120A78
:05138000CFD2AF2222D4
:1019E0007597DE7597AD43EF02B4A5030219FD901C
:0A19F000FBFDE493B4A5F502FBC073
:1019FD00020C70020221FFFFFFFFFFFF09FF01FF35
:101A0D0055AA01FFFFFFFFFF03FFFFFF25D0285061
:0D1A1D0004FF02FF7AFF0701FFFF0000FF3A
:101A400023565F485F303023202020202020202094
:101A500023424C48454C492445464D3842323123B7
:101A60002020202020202020202020202020202076
:101C0000C2AFC2D37597DE7597AD7581C075A90057
:101C100075A90043FF80752438752503B1DE752949
:101C2000A5752AF143F12053A4DFD28575D4FF7541
:101C3000E3407DFA780379E67C1075220075230075
:101C4000901DEB7B06752498752501308502814B2C
:101C5000208508D8FBD9F9DCF781BD308508D8FB91
:101C6000D9F9DCF781BDB19EE493A3C39A6004DD8A
:101C7000C381BDDBDBB190600281347B08E493FA61
:101C8000A3B171DBF87A30B171752200752300B110
:101C900090EAFCEBFDC3ED94FE400EB1908A278BD9
:101CA00028ED30E0048A828B83B1907AC270D8C369
:101CB000ED94FE601950CEBD0029EC600F75200038
:101CC0007521FF752900752A000200008100A827F0
:101CD000A9280809D804D90281E0B194EAF281D494
:101CE0000D81A9C3ED94035051EDA2E092007AC595
:101CF000C3E5829400E583941C508C200010438F30
:101D000002438F018529B7852AB7F0300027A8271D
:101D1000A9280809438F01538FFDD804D902A135A2
:101D2000C3E583941C4003A3A11AE28529B7852A41
:101D3000B7F0A3A11A538FFC81857AC1BD030CE4CF
:101D400093A3FAB155DCF8B14D81858187AA22AB06
:101D500023B171EBFAEA6222752608C3E52313F575
:101D600023E52213F52250066323A0632201D52622
:101D7000EAB1DEB1DE75260AEAF4200102D285302E
:101D80000102C285B1DEC3134002C201D526EB2297
:101D9000B194EAFB208502A194308502A1997526B1
:101DA00008AE24AF25C3EF13FFEE13FEB1E2B1DEA0
:101DB000C3EA133085024480FA30E703632201C38B
:101DC000E52313F523E52213F52250066323A063D0
:101DD0002201D526D9E52265236523F52222AE24EA
:101DE000AF250E0FDEFEDFFCD20122424C48656CAF
:091DF0006934373164E8B20601E0
:00000001FF
