:020000040000FA
:060000000219E002036A90
:03000B0002F9B047
:030013000203F2F3
:03001B000200FFE1
:03002B0002033697
:03003B0002F93097
:03005B000204019B
:1000730053E67FC2AF7592FA7593FFD2AF53917F68
:0C008300302D08C22D303B0302F9703212
:0E009B00C29FB287C574C886A5C804C574325A
:1000B0004A4553433031202020202020202020207A
:1000C0000406080C10182030406080A0C0C2AFC0E9
:1000D00082C083903E00E493B4541BA3E493B44CD9
:1000E00015A3E493B4580FA3A3A3E493B403071296
:1000F000F900D23B8002C23BD083D082D2AF22C271
:10010000AFC2A853E6EFC28E85618BC0D0D2D3C0F8
:10011000E0C0F0C2CAA8CCA9CDD2CAD2AF758A00BD
:10012000C3E89562F8E99563F9C3E913F9E813F8B0
:10013000C3E913F9E813F8E9701DE89573401895C1
:10014000735014E582B4100F7C007B007A007908AC
:10015000900000A8602160900000D2A8D2AA617629
:10016000E0FDC39CC39840EF98EB33FB0582E0FCB5
:10017000C39DC39840E198EB33FB0582E0FDC39C2F
:10018000C39840D398EB33FB0582E0FCC39DC39832
:1001900040C598EB33FB0582E0FDC39CC39840B794
:1001A00098EB33FB0582E0FCC39DC39840A998EB14
:1001B00033FB0582E0FDC39CC398409B98EB33FB67
:1001C0000582E0FCC39DC398408D98EB33FB05820C
:1001D00021DB900000D2A8D2AA6176E0FDC39CC3C7
:1001E0009840EF98EA33FA0582E0FCC39DC398403B
:1001F000E198EA33FA0582E0FDC39CC39840D398A6
:10020000EA33FA0582E0FCC39DC39840C598EA33FF
:10021000FA0582E0FDC39CC39840B798EA33FA051B
:1002200082E0FCC39DC39840A998EA33FA0582E0B6
:10023000FDC39CC398409B98EA33FA0582E0FCC357
:100240009DC398408D98EA33FA0582EBC46B6A54DB
:10025000F0F9EAC4303301F454F0C3996009900016
:1002600000D2A8D2AA6176D2C0EBF4C454F0F9EA65
:10027000F4C4540F49FAEBF4C4540FFBC3EAF994E5
:1002800060FAEB9400FB5020C3E97B007A00790010
:100290006016C3135006F9C3954D600AE9F54D7514
:1002A0004E0079008002054E303A27C3EA94D0F818
:1002B000EB9407F9400BE8FAE9FB203109D2314110
:1002C000C6303102C231203902B231C3EA33FAEB0F
:1002D00033FBEB2B3B3BF9C3EB13FBEA13FAEA29A5
:1002E000FAEB3400FB30E3047AFF7BFFE52554038F
:1002F000601B202A18E55833F9EB7007C3E99A40D0
:1003000002E9FAE536C4332AFAEB3400FBC3EA33D8
:10031000C4540FF8EB33C454F048F87005EA600297
:100320007801900000E52260021522618C900000A7
:10033000D2A8D2AA6176C0D0C0E0C2CF053AE55CAF
:100340006005755C006165755C01E523600215233D
:10035000C3E54F60057550006165E5502401F55017
:1003600050037550FFD0E0D0D032C0E0E58A8561FF
:100370008BF0A3D0E0320522E52270021522C3E5FE
:10038000229432500261D2754F0061D5884FD2302D
:10039000E86003755000C3E556FC95574002AC5722
:1003A000C3EC954F5008EC75F008A4FAABF0EAF4F2
:1003B000F8EBF45407F98851895275230AE5553052
:1003C000E20853F7DF43F740800B53D8FE43DA01CE
:1003D000800375230AE5E6A2E082C0400ED0F0D08B
:1003E000E0D0D0D2A8D2AA43E61032D0F0D0E0D0EC
:1003F000D032C2AAD28EC2CA85CC6285CD63D2CA9F
:1004000032C2AFC0D0C0E0D2D38551FB8552FC854B
:10041000525553F7BF53DAFE53E6EF53F7DF53D885
:10042000FED0E0D0D0D2AF327901801879038014A9
:10043000790A8010790F800C791E80087964800415
:1004400079C88000781474F0000000D5E0FAD8F67E
:10045000D9F2227901801479038010790A800C790D
:100460001E80087964800479C880007591007594B5
:10047000307595F9759104D22D43E680303B0BC25F
:10048000AF302D0912F95075A700202DFDD2AFD93C
:10049000DA2278FF20282879A1E76023E571601F20
:1004A00074FF8571F0848539F030290375F005A457
:1004B000F8C5F0600278FFC3E895585002A8588844
:1004C0005722C3E57094A0E5719400E557500314DA
:1004D00081D3046002F5572275E890220559C3E5DF
:1004E000599408405330EDF4A8BDA9BE755900E9F0
:1004F000FA79A0E76041EA7006E55A6018800CC3FB
:10050000E8955A600EE55A5005600A1480070460A9
:10051000FA8002E55AF55AC3955F401B7556C0C371
:1005200094044013755680C39404400B755640C321
:100530009404400375560022E5562410500274FFBF
:10054000F55622743279A687F0A4C5F0A2F733F5E8
:1005500058227570007571F022C2AFC2CAA8CCA92A
:10056000CDAA3A30CF010AD2CAD2AFC3EA13FAE910
:1005700013F9E813F8853B3E853C3F883B893C8A6C
:100580003D22C2AFC2CAA8CCA9CDAA3A30CF010A37
:10059000D2CAD2AFC3EA13FAE913F9E813F8AB3BB6
:1005A000AC3C883B893CC3E89BF8E99C8840F5411A
:1005B00020280B547FF9302C030206A78041AD3D63
:1005C0008A3DF9EA9D547FFA600678FF79FF80132F
:1005D000AE3EAF3F8B3E8C3FA83BA93CC3E89EF8A4
:1005E000E99FF9C3E57113FBE57013FAE82AF5708A
:1005F000E93BF57150067570FF7571FF02064CAA54
:1006000070AB71AC70AD717E047F02C3EB9404409B
:100610000D1E1FC3EB940840052029021E1FC3EDC9
:1006200013FDEC13FCDEF7C3EA9CFAEB9DFBEF60D5
:1006300009C3E913F9E813F8DFF7EA28FAEB39FB05
:100640008A708B7150067BFF8B708B71C3EB9402A9
:100650005002D22C3028057F030206787892E6FFFC
:10066000C3E537948240110FC3E53794A040010FD2
:10067000C3EF940640027F057E02E571C4540FF972
:10068000E571C454F0F8E570C4540F28F8C3E89E2F
:10069000FAE99400FB4009C3EA9401EB940050048A
:1006A0007A01E4FB0206F3AA70AB71EBC4FEEAC464
:1006B000540F4EFCC3EA9CFAEB9400FBC3E813C34F
:1006C00013F8EA28FAEB3400FB8A708B71C3EB94C1
:1006D000024002C22C7802EBC4FE7B00EAC4540F35
:1006E0004EFAC3EA98FA4005C3940150027A0178A1
:1006F00092E6FF303B0BC2AF302D0912F95075A7BF
:1007000000202DFDD2AF854992854A93D22D43E634
:1007100080C3E49AF8E49BF9C3E833F8E933F9308D
:100720002C03020796E8FAE9FBD3E913FDE813FC72
:100730008849894AC3EF94036038EF20E00CE82C25
:10074000F8E93DF9ECFAEDFB8013E828F8E939F90E
:10075000C3E82401F8E93400F97AFF7BFFC3EF9482
:1007600003400F8A4B8B4C884589468C478D480245
:1007700007CB884B894C8A458B468C478D4830285F
:1007800012754BF0754CFF7547F07548FF7549F0D1
:10079000754AFF0207CBE8FAD3E813FC8849C3EF98
:1007A00094036021EF20E007E82CF8ECFAE1B6E8CA
:1007B000282401F87AFFC3EF940340098A4B884547
:1007C0008C470207CB884B8A458C47303B0BC2AF26
:1007D000302D0912F95075A700202DFDD2AF7534C8
:1007E00002D22D43E680E52554036034A870A97138
:1007F000C3E913F9E813F8C3E913F9E813F830284B
:1008000004E92440F9C2AF53E67F759100C3E49830
:10081000F594E499F595759104D22D43E680D2AF15
:1008200022D220754400752000302B0375204080B3
:100830000ED220754400752040302B0375200078BF
:10084000017901202C32E52554036002C22079058C
:10085000E571C313700104C313700104C313700165
:1008600004F8C3940540027805302804781B791BEE
:10087000C3E833F8C3E933F9202D11E544600D30A6
:100880002803D53404D22121001207E10544E59B59
:100890005440B5200201E830280908C3E899400116
:1008A00018017820200B08C3E899400302083F0193
:1008B00078C22053E67F759100302C117594007535
:1008C00095F0759104D22D43E68002083FE5717ED4
:1008D000FFC3334009C3334005C3334001FEC3E4C3
:1008E0009E759400F59501C2C3E53394015003024F
:1008F000083F30200302083FD80201FE0178C221E0
:10090000C2AF53E67F759100854B94854C957591E8
:1009100004854592854693D22D43E680D2AFE525E6
:10092000540360072029020533801030210D202B4D
:100930000A202007158115810212572278003020E5
:10094000027801E53775F007A4F9E5F028F5F0E93C
:10095000A2F013A2F113A2F213F537C39478500357
:10096000753778C3E5379538400653F28F75D5FF54
:10097000303B0BC2AF302D0912F95075A700202D66
:10098000FDD2AF854792854893D22D43E68022C29F
:10099000AF53E67F759100854594854695854792CE
:1009A000854893759104D22D43E680D2AF2220383A
:1009B00017C2AF53F2DFC29643F24075D5EF43F250
:1009C00010D2AF759F5341D2C2AF53F2DFC29443EE
:1009D000F21075D5BF43F240D2AF759F5341D2207C
:1009E0003817C2AF53F2EF75D5DF43F220C29643FA
:1009F000F240D2AF759F6341D2C2AF53F2BF75D5FB
:100A0000DF43F220C29443F210D2AF759F2341D24C
:100A1000203817C2AF53F2BFC29443F21075D5DF2E
:100A200043F220D2AF759F2341D2C2AF53F2EFC23F
:100A30009643F24075D5DF43F220D2AF759F6341F4
:100A4000D2203817C2AF53F2DF75D5BF43F240C290
:100A50009443F210D2AF759F538077C2AF53F2DF49
:100A600075D5EF43F210C29643F240D2AF759F5353
:100A70008060203817C2AF53F2EFC29543F2207561
:100A8000D5BF43F240D2AF759F638046C2AF53F2E9
:100A9000BFC29543F22075D5EF43F210D2AF759FD8
:100AA00023802F203817C2AF53F2BF75D5EF43F222
:100AB00010C29543F220D2AF759F238015C2AF5369
:100AC000F2EF75D5BF43F240C29543F220D2AF7525
:100AD0009F63227A1C7B3C80127A147B4B800C7AB9
:100AE000107B5A80067A0A7B788000E55BD5E001AE
:100AF0002275A91375A71075C10075A7007902E4C6
:100B000053F2DFD5E0FDD29543F220D5E0FD53F25C
:100B1000DFD5E0FDC29543F220D5E0FDE920E005F8
:100B2000D29643F24030E005D29443F210E55BD513
:100B3000E0FDE920E00353F2BF30E00353F2EF742D
:100B400096D5E0FDD9B9EAF8D5E0FDD8FBDB9C539A
:100B5000F2DF75A71075C13075A70075A903225380
:100B6000F28F53F28F75D5FF22788076FF0876FFDB
:100B70000876FF0876FF0876FF0876FF08760908F2
:100B800076FF087601788C76010876FF0876FF08F4
:100B900076FF0876FF0876FF0876030876FF08766A
:100BA000FF0876FF0876250876D008762808765064
:100BB0000876040876FF0876020876FF08767A0839
:100BC00076FF0876070876010876FF0876FF087634
:100BD00000087600227888E6C39403D23A5002C215
:100BE0003AC238E630E102D238A23892397886E645
:100BF000149000C09378A6F67886E6F539C394027F
:100C00005003753902789CE67538FFB402037538D5
:100C1000A0B4030375388278A0E6F860067428242F
:100C200009D8FCF55F2278A5E6F954037000E95471
:100C30000C7000E954307000E954C0700022AA70B2
:100C4000AB71EBC313F4FBEA13F4FA8A928B93D2E1
:100C50002D43E68022C2AF53E67F7591008545940F
:100C6000854695759104854792854893D22D43E634
:100C700080D2AF22755D00755E007597DE7597AD09
:100C80007581C043FF8075EF0675A90075A90071D5
:100C90005F7580FF75F19375A4007580FF75D4FFB3
:100CA00075900075F28F75A57075900075D5FF75FC
:100CB000A00075A60175A72075CC0175A70075E386
:100CC0004075E202715FE4F8F6D8FD716912129680
:100CD0007898865B75300175A71075C13075A700CF
:100CE00075A903C2AF12044051D31204381204385C
:100CF00012043851D912043812043812043851DF62
:100D000012043812043812043851E551E512044037
:100D10009126C2AF75A71053CEEF75A70053A47FDD
:100D2000D28775A91375A71075C10075A700755DE9
:100D300000755E00AAE475E4F778FA79FA3087095D
:100D4000D9FBD8F7021C008AE4C2AF71D578988627
:100D50005B715F75A71075C13075A70075A9037524
:100D6000C804759104C22D75D84075D90875F783EC
:100D7000759E0075960075DA4A75DB0075A82175B9
:100D8000E61075B801759B80759D0075D10C75BC1A
:100D9000B975BB1075E88075B20112042890000087
:100DA0007588007572801200CD753600C230754DA1
:100DB00000754E0075E47FD2337588517589AA7528
:100DC0008C00758D00C2A9D2ABD2AAD2AF758E0CA1
:100DD00075610075602875732875220A12046375A1
:100DE0006020C3E522940A754D00754E00406E7573
:100DF0008E0C75618075601475731475220A120467
:100E000063756010C3E522940A754D00754E00406D
:100E10004C75E4F7C233758E0C75610075602875EA
:100E2000732875220A120463756020C3E522940AB0
:100E3000754D00754E004025758E0C75618075608E
:100E40001475731475220A120463756010C3E522C9
:100E5000940A754D00754E004003020D121200CD2C
:100E6000120457203003020D12C2AFA233823B405E
:100E70000651E551E5800451DF51DFD2AF1204671E
:100E8000120463C3E54F9401400280EFC2AFA23366
:100E9000823B401D51D3D2AF120463C2AF51D3D2B3
:100EA000AF120463C2AF51D3D2AF120463C2AF809A
:100EB0000651E551E551E5D2AF1204677530007572
:100EC0007000757100754000754100E4F531F53230
:100ED00075200005203001477520000531E531F40B
:100EE000703D0532789AE6781914601278321460F1
:100EF0000D787D14600878FA146003753200C3E53C
:100F00003298401B715F12042815327531007899B0
:100F1000865BC2AF51E5D2AF7898865B120463124C
:100F2000045BE5237002A1121204533030A5C3E51F
:100F30004F9401500AC3E54D94015016020ED3128E
:100F40000463E5237003020D12754D00754E000217
:100F500010F7C3E54D94017016C2AF715F789986A2
:100F60005B51D37898865BD2AF1204630210E6C35C
:100F7000E54D94027016C2AF715F7899865B51D9C6
:100F80007898865BD2AF1204630210E6C3E54D94F5
:100F9000037016C2AF715F7899865B51DF789886CF
:100FA0005BD2AF1204630210E6C3E54D94047016E1
:100FB000C2AF715F7899865B51E57898865BD2AF56
:100FC0001204630210E6C3E54D94057016C2AF71BA
:100FD0005F7899865B51E57898865BD2AF1204639F
:100FE0000210E6C3E54D9407701AC3E54E9406500F
:100FF00002020F287401303A0274037888F6C2386E
:10100000C23901E6C3E54D9408701AC3E54E940653
:101010005002020F287402303A0274047888F6D223
:1010200038D23901E6C3E54D94097018C3E54E94F2
:10103000065003020F28303A0BC37888E69402F674
:10104000C23A01E6C3E54D940A7017C3E54E940613
:101050005003020F28203A0A7888E62402F6D23A92
:1010600001E6C3E54D94147026C3E54E9406500383
:10107000020F28C2AF901A0B740093D2AF7888F693
:1010800013C238C2394002D2384002D2398057C325
:10109000E54D94157038C3E54E9406404FC2AF90AD
:1010A0001A0B740093D2AFF8B801027402B80202AE
:1010B0007401B803027404B8040274037888F61348
:1010C000C238C2394002D2384002D2398018C3E552
:1010D0004D940C7011755DA5755EF1C3E54E9406D7
:1010E000400A51DDD2AF754E00754D00755D00753B
:1010F0005E00C230020F28C2AF120B5FE4D2AFE431
:10110000F559F524F525F5377559081204531204DD
:10111000D830EDFDA8BDA9BEE97001F8885A1204C7
:10112000DC755908C2AF120543855856855857D209
:10113000AF303A07C238303102D238D22875330086
:10114000120A72120AA312055212058212055212D5
:10115000058212055212083112093C1209AE12051D
:1011600082120821202C03120492302C031204C294
:1011700012093C1209DF12058212083112093C12D1
:101180000A1012058212082112093C120A411205A6
:101190008212083112093C120A721205821204D816
:1011A00012082112093C120AA31204DC1205823033
:1011B000282785585679187A0CC3E53399400EC212
:1011C00028D2298A35855856855857800CC3E54F53
:1011D00094014003021155415F30291F202B1CE56B
:1011E00035147006C229D22A2155F535203A07C395
:1011F000E54F940140030211558064753600203A92
:101200000F78FA79A4E760027803C3E55098504F4D
:10121000E523604B303A17203805203107800F3026
:101220003102800A202B07D22B855856218578F071
:10123000302B058558567820C3E57198500302116C
:1012400055302B1BC22BC238303102D238D229750F
:10125000351285585621550536E54F6002416275B5
:101260003600C2AF120B5F752500D2AF12046312B5
:101270000B5F75240078A4E6600FC29643F240C26B
:101280009543F220C29443F210C3E5369404400320
:10129000020D12020EBF901A0D78207116E520B4CF
:1012A000550AA37116E520B4AA028013755DA575D1
:1012B0005EF1120B6951DD755D00755E00801D9059
:1012C0001A0378807B0A7116A308DBFA901A0F784C
:1012D0008C7B1A7116A308DBFA901A2922C2AF710F
:1012E000597136901A007402711BA37402711BA30A
:1012F0007421711B901A0378807B0A711AA308DB92
:10130000FA901A0F788C7B1A711AA308DBFA716CA9
:10131000714A901A2922E493F622E6438F01538FF3
:10132000FDFFC3E583941C400122EF855DB7855E18
:10133000B7F0538FFE22438F02438F01855DB7853F
:101340005EB7901A0DF0538FFC22901A0D745571F0
:101350001B901A0E74AA711B227A3079D0782090D3
:101360001A407116E520F709A3DAF7227A3079D00E
:10137000901A40E7711B09A3DAF9227C0512044098
:0C138000DCFB22C2AF120AD3D2AF222243
:1019E0007597DE7597AD43EF02B4A5030219FD901C
:0A19F000FBFDE493B4A5F502FBC073
:1019FD00020C74020221FFFFFFFFFFFF09FF01FF31
:101A0D0055AA01FFFFFFFFFF03FFFFFF25D0285061
:0D1A1D0004FF02FF7AFF0701FFFF0000FF3A
:101A400023575F485F303023202020202020202093
:101A500023424C48454C492445464D3842323123B7
:101A60002020202020202020202020202020202076
:101C0000C2AFC2D37597DE7597AD7581C075A90057
:101C100075A90043FF80752438752503B1DE752949
:101C2000A5752AF143F18053A47FD28775D4FF753F
:101C3000E3407DFA780379E67C1075220075230075
:101C4000901DEB7B06752498752501308702814B2A
:101C5000208708D8FBD9F9DCF781BD308708D8FB8D
:101C6000D9F9DCF781BDB19EE493A3C39A6004DD8A
:101C7000C381BDDBDBB190600281347B08E493FA61
:101C8000A3B171DBF87A30B171752200752300B110
:101C900090EAFCEBFDC3ED94FE400EB1908A278BD9
:101CA00028ED30E0048A828B83B1907AC270D8C369
:101CB000ED94FE601950CEBD0029EC600F75200038
:101CC0007521FF752900752A000200008100A827F0
:101CD000A9280809D804D90281E0B194EAF281D494
:101CE0000D81A9C3ED94035051EDA2E092007AC595
:101CF000C3E5829400E583941C508C200010438F30
:101D000002438F018529B7852AB7F0300027A8271D
:101D1000A9280809438F01538FFDD804D902A135A2
:101D2000C3E583941C4003A3A11AE28529B7852A41
:101D3000B7F0A3A11A538FFC81857AC1BD030CE4CF
:101D400093A3FAB155DCF8B14D81858187AA22AB06
:101D500023B171EBFAEA6222752608C3E52313F575
:101D600023E52213F52250066323A0632201D52622
:101D7000EAB1DEB1DE75260AEAF4200102D287302C
:101D80000102C287B1DEC3134002C201D526EB2295
:101D9000B194EAFB208702A194308702A1997526AD
:101DA00008AE24AF25C3EF13FFEE13FEB1E2B1DEA0
:101DB000C3EA133087024480FA30E703632201C389
:101DC000E52313F523E52213F52250066323A063D0
:101DD0002201D526D9E52265236523F52222AE24EA
:101DE000AF250E0FDEFEDFFCD20122424C48656CAF
:091DF0006934373164E8B20601E0
:00000001FF
