:020000040000FA
:090000000219E0858A6502036A19
:03000B0002F9B047
:030013000203E9FC
:03001B000200FFE1
:03002B0002033697
:03003B0002F93097
:03005B000203F8A5
:10007300C2AF53E67F7592FA7593FFD2AF53917F68
:0C008300302D08C22D303B0302F9703212
:0E009B00C29FB285C574C886A5C804C574325C
:1000B0004A45534330312023323420202020202051
:1000C0000406080C10182030406080A0C0C2AFC0E9
:1000D00082C083903E00E493B4541BA3E493B44CD9
:1000E00015A3E493B4580FA3A3A3E493B404071295
:1000F000F900D23B8002C23BD083D082D2AF22C271
:10010000AFC2A8C2CAC28EC0D0D2D3A8CCA9CDD209
:10011000CAD2AF53E6EF85618BC0E0C0F0758A00AC
:10012000C3E89562F8E99563F9C3E913F9E813F8B0
:10013000C3E913F9E813F8E9701DE89573401895C1
:10014000735014E582B4100F7C007B007A007908AC
:10015000900000A8602160900000D2A8D2AA617629
:10016000E0FDC39CC39840EF98EB33FB0582E0FCB5
:10017000C39DC39840E198EB33FB0582E0FDC39C2F
:10018000C39840D398EB33FB0582E0FCC39DC39832
:1001900040C598EB33FB0582E0FDC39CC39840B794
:1001A00098EB33FB0582E0FCC39DC39840A998EB14
:1001B00033FB0582E0FDC39CC398409B98EB33FB67
:1001C0000582E0FCC39DC398408D98EB33FB05820C
:1001D00021DB900000D2A8D2AA6176E0FDC39CC3C7
:1001E0009840EF98EA33FA0582E0FCC39DC398403B
:1001F000E198EA33FA0582E0FDC39CC39840D398A6
:10020000EA33FA0582E0FCC39DC39840C598EA33FF
:10021000FA0582E0FDC39CC39840B798EA33FA051B
:1002200082E0FCC39DC39840A998EA33FA0582E0B6
:10023000FDC39CC398409B98EA33FA0582E0FCC357
:100240009DC398408D98EA33FA0582EBC46B6A54DB
:10025000F0F9EAC4303301F454F0C3996009900016
:1002600000D2A8D2AA6176D2C0EBF4C454F0F9EA65
:10027000F4C4540F49FAEBF4C4540FFBC3EAF994E5
:1002800060FAEB9400FB5020C3E97B007A00790010
:100290006016C3135006F9C3954D600AE9F54D7514
:1002A0004E0079008002054E303A27C3EA94D0F818
:1002B000EB9407F9400BE8FAE9FB203109D2314110
:1002C000C6303102C231203902B231C3EA33FAEB0F
:1002D00033FBEB2B3B3BF9C3EB13FBEA13FAEA29A5
:1002E000FAEB3400FB30E3047AFF7BFFE52554038F
:1002F000601B202A18E55833F9EB7007C3E99A40D0
:1003000002E9FAE536C4332AFAEB3400FBC3EA33D8
:10031000C4540FF8EB33C454F048F87005EA600297
:100320007801900000E52260021522618C900000A7
:10033000D2A8D2AA6176C0D0C0E0C2CF053AE55CAF
:100340006005755C006165755C01E523600215233D
:10035000C3E54F60057550006165E5502401F55017
:1003600050037550FFD0E0D0D032C0E0E565856124
:100370008BF0A3D0E0320522E52270021522C3E5FE
:10038000229432500261C9754F0061CC884FD2303F
:10039000E86003755000C3E556FC95574002AC5722
:1003A000C3EC954F5008EC75F008A4FAABF0EBF4F1
:1003B0005407F9EAF4F8885189528A538B5475230B
:1003C0000A53F7DF43F740800375230AE5E6A2E00E
:1003D00082C0400ED0F0D0E0D0D0D2A8D2AA43E65E
:1003E0001032D0F0D0E0D0D032C2AAD28EC2CA85AC
:1003F000CC6285CD63D2CA3253F7DFC0E0C2AFE52D
:10040000F9E5FA30E3098551FB8552FC53F7BFD279
:10041000AFD0E0327901801879038014790A801016
:10042000790F800C791E80087964800479C8800077
:1004300075A91375A71075C10075A700781474F01D
:10044000000000D5E0FAD8F6D9F275A71075C130D2
:1004500075A70075A90322790180147903801079AA
:100460000A800C791E80087964800479C880007540
:1004700091007594307595F9759104D22D43E680FD
:10048000303B0C53E67F302D0912F95075A7002040
:100490002DFDD9DB2278FF20282879A1E76023E50C
:1004A00071601F74FF8571F0848539F03029037500
:1004B000F005A4F8C5F0600278FFC3E89558500233
:1004C000A858885722C3E57094A0E5719400E557B9
:1004D00050031481D6046002F5572275E890220576
:1004E00059C3E5599408405330EDF4A8BDA9BE7531
:1004F0005900E9FA79A0E76041EA7006E55A601808
:10050000800CC3E8955A600EE55A5005600A1480C5
:10051000070460FA8002E55AF55AC3955F401B75DF
:1005200056C0C394044013755680C39404400B75A1
:100530005640C39404400375560022E556241050DB
:100540000274FFF55622743279A687F0A4C5F0A292
:10055000F733F558227570007571F022C2AFC2CA28
:10056000A8CCA9CDAA3A30CF010AD2CAD2AFC3EAE9
:1005700013FAE913F9E813F8853B3E853C3F883BC5
:10058000893C8A3D22C2AFC2CAA8CCA9CDAA3A30C2
:10059000CF010AD2CAD2AFC3EA13FAE913F9E813BA
:1005A000F8AB3BAC3C883B893CC3E89BF8E99C201A
:1005B000280B547FF9302C030206A68041AD3D8AFA
:1005C0003DF9EA9D547FFA600678FF79FF8013AE0B
:1005D0003EAF3F8B3E8C3FA83BA93CC3E89EF8E969
:1005E0009FF9C3E57113FBE57013FAE82AF570E98A
:1005F0003BF57150067570FF7571FF02064BAA70CE
:10060000AB71AC70AD717E047F02C3EB9404400DFE
:100610001E1FC3EB940840052029021E1FC3ED13C3
:10062000FDEC13FCDEF7C3EA9CFAEB9DFBEF6009DF
:10063000C3E913F9E813F8DFF7EA28FAEB39FB8A84
:10064000708B7150067BFF8B708B71C3EB940250E3
:1006500002D22C3028057F030206777892E6FFC38A
:10066000E537948240110FC3E53794A040010FC3D2
:10067000EF940640027F057E02E571C4540FF9E550
:1006800071C454F0F8E570C4540F28F8C3E89EFA1A
:10069000E99400FB4009C3EA9401EB940050047A0A
:1006A00001E4FB0206F2AA70AB71EBC4FEEAC4548B
:1006B0000F4EFCC3EA9CFAEB9400FBC3E813C31390
:1006C000F8EA28FAEB3400FB8A708B71C3EB9402D2
:1006D0004002C22C7802EBC4FE7B00EAC4540F4EE9
:1006E000FAC3EA98FA4005C3940150027A0178925D
:1006F000E6FF303B0C53E67F302D0912F95075A709
:1007000000202DFD854992854A93D22D43E680C372
:10071000E49AF8E49BF9C3E833F8E933F9302C03A1
:10072000020794E8FAE9FBD3E913FDE813FC8849D2
:10073000894AC3EF94036038EF20E00CE82CF8E915
:100740003DF9ECFAEDFB8013E828F8E939F9C3E844
:100750002401F8E93400F97AFF7BFFC3EF940340EA
:100760000F8A4B8B4C884589468C478D480207C9B8
:10077000884B894C8A458B468C478D4830281275AA
:100780004BF0754CFF7547F07548FF7549F0754A99
:10079000FF0207C9E8FAD3E813FC8849C3EF9403C2
:1007A0006021EF20E007E82CF8ECFAE1B4E8282417
:1007B00001F87AFFC3EF940340098A4B88458C47C0
:1007C0000207C9884B8A458C47303B0C53E67F3083
:1007D0002D0912F95075A700202DFD753402D22D78
:1007E00043E680E5255403602DA870A971C3E91381
:1007F000F9E813F8302804E92440F9C2AF53E67F42
:10080000759100C3E498F594E499F595759104D237
:100810002D43E680D2AF22D22075440075200030EF
:100820002B03752040800ED2207544007520403087
:100830002B0375200078017901202C28E52554032D
:100840006002C2207914E571C313700104F8C394E7
:100850001440027814302804781B791BC3E833F85D
:10086000C3E933F9202D11E544600D302803D53458
:1008700004D22101ED1207DE0544E59BF45440B596
:10088000200201D530280908C3E899400118016405
:1008900020200B08C3E89940030208350164C220F8
:1008A00053E67F759100302C117594007595F075A5
:1008B0009104D22D43E680020835E5717EFFC333F3
:1008C0004009C3334005C3334001FEC3E49E759421
:1008D00000F59501AFC3E5339401500302083530AC
:1008E0002003020835D80201EB0164C221C2AF53D4
:1008F000E67F759100854B94854C957591048545EF
:1009000092854693D22D43E680D2AFE5255403600D
:10091000072029020533801030210D202B0A2020CA
:1009200007158115810212242278003020027801F7
:10093000E53775F007A4F9E5F028F5F0E9A2F01322
:10094000A2F113A2F213F537C394785003753778E8
:10095000C3E53795384009D291D293D29575D53FEA
:10096000303B0C53E67F302D0912F95075A700205B
:100970002DFD854792854893D22D43E68022C2AF54
:1009800053E67F7591008545948546958547928508
:100990004893759104D22D43E680D2AF22203814BB
:1009A000C2AFD293C290C291C29575D52FD2AF7506
:1009B0009F03419DC2AFD293C294C295C29175D597
:1009C0003ED2AF759F03419D203814C2AFD295C26D
:1009D0009375D53BC290C291D2AF759F13419DC212
:1009E000AFD291C29375D53BC294C295D2AF759FD9
:1009F00023419D203814C2AFD291C294C295C293B4
:100A000075D53BD2AF759F23419DC2AFD295C290A1
:100A1000C291C29375D53BD2AF759F13419D2038CB
:100A200014C2AFD293C29175D53EC294C295D2AFD3
:100A3000759F038068C2AFD293C29575D52FC290BF
:100A4000C291D2AF759F038054203814C2AFD295A3
:100A5000C292C293C29175D53ED2AF759F13803DAD
:100A6000C2AFD291C292C293C29575D52FD2AF7543
:100A70009F238029203814C2AFD291C29575D52FFB
:100A8000C292C293D2AF759F238012C2AFD295C2D9
:100A90009175D53EC292C293D2AF759F13227A1C34
:100AA0007B3C80127A147B4B800C7A107B5A800638
:100AB0007A0A7B788000E55BD5E0012275A9137581
:100AC000A71075C10075A7007902E4D293D5E0FDA7
:100AD000D292C293D5E0FDD293D5E0FDC292C293EB
:100AE000D5E0FDE920E004D290C29130E004D29438
:100AF000C295E55BD5E0FDE920E002D29130E0024D
:100B0000D2957496D5E0FDD9C1EAF8D5E0FDD8FBC1
:100B1000DBA4D29375A71075C13075A70075A90322
:100B200022D291D293D295D291D293D29575D53FBC
:100B300022788076FF0876FF0876FF0876FF087631
:100B4000FF0876FF0876090876FF087601788C762C
:100B5000010876FF0876FF0876FF0876FF0876FF23
:100B60000876030876FF0876FF0876FF08762508E2
:100B700076D00876280876500876040876FF08763E
:100B8000020876FF08767A0876FF0876070876016D
:100B90000876FF0876FF087600087600227888E657
:100BA000C39403D23A5002C23AC238E630E102D2CC
:100BB00038A23892397886E6149000C09378A6F669
:100BC0007886E6F539C394025003753902789CE6BD
:100BD0007538FFB402037538A0B403037538827802
:100BE000A0E6F8600674282409D8FCF55F2278A5F1
:100BF000E6F954037000E9540C7000E954307000B9
:100C0000E954C0700022AA70AB71EBC313F4FBEA85
:100C100013F4FA8A928B93D22D43E68022C2AF530B
:100C2000E67F7591008545948546957591048547C5
:100C300092854893D22D43E680D2AF22755D007530
:100C40005E007597DE7597AD7581C043FF8075EFC7
:100C50000675A90075A90071217580FF75F1F07501
:100C6000A4007580FF75D4FF75902A75F23F75A5B5
:100C70003F75902A75D53F75A00075A60175A72010
:100C800075CC0175A70075E34075E2027121E4F8A7
:100C9000F6D8FD71311212607898865B7530017557
:100CA000640175A71075C13075A70075A903C2AF9F
:100CB00012042C519E12042012042012042051A46C
:100CC00012042012042012042051AA12042012043B
:100CD0002012042051B051B012042871EEC2AF7539
:100CE000A71053CEEF75A70053A4DFD28575A913C3
:100CF00075A71075C10075A700755D00755E00AA27
:100D0000E475E4D578FA79FA308509D9FBD8F70289
:100D10001C008AE4C2AF719D7898865B712175A72B
:100D20001075C13075A70075A90375C804759104C5
:100D3000C22D75D84075D90875F783759E007596D4
:100D40000075DA4A75DB0075A82175E61075B801E3
:100D5000759B80759D0075D10C75BCB975BB107500
:100D6000E88075B201120414900000758800757255
:100D7000201200CD753600C230754D00754E0075DD
:100D8000E45DD2337588517589AA758C00758D0024
:100D9000C2A9D2ABD2AAD2AF758E0C7561007560B4
:100DA0002875732875220A120467756020C3E5222E
:100DB000940A754D00754E00406E758E0C756180FD
:100DC00075601475731475220A120467756010C378
:100DD000E522940A754D00754E00404C75E4D5C26D
:100DE00033758E0C75610075602875732875220A3D
:100DF000120467756020C3E522940A754D00754E94
:100E0000004025758E0C75618075601475731475BE
:100E1000220A120467756010C3E522940A754D001A
:100E2000754E004003020CDD1200CD12045B203031
:100E300003020CDDC2AFA233823B400651B051B079
:100E4000800451AA51AAD2AF12046B120467C3E501
:100E50004F9401400280EFC2AFA233823B401D514C
:100E60009ED2AF120467C2AF519ED2AF120467C2C6
:100E7000AF519ED2AF120467C2AF800651B051B0DD
:100E800051B0D2AF12046B753000757000757100EF
:100E9000754000754100E4F531F5327520000520FC
:100EA0003001477520000531E531F4703D05327899
:100EB0009AE67819146012783214600D787D146007
:100EC0000878FA146003753200C3E53298401B714C
:100ED0002112041415327531007899865BC2AF5126
:100EE000B0D2AF7898865B12046712045FE5237076
:100EF0000281DD1204573030A5C3E54F9401500A3A
:100F0000C3E54D94015016020E9E120467E523704E
:100F100003020CDD754D00754E000210C4C3E54D93
:100F200094017016C2AF71217899865B519E7898B2
:100F3000865BD2AF1204670210B3C3E54D94027012
:100F400016C2AF71217899865B51A47898865BD2DE
:100F5000AF1204670210B3C3E54D94037016C2AF1D
:100F600071217899865B51AA7898865BD2AF12047A
:100F7000670210B3C3E54D94047016C2AF712178B7
:100F800099865B51B07898865BD2AF1204670210E5
:100F9000B3C3E54D94057016C2AF71217899865B95
:100FA00051B07898865BD2AF1204670210B3C3E5E4
:100FB0004D9407701BC3E54E94065002020EF37465
:100FC00001303A0274037888F6C238C2390210B38D
:100FD000C3E54D9408701BC3E54E94065002020E03
:100FE000F37402303A0274047888F6D238D23902A7
:100FF00010B3C3E54D94097018C3E54E9406500331
:10100000020EF3303A0BC37888E69402F6C23A0136
:10101000B3C3E54D940A7017C3E54E94065003021E
:101020000EF3203A0A7888E62402F6D23A01B3C3D6
:10103000E54D94147026C3E54E94065003020EF35A
:10104000C2AF901A0B740093D2AF7888F613C238EF
:10105000C2394002D2384002D2398057C3E54D949C
:10106000157038C3E54E9406404FC2AF901A0B740A
:101070000093D2AFF8B801027402B802027401B84A
:1010800003027404B8040274037888F613C238C2E9
:10109000394002D2384002D2398018C3E54D940C51
:1010A0007011755DA5755EF1C3E54E9406400A5159
:1010B000A7D2AF754E00754D00755D00755E00C21C
:1010C00030020EF3C2AF120B21E4D2AFE4F559F5B2
:1010D00024F525F5377559081204571204DB30ED55
:1010E000FDA8BDA9BEE97001F8885A1204DF755940
:1010F00008C2AF120546855856855857D2AF303AC8
:1011000007C238303102D238D228753300120A496A
:10111000120A74120555120585120555120585121D
:10112000055512082712092912099D120585120872
:1011300017202C03120495302C031204C512092920
:101140001209C81205851208271209291209F3127B
:101150000585120817120929120A1E1205851208A0
:1011600027120929120A491205851204DB120817F1
:10117000120929120A741204DF1205853028278506
:10118000585679187A0CC3E53399400EC228D229F3
:101190008A35855856855857800CC3E54F940140D1
:1011A00003021122412C30291F202B1CE53514701D
:1011B00006C229D22A2122F535203A07C3E54F94E9
:1011C0000140030211228064753600203A0F78FA3C
:1011D00079A4E760027803C3E55098504FE5236097
:1011E0004B303A17203805203107800F303102800C
:1011F0000A202B07D22B855856215278F0302B0528
:101200008558567820C3E571985003021122302B7F
:101210001BC22BC238303102D238D2297535128523
:10122000585621220536E54F6002412F753600C21F
:10123000AF120B21752500D2AF120467120B217576
:10124000240078A4E6600CC290C291C292C293C2FC
:1012500094C295C3E53694044003020CDD020E8A65
:10126000901A0D782051E0E520B4550AA351E0E52D
:1012700020B4AA028013755DA5755EF1120B315181
:10128000A7755D00755E00801D901A0378807B0A4B
:1012900051E0A308DBFA901A0F788C7B1A51E0A377
:1012A00008DBFA901A2922C2AF71237100901A004C
:1012B000740251E5A3740351E5A3742151E5901A1A
:1012C0000378807B0A51E4A308DBFA901A0F788C2C
:1012D0007B1A51E4A308DBFA71367114901A2922A3
:1012E000E493F622E6438F01538FFDFFC3E5839419
:1012F0001C400122EF855DB7855EB7F0538FFE225B
:10130000438F02438F01855DB7855EB7901A0DF05C
:10131000538FFC22901A0D745551E5901A0E74AA41
:1013200051E5227A3079D07820901A4051E0E520BA
:10133000F709A3DAF7227A3079D0901A40E751E51D
:1013400009A3DAF9227C0512042CDCFB22C2AF12BD
:061350000A9ED2AF22222A
:1019E0007597DE7597AD43EF02B4A5030219FD901C
:0A19F000FBFDE493B4A5F502FBC073
:1019FD00020C3C020321FFFFFFFFFFFF09FF01FF68
:101A0D0055AA01FFFFFFFFFF03FFFFFF25D0285061
:0D1A1D0004FF02FF7AFF0701FFFF0000FF3A
:101A4000234F5F485F30302320202020202020209B
:101A500023424C48454C492445464D3842323123B7
:101A60002020202020202020202020202020202076
:101C0000C2AFC2D37597DE7597AD7581C075A90057
:101C100075A90043FF80752438752503B1DE752949
:101C2000A5752AF143F12053A4DFD28575D4FF7541
:101C3000E3407DFA780379E67C1075220075230075
:101C4000901DEB7B06752498752501308502814B2C
:101C5000208508D8FBD9F9DCF781BD308508D8FB91
:101C6000D9F9DCF781BDB19EE493A3C39A6004DD8A
:101C7000C381BDDBDBB190600281347B08E493FA61
:101C8000A3B171DBF87A30B171752200752300B110
:101C900090EAFCEBFDC3ED94FE400EB1908A278BD9
:101CA00028ED30E0048A828B83B1907AC270D8C369
:101CB000ED94FE601950CEBD0029EC600F75200038
:101CC0007521FF752900752A000200008100A827F0
:101CD000A9280809D804D90281E0B194EAF281D494
:101CE0000D81A9C3ED94035051EDA2E092007AC595
:101CF000C3E5829400E583941C508C200010438F30
:101D000002438F018529B7852AB7F0300027A8271D
:101D1000A9280809438F01538FFDD804D902A135A2
:101D2000C3E583941C4003A3A11AE28529B7852A41
:101D3000B7F0A3A11A538FFC81857AC1BD030CE4CF
:101D400093A3FAB155DCF8B14D81858187AA22AB06
:101D500023B171EBFAEA6222752608C3E52313F575
:101D600023E52213F52250066323A0632201D52622
:101D7000EAB1DEB1DE75260AEAF4200102D285302E
:101D80000102C285B1DEC3134002C201D526EB2297
:101D9000B194EAFB208502A194308502A1997526B1
:101DA00008AE24AF25C3EF13FFEE13FEB1E2B1DEA0
:101DB000C3EA133085024480FA30E703632201C38B
:101DC000E52313F523E52213F52250066323A063D0
:101DD0002201D526D9E52265236523F52222AE24EA
:101DE000AF250E0FDEFEDFFCD20122424C48656CAF
:091DF0006934373164E8B20601E0
:00000001FF
