:020000040000FA
:060000000219E00203708A
:03000B0002F9B047
:030013000203F8ED
:03001B000200FFE1
:03002B0002033C91
:03003B0002F93097
:03005B0002040795
:1000730053E67FC2AF7592FA7593FFD2AF53917F68
:0C008300302D08C22D303B0302F9703212
:0E009B00C29FB285C574C886A5C804C574325C
:1000B0004A4553433031202020202020202020207A
:1000C0000406080C10182030406080A0C0C2AFC0E9
:1000D00082C083903E00E493B4541BA3E493B44CD9
:1000E00015A3E493B4580FA3A3A3E493B403071296
:1000F000F900D23B8002C23BD083D082D2AF22C271
:10010000AFC2A853E6EFC28E85618BC0D0D2D3C0F8
:10011000E0C0F0C2CAA8CCA9CDD2CAD2AF758A00BD
:10012000C3E89562F8E99563F9C3E913F9E813F8B0
:10013000C3E913F9E813F8E9701DE89573401895C1
:10014000735014E582B4100F7C007B007A007908AC
:10015000900000A8602160900000D2A8D2AA617C23
:10016000E0FDC39CC39840EF98EB33FB0582E0FCB5
:10017000C39DC39840E198EB33FB0582E0FDC39C2F
:10018000C39840D398EB33FB0582E0FCC39DC39832
:1001900040C598EB33FB0582E0FDC39CC39840B794
:1001A00098EB33FB0582E0FCC39DC39840A998EB14
:1001B00033FB0582E0FDC39CC398409B98EB33FB67
:1001C0000582E0FCC39DC398408D98EB33FB05820C
:1001D00021DB900000D2A8D2AA617CE0FDC39CC3C1
:1001E0009840EF98EA33FA0582E0FCC39DC398403B
:1001F000E198EA33FA0582E0FDC39CC39840D398A6
:10020000EA33FA0582E0FCC39DC39840C598EA33FF
:10021000FA0582E0FDC39CC39840B798EA33FA051B
:1002200082E0FCC39DC39840A998EA33FA0582E0B6
:10023000FDC39CC398409B98EA33FA0582E0FCC357
:100240009DC398408D98EA33FA0582EBC46B6A54DB
:10025000F0F9EAC4303301F454F0C3996009900016
:1002600000D2A8D2AA617CD2C0EBF4C454F0F9EA5F
:10027000F4C4540F49FAEBF4C4540FFBC3EAF994E5
:1002800060FAEB9400FB5020C3E97B007A00790010
:100290006016C3135006F9C3954D600AE9F54D7514
:1002A0004E0079008002054E303A27C3EA94D0F818
:1002B000EB9407F9400BE8FAE9FB203109D2314110
:1002C000C6303102C231203902B231C3EA33FAEB0F
:1002D00033FBEB2B3B3BF9C3EB13FBEA13FAEA29A5
:1002E000FAEB3400FB30E3047AFF7BFFE52554038F
:1002F000601A202A17E55833F9EB7007C3E99A40D2
:1003000002E9FAE536C42AFAEB3400FBC3EA33C447
:10031000540FF8EB33C454F048F87005EA600278E3
:1003200001C3EB13FBEA13FA900000E5226002150B
:10033000226192900000D2A8D2AA617CC0D0C0E015
:10034000C2CF053AE55C6005755C00616B755C01C8
:10035000E52360021523C3E54F6005755000616B0E
:10036000E5502401F55050037550FFD0E0D0D03255
:10037000C0E0E58A85618BF0A3D0E0320522E5225A
:1003800070021522C3E5229432500261D8754F00E5
:1003900061DB884FD230E86003755000C3E556FC3E
:1003A00095574002AC57C3EC954F5008EC75F004DC
:1003B000A4FAABF0EAF4F8EBF45403F9885189524B
:1003C00075230AE55530E10853F7DF43F740800B0A
:1003D00053D8FE43DA01800375230AE5E6A2E082E2
:1003E000C0400ED0F0D0E0D0D0D2A8D2AA43E610C0
:1003F00032D0F0D0E0D0D032C2AAD28EC2CA85CCE0
:100400006285CD63D2CA32C2AFC0D0C0E0D2D3853C
:1004100051FB8552FC85525553F7BF53DAFE53E624
:10042000EF53F7DF53D8FED0E0D0D0D2AF3279010E
:10043000801879038014790A8010790F800C791E56
:1004400080087964800479C88000781474F0000012
:1004500000D5E0FAD8F6D9F2227901801479038028
:1004600010790A800C791E80087964800479C8802C
:10047000007591007594307595F9759104D22D43EE
:10048000E680303B0BC2AF302D0912F95075A70042
:10049000202DFDD2AFD9DA2278FF20282879A1E7D4
:1004A0006023E571601F74FF8571F0848539F03039
:1004B000290375F005A4F8C5F0600278FFC3E8953C
:1004C000585002A858885722C3E57094A0E571944B
:1004D00000E55750031481D9046002F5572275E8EE
:1004E00090220559C3E5599408405330EDF4A8BD56
:1004F000A9BE755900E9FA79A0E76041EA7006E5FE
:100500005A6018800CC3E8955A600EE55A50056091
:100510000A1480070460FA8002E55AF55AC3955F11
:10052000401B7556C0C394044013755680C3940491
:10053000400B755640C39404400375560022E5569F
:100540002410500274FFF55622743279A687F0A465
:10055000C5F0A2F733F558227570007571F022C20C
:10056000AFC2CAA8CCA9CDAA3A30CF010AD2CAD20A
:10057000AFC3EA13FAE913F9E813F8853B3E853C6B
:100580003F883B893C8A3D22C2AFC2CAA8CCA9CDD4
:10059000AA3A30CF010AD2CAD2AFC3EA13FAE9139A
:1005A000F9E813F8AB3BAC3C883B893CC3E89BF8CB
:1005B000E99C8840F54120280B547FF9302C030238
:1005C00006AD8041AD3D8A3DF9EA9D547FFA600653
:1005D00078FF79FF8013AE3EAF3F8B3E8C3FA83B48
:1005E000A93CC3E89EF8E99FF9C3E57113FBE570E8
:1005F00013FAE82AF570E93BF57150067570FF753E
:1006000071FF020652AA70AB71AC70AD717E047FAF
:1006100002C3EB9404400D1E1FC3EB940840052059
:1006200029021E1FC3ED13FDEC13FCDEF7C3EA9C89
:10063000FAEB9DFBEF6009C3E913F9E813F8DFF764
:10064000EA28FAEB39FB8A708B7150067BFF8B70BE
:100650008B71C3EB94025002D22C3028057F030229
:10066000067E7892E6FFC3E537948240110FC3E51A
:100670003794A040010FC3EF940640027F057E022D
:10068000E571C4540FF9E571C454F0F8E570C45431
:100690000F28F8C3E89EFAE99400FB4009C3EA94E6
:1006A00001EB940050047A01E4FB0206F9AA70AB56
:1006B00071EBC4FEEAC4540F4EFCC3EA9CFAEB94FF
:1006C00000FBC3E813C313F8EA28FAEB3400FB8AF3
:1006D000708B71C3EB94024002C22C7802EBC4FE13
:1006E0007B00EAC4540F4EFAC3EA98FA4005C3945B
:1006F0000150027A017892E6FF303B0BC2AF302DF9
:100700000912F95075A700202DFDD2AF85499285B9
:100710004A93D22D43E680C3E49AF8E49BF9C3E8F8
:1007200033F8E933F9302C0302079CE8FAE9FBD3EC
:10073000E913FDE813FC8849894AC3EF9403603844
:10074000EF20E00CE82CF8E93DF9ECFAEDFB801322
:10075000E828F8E939F9C3E82401F8E93400F97A1E
:10076000FF7BFFC3EF9403400F8A4B8B4C88458976
:10077000468C478D480207D1884B894C8A458B4669
:100780008C478D48302812754BF0754CFF7547F03B
:100790007548FF7549F0754AFF0207D1E8FAD3E8BA
:1007A00013FC8849C3EF94036021EF20E007E82C95
:1007B000F8ECFAE1BCE8282401F87AFFC3EF9403CF
:1007C00040098A4B88458C470207D1884B8A458C63
:1007D00047303B0BC2AF302D0912F95075A70020EE
:1007E0002DFDD2AF753402D22D43E680E5255403AA
:1007F0006034A870A971C3E913F9E813F8C3E913C9
:10080000F9E813F8302804E92440F9C2AF53E67F31
:10081000759100C3E498F594E499F595759104D227
:100820002D43E680D2AF22D22075440075200030DF
:100830002B03752040800ED2207544007520403077
:100840002B0375200078017901202C32E525540313
:100850006002C2207905E571C313700104C31370EF
:100860000104C313700104F8C394054002780530F5
:100870002804781B791BC3E833F8C3E933F9202D2A
:1008800011E544600D302803D53404D2212106122D
:1008900007E70544E59B5440B5200201EE302809E6
:1008A00008C3E899400118017E20200B08C3E8998D
:1008B0004003020845017EC22053E67F7591003057
:1008C0002C117594007595F0759104D22D43E68036
:1008D000020845E5717EFFC3334009C3334005C3B9
:1008E000334001FEC3E49E759400F59501C8C3E54D
:1008F0003394015003020845302003020845D80212
:100900002104017EC221C2AF53E67F759100854B61
:1009100094854C95759104854592854693D22D43D7
:10092000E680D2AFE5255403600720290205338015
:100930001030210D202B0A2020071581158102126D
:100940003C2278003020027801E53775F007A4F9E1
:10095000E5F028F5F0E9A2F013A2F113A2F213F5E5
:1009600037C394785003753778C3E5379538400915
:10097000C294C295C29675D57F303B0BC2AF302D65
:100980000912F95075A700202DFDD2AF8547928539
:100990004893D22D43E68022C2AF53E67F75910083
:1009A000854594854695854792854893759104D2EF
:1009B0002D43E680D2AF22203814C2AFC295C29137
:1009C000D294D29675D577D2AF759F2341B7C2AF77
:1009D000C295C293D296D29475D57DD2AF759F231E
:1009E00041B7203814C2AFC296D29575D57BC2915B
:1009F000D294D2AF759F1341B7C2AFC294D295754E
:100A0000D57BC293D296D2AF759F4341B72038149D
:100A1000C2AFC294C293D296D29575D57BD2AF7530
:100A20009F4341B7C2AFC296C291D294D29575D5B9
:100A30007BD2AF759F1341B7203814C2AFC295D295
:100A40009475D57DC293D296D2AF759F238068C22C
:100A5000AFC295D29675D577C291D294D2AF759F19
:100A6000238054203814C2AFC296C292D295D29439
:100A700075D57DD2AF759F13803DC2AFC294C2922F
:100A8000D295D29675D577D2AF759F4380292038FD
:100A900014C2AFC294D29675D577C292D295D2AF16
:100AA000759F438012C2AFC296D29475D57DC29213
:100AB000D295D2AF759F13227A1C7B3C80127A1498
:100AC0007B4B800C7A107B5A80067A0A7B788000F8
:100AD000E55BD5E0012275A91375A71075C10075F6
:100AE000A7007902E4C295D5E0FDD292D295D5E077
:100AF000FDC295D5E0FDC292D295D5E0FDE920E09A
:100B000004D291D29430E004D293D296E55BD5E042
:100B1000FDE920E002C29430E002C2967496D5E06E
:100B2000FDD9C1EAF8D5E0FDD8FBDBA4C29575A7D5
:100B30001075C13075A70075A90322C294C295C271
:100B400096C294C295C29675D57F22788076FF08AA
:100B500076FF0876FF0876FF0876FF0876FF0876AE
:100B6000090876FF087601788C76010876FF08760A
:100B7000FF0876FF0876FF0876FF0876030876FF01
:100B80000876FF0876FF0876250876D008762808CC
:100B900076500876040876FF0876020876FF087615
:100BA0007A0876FF0876070876010876FF0876FF50
:100BB000087600087600227888E6C39403D23A507B
:100BC00002C23AC238E630E102D238A2389239780D
:100BD00086E6149000C09378A6F67886E6F539C3C9
:100BE00094025003753902789CE67538FFB402030D
:100BF0007538A0B4030375388278A0E6F8600674EF
:100C0000282409D8FCF55F2278A5E6F95403700082
:100C1000E9540C7000E954307000E954C0700022AF
:100C2000AA70AB71EBC313F4FBEA13F4FA8A928B4C
:100C300093D22D43E68022C2AF53E67F75910085A3
:100C40004594854695759104854792854893D22DA4
:100C500043E680D2AF22755D00755E007597DE7544
:100C600097AD7581C043FF8075EF0675A90075A922
:100C700000713B7580FF75F1E175A4007580FF750B
:100C8000D4FF75900075F27E75A57E75900075D5C0
:100C90007F75A00075A60175A72075CC0175A7000A
:100CA00075E34075E202713BE4F8F6D8FD714B1232
:100CB00012787898865B75300175A71075C130750C
:100CC000A70075A903C2AF12044651B812043E1220
:100CD000043E12043E51BE12043E12043E12043E73
:100CE00051C412043E12043E12043E51CA51CA12AB
:100CF00004469108C2AF75A71053CEEF75A70053F5
:100D0000A4DFD28575A91375A71075C10075A7005A
:100D1000755D00755E00AAE475E4D578FA79FA305D
:100D20008509D9FBD8F7021C008AE4C2AF71B778F5
:100D300098865B713B75A71075C13075A70075A9C2
:100D40000375C804759104C22D75D84075D908750E
:100D5000F783759E0015F775960275DA4A75DB0004
:100D600075A82175E61075B801759B80759D007595
:100D7000D10C75BCB975BB1075E88075B201120451
:100D80002E9000007588007572201200CD75360017
:100D9000C230754D00754E0075E45DD233758851D3
:100DA0007589AA758C00758D00C2A9D2ABD2AAD262
:100DB000AF758E0C75610075602875732875220AF1
:100DC000120469756020C3E522940A754D00754EC2
:100DD00000406E758E0C75618075601475731475A6
:100DE000220A120469756010C3E522940A754D0049
:100DF000754E00404C75E4D5C233758E0C7561009C
:100E000075602875732875220A120469756020C3FD
:100E1000E522940A754D00754E004025758E0C75BF
:100E2000618075601475731475220A120469756007
:100E300010C3E522940A754D00754E004003020C64
:100E4000F41200CD12045D203003020CF4C2AFA2F4
:100E500033823B400651CA51CA800451C451C4D2A6
:100E6000AF12046D120469C3E54F9401400280EF94
:100E7000C2AFA233823B401D51B8D2AF120469C247
:100E8000AF51B8D2AF120469C2AF51B8D2AF120499
:100E900069C2AF800651CA51CA51CAD2AF12046D9D
:100EA000753000757000757100754000754100E483
:100EB000F531F53275200005203001477520000519
:100EC00031E531F4703D0532789AE67819146012F4
:100ED000783214600D787D14600878FA1460037518
:100EE0003200C3E53298401B713B12042E15327557
:100EF00031007899865BC2AF51CAD2AF7898865BD1
:100F0000120469120461E523700281F4120459305D
:100F100030A5C3E54F9401500AC3E54D9401501626
:100F2000020EB7120469E5237003020CF4754D003C
:100F3000754E000210DCC3E54D94017016C2AF710E
:100F40003B7899865B51B87898865BD2AF1204697A
:100F50000210CBC3E54D94027016C2AF713B789975
:100F6000865B51BE7898865BD2AF1204690210CBC3
:100F7000C3E54D94037016C2AF713B7899865B51FF
:100F8000C47898865BD2AF1204690210CBC3E54DDA
:100F900094047016C2AF713B7899865B51CA7898F9
:100FA000865BD2AF1204690210CBC3E54D94057085
:100FB00016C2AF713B7899865B51CA7898865BD22E
:100FC000AF1204690210CBC3E54D9407701BC3E553
:100FD0004E94065002020F0C7401303A02740378EA
:100FE00088F6C238C2390210CBC3E54D9408701A96
:100FF000C3E54E94065002020F0C7402303A02749C
:10100000047888F6D238D23901CBC3E54D94097003
:1010100018C3E54E94065003020F0C303A0BC37808
:1010200088E69402F6C23A01CBC3E54D940A7017E4
:10103000C3E54E94065003020F0C203A0A7888E666
:101040002402F6D23A01CBC3E54D94147026C3E5D1
:101050004E94065003020F0CC2AF901A0B7400930B
:10106000D2AF7888F613C238C2394002D238400273
:10107000D2398057C3E54D94157038C3E54E9406B8
:10108000404FC2AF901A0B740093D2AFF8B8010270
:101090007402B802027401B803027404B804027442
:1010A000037888F613C238C2394002D2384002D2DF
:1010B000398018C3E54D940C7011755DA5755EF10E
:1010C000C3E54E9406400A51BFD2AF754E00754D30
:1010D00000755D00755E00C230020F0CC2AF120BCE
:1010E0003BE4D2AFE4F559F524F525F537755908F9
:1010F0001204591204DE30EDFDA8BDA9BEE970014D
:10110000F8885A1204E2755908C2AF120549855889
:1011100056855857D2AF303A07C238303102D238EC
:10112000D228753300120A63120A8E12055812056E
:1011300088120558120588120558120837120942FC
:101140001209B7120588120827202C0312049830C0
:101150002C031204C81209421209E212058812086F
:1011600037120942120A0D12058812082712094285
:10117000120A38120588120837120942120A63123D
:1011800005881204DE120827120942120A8E120480
:10119000E212058830282785585679187A0CC3E55D
:1011A0003399400EC228D2298A358558568558571A
:1011B000800CC3E54F9401400302113A41443029A9
:1011C0001F202B1CE535147006C229D22A213AF5BE
:1011D00035203A07C3E54F9401400302113A806479
:1011E000753600203A0F78FA79A4E760027803C3D5
:1011F000E55098504FE523604B303A1720380520D2
:101200003107800F303102800A202B07D22B8558FE
:1012100056216A78F0302B058558567820C3E57141
:1012200098500302113A302B1BC22BC238303102C6
:10123000D238D229753512855856213A0536E54FF0
:1012400060024147753600C2AF120B3B752500D2D4
:10125000AF120469120B3B75240078A4E6600CC23F
:1012600091D294C292D295C293D296C3E536940499
:101270004003020CF4020EA3901A0D782051F8E5F9
:1012800020B4550AA351F8E520B4AA028013755D75
:10129000A5755EF1120B4B51BF755D00755E008048
:1012A0001D901A0378807B0A51F8A308DBFA901A84
:1012B0000F788C7B1A51F8A308DBFA901A2922C206
:1012C000AF713B7118901A00740251FDA374025162
:1012D000FDA3742151FD901A0378807B0A51FCA371
:1012E00008DBFA901A0F788C7B1A51FCA308DBFA02
:1012F000714E712C901A2922E493F622E6438F0155
:10130000538FFDFFC3E583941C400122EF855DB739
:10131000855EB7F0538FFE22438F02438F01855DB8
:10132000B7855EB7901A0DF0538FFC22901A0D749A
:101330005551FD901A0E74AA51FD227A3079D07859
:1013400020901A4051F8E520F709A3DAF7227A3005
:1013500079D0901A40E751FD09A3DAF9227C0512F1
:0E1360000446DCFB22C2AF120AB8D2AF222232
:1019E0007597DE7597AD43EF02B4A5030219FD901C
:0A19F000FBFDE493B4A5F502FBC073
:1019FD00020C56020221FFFFFFFFFFFF09FF01FF4F
:101A0D0055AA01FFFFFFFFFF03FFFFFF25D0285061
:0D1A1D0004FF02FF7AFF0701FFFF0000FF3A
:101A400023505F485F30302320202020202020209A
:101A500023424C48454C492445464D3842323123B7
:101A60002020202020202020202020202020202076
:101C0000C2AFC2D37597DE7597AD7581C075A90057
:101C100075A90043FF80752438752503B1DE752949
:101C2000A5752AF143F12053A4DFD28575D4FF7541
:101C3000E3407DFA780379E67C1075220075230075
:101C4000901DEB7B06752498752501308502814B2C
:101C5000208508D8FBD9F9DCF781BD308508D8FB91
:101C6000D9F9DCF781BDB19EE493A3C39A6004DD8A
:101C7000C381BDDBDBB190600281347B08E493FA61
:101C8000A3B171DBF87A30B171752200752300B110
:101C900090EAFCEBFDC3ED94FE400EB1908A278BD9
:101CA00028ED30E0048A828B83B1907AC270D8C369
:101CB000ED94FE601950CEBD0029EC600F75200038
:101CC0007521FF752900752A000200008100A827F0
:101CD000A9280809D804D90281E0B194EAF281D494
:101CE0000D81A9C3ED94035051EDA2E092007AC595
:101CF000C3E5829400E583941C508C200010438F30
:101D000002438F018529B7852AB7F0300027A8271D
:101D1000A9280809438F01538FFDD804D902A135A2
:101D2000C3E583941C4003A3A11AE28529B7852A41
:101D3000B7F0A3A11A538FFC81857AC1BD030CE4CF
:101D400093A3FAB155DCF8B14D81858187AA22AB06
:101D500023B171EBFAEA6222752608C3E52313F575
:101D600023E52213F52250066323A0632201D52622
:101D7000EAB1DEB1DE75260AEAF4200102D285302E
:101D80000102C285B1DEC3134002C201D526EB2297
:101D9000B194EAFB208502A194308502A1997526B1
:101DA00008AE24AF25C3EF13FFEE13FEB1E2B1DEA0
:101DB000C3EA133085024480FA30E703632201C38B
:101DC000E52313F523E52213F52250066323A063D0
:101DD0002201D526D9E52265236523F52222AE24EA
:101DE000AF250E0FDEFEDFFCD20122424C48656CAF
:091DF0006934373164E8B20601E0
:00000001FF
