:020000040000FA
:060000000219FD020334A9
:03000B0002178059
:030013000203C223
:03001B000200AD33
:03002B000202E4EA
:03003B00021700A9
:03005B000203D1CC
:030073000203186D
:03009B0002180048
:1000A0000406080C10182030406080A0C0C2AFC207
:1000B000A853E6EFC28E85618BC0D0D2D3C0E0C01A
:1000C000F0C2CAA8CCA9CDD2CAD2AF758A00C3E803
:1000D0009562F8E99563F9C3E913F9E813F8C3E900
:1000E00013F9E813F8E9701DE89564401895645019
:1000F00014E582B4100F7C007B007A007908900030
:1001000000A860210E900000D2A8D2AA6140E0FDB4
:10011000C39CC39840EF98EB33FB0582E0FCC39D82
:10012000C39840E198EB33FB0582E0FDC39CC39884
:1001300040D398EB33FB0582E0FCC39DC39840C5D8
:1001400098EB33FB0582E0FDC39CC39840B798EB66
:1001500033FB0582E0FCC39DC39840A998EB33FBB9
:100160000582E0FDC39CC398409B98EB33FB05825E
:10017000E0FCC39DC398408D98EB33FB0582218939
:10018000900000D2A8D2AA6140E0FDC39CC3984071
:10019000EF98EA33FA0582E0FCC39DC39840E198EA
:1001A000EA33FA0582E0FDC39CC39840D398EA3352
:1001B000FA0582E0FCC39DC39840C598EA33FA056E
:1001C00082E0FDC39CC39840B798EA33FA0582E009
:1001D000FCC39DC39840A998EA33FA0582E0FDC3A9
:1001E0009CC398409B98EA33FA0582E0FCC39DC308
:1001F00098408D98EA33FA0582EBC46B6A54F0F9A3
:10020000EAC4303301F454F0C3996009900000D27D
:10021000A8D2AA6140D2C0EBF4C454F0F9EAF4C405
:10022000540F49FAEBF4C4540FFBC3EAF99460FA93
:10023000EB9400FB5020C3E97B007A007900601644
:10024000C3135006F9C3954D600AE9F54D754E008C
:1002500079008002054E303A27C3EA94D0F8EB9437
:1002600007F9400BE8FAE9FB203109D2314174303B
:100270003102C231203902B231C3EA33FAEB33FB27
:10028000EB2B3B3BF9C3EB13FBEA13FAEA29FAEB3E
:100290003400FB30E3047AFF7BFFE5255403601B49
:1002A000202A18E55833F9EB7007C3E99A4002E9B0
:1002B000FAE536C4332AFAEB3400FBC3EA33C454FC
:1002C0000FF8EB33C454F048F87005EA6002780187
:1002D000900000E522600215226156900000D2A82D
:1002E000D2AA6140C0D0C0E0C2CF053AE55C60054B
:1002F000755C006113755C01E52360021523C3E59D
:100300004F60057550006113E5502401F55050030E
:100310007550FFD0E0D0D032C2AF53E67F7592FA6D
:100320007593FF53917FD2AF302D08C22D303B0320
:1003300002168032C0E0E58A85618BF0A3D0E032FE
:100340000522E52270021522C3E522943250026193
:10035000A2754F0061A5884FD230E8600375500048
:10036000C3E556FC95574002AC57C3EC954F500877
:10037000EC75F008A4FAABF0EAF4F8EBF45407F9E2
:10038000C3E894B4FAE99400FB50047A007B008837
:100390005189528A538B5475230A53F7DF43F74030
:1003A000800375230AE5E6A2E082C0400ED0F0D0BB
:1003B000E0D0D0D2A8D2AA43E61032D0F0D0E0D01C
:1003C000D032C2AAD28EC2CA85CC6285CD63D2CACF
:1003D00032C2AFC0D0C0E0D2D3A8F9E55530E20AAE
:1003E000E5FA20E22E20E12B61F2E5FA30E224204A
:1003F000E121C3E55213F8E55113F5FB88FCC3E591
:100400005413F8E55313F5E988EA85525553F7BFBD
:1004100053E6EF53F7DFD0E0D0D0D2AF327901808E
:100420001879038014790A8010790F800C791E8066
:10043000087964800479C88000781474F0000000A2
:10044000D5E0FAD8F6D9F222790180147903801028
:10045000790A800C791E80087964800479C880004C
:100460007591007594307595F9759104D22D43E618
:1004700080303B0BC2AF302D0912160075A700204B
:100480002DFDD2AFD9DA2278FF20282879A1E760A4
:1004900023E571601F74FF8571F0848539F0302980
:1004A0000375F005A4F8C5F0600278FFC3E895581D
:1004B0005002A858885722C3E57094A0E5719400B3
:1004C000E55750031481C8046002F5572275E8907F
:1004D000220559C3E5599408405330EDF4A8BDA94D
:1004E000BE755900E9FA79A0E76041EA7006E55A5D
:1004F0006018800CC3E8955A600EE55A5005600AF2
:100500001480070460FA8002E55AF55AC3955F40EB
:100510001B7556C0C394044013755680C3940440A1
:100520000B755640C39404400375560022E55624CB
:1005300010500274FFF55622743279A687F0A4C5D4
:10054000F0A2F733F558227570007571F022C2AF32
:10055000C2CAA8CCA9CDAA3A30CF010AD2CAD2AF1A
:10056000C3EA13FAE913F9E813F8853B3E853C3FEB
:10057000883B893C8A3D22C2AFC2CAA8CCA9CDAA79
:100580003A30CF010AD2CAD2AFC3EA13FAE913F95B
:10059000E813F8AB3BAC3C883B893CC3E89BF8E9EB
:1005A0009C8840F54120280B547FF9302C0302062B
:1005B0009C8041AD3D8A3DF9EA9D547FFA60067802
:1005C000FF79FF8013AE3EAF3F8B3E8C3FA83BA927
:1005D0003CC3E89EF8E99FF9C3E57113FBE570138E
:1005E000FAE82AF570E93BF57150067570FF7571F0
:1005F000FF020641AA70AB71AC70AD717E047F0240
:10060000C3EB9404400D1E1FC3EB94084005202942
:10061000021E1FC3ED13FDEC13FCDEF7C3EA9CFAC8
:10062000EB9DFBEF6009C3E913F9E813F8DFF7EA84
:1006300028FAEB39FB8A708B7150067BFF8B708B2D
:1006400071C3EB94025002D22C3028057F030206BE
:100650006D7892E6FFC3E537948240110FC3E5370A
:1006600094A040010FC3EF940640027F057E02E58F
:1006700071C4540FF9E571C454F0F8E570C4540F17
:1006800028F8C3E89EFAE99400FB4009C3EA940104
:10069000EB940050047A01E4FB0206E8AA70AB7107
:1006A000EBC4FEEAC4540F4EFCC3EA9CFAEB940080
:1006B000FBC3E813C313F8EA28FAEB3400FB8A7093
:1006C0008B71C3EB94024002C22C7802EBC4FE7B18
:1006D00000EAC4540F4EFAC3EA98FA4005C39401E5
:1006E00050027A017892E6FF303B0BC2AF302D0901
:1006F00012160075A700202DFDD2AF854992854ABC
:1007000093D22D43E680C3E49AF8E49BF9C3E8331F
:10071000F8E933F9302C0302078BE8FAE9FBD3E957
:1007200013FDE813FC8849894AC3EF94036038EF4E
:1007300020E00CE82CF8E93DF9ECFAEDFB8013E839
:1007400028F8E939F9C3E82401F8E93400F97AFF17
:100750007BFFC3EF9403400F8A4B8B4C884589463F
:100760008C478D480207C0884B894C8A458B468C44
:10077000478D48302812754BF0754CFF7547F07562
:1007800048FF7549F0754AFF0207C0E8FAD3E8133D
:10079000FC8849C3EF94036021EF20E007E82CF8C0
:1007A000ECFAE1ABE8282401F87AFFC3EF940340A8
:1007B000098A4B88458C470207C0884B8A458C477D
:1007C000303B0BC2AF302D0912160075A700202D4B
:1007D000FDD2AF753402D22D43E680E52554036087
:1007E00034A870A971C3E913F9E813F8C3E913F940
:1007F000E813F8302804E92440F9C2AF53E67F75C6
:100800009100C3E498F594E499F595759104D22D7F
:1008100043E680D2AF22D220754400752000302BF1
:1008200003752040800ED220754400752040302B87
:100830000375200078017901202C28E525540360F8
:1008400002C2207919E571C313700104F8C3941929
:1008500040027819302804781B791BC3E833F8C3A9
:10086000E933F9202D11E544600D302803D5340417
:10087000D22101EB1207D60544E59B5440B5200276
:1008800001D330280908C3E89940011801632020EA
:100890000B08C3E89940030208340163C22053E601
:1008A0007F759100302C117594007595F075910449
:1008B000D22D43E680020834E5717EFFC333400940
:1008C000C3334005C3334001FEC3E49E759400F575
:1008D0009501ADC3E5339401500302083430200381
:1008E000020834D80201E90163C221C2AF53E67F96
:1008F000759100854B94854C95759104854592853D
:100900004693D22D43E680D2AFE5255403600720FD
:1009100029020533801030210D202B0A20200715D5
:100920008115810211E52278003020027801E53737
:1009300075F007A4F9E5F028F5F0E9A2F013A2F1AB
:1009400013A2F213F537C394785003753778C3E5D3
:100950003795384009C291C292C29375D57F303B1A
:100960000BC2AF302D0912160075A700202DFDD245
:10097000AF854792854893D22D43E68022C2AF537C
:10098000E67F759100854594854695854792854813
:1009900093759104D22D43E680D2AF22203810C245
:1009A000AFC295D29475D537D2AF759F45416CC211
:1009B000AFC295D29675D56DD2AF759F45416C206B
:1009C0003810C2AFC29375D55BD294D2AF759F6514
:1009D000416CC2AFC29175D55BD296D2AF759F758F
:1009E000416C203810C2AFC294D29675D55BD2AF9D
:1009F000759F758077C2AFC296D29475D55BD2AF22
:100A0000759F658067203810C2AFC29275D56DD2D0
:100A100096D2AF759F458054C2AFC29275D537D27A
:100A200094D2AF759F458044203810C2AFC296D291
:100A30009575D56DD2AF759F658031C2AFC294D226
:100A40009575D537D2AF759F758021203810C2AF0C
:100A5000C29175D537D295D2AF759F75800EC2AF52
:100A6000C29375D56DD295D2AF759F65227A1C7BE6
:100A70003C80127A147B4B800C7A107B5A80067A69
:100A80000A7B788000E55BD5E0012275A91375A784
:100A90001075C10075A7007902E4C295D5E0FDD2BA
:100AA00092D5E0FDC292D5E0FDD295D5E0FDE920DA
:100AB000E002D29130E002D293E55BD5E0FDE9207F
:100AC000E002C29130E002C2937496D5E0FDD9C92C
:100AD000EAF8D5E0FDD8FBDBACC29575A71075C16F
:100AE0003075A70075A90322C291C292C293C29425
:100AF000C295C29675D57F22788076FF0876FF086A
:100B000076FF0876FF0876FF0876FF0876090876F4
:100B1000FF087601788C76010876FF0876FF087664
:100B2000FF0876FF0876FF0876030876FF0876FF51
:100B30000876FF0876250876D008762808765008CB
:100B400076040876FF0876020876FF08767A08763B
:100B5000FF0876070876010876FF0876FF0876001A
:100B6000087600227888E6C39403D23A5002C23A4B
:100B7000C238E630E102D238A23892397886E614DB
:100B80009000A09378A6F67886E6F539C3940250D3
:100B900003753902789CE67538FFB402037538A0F6
:100BA000B4030375388278A0E6F860067428240937
:100BB000D8FCF55F2278A5E6F95403C2827002D210
:100BC00082E9540CC2817002D281E95430C2807033
:100BD00002D280E954C0700022AA70AB71EBC3133B
:100BE000F4FBEA13F4FA8A928B93D22D43E6802227
:100BF000C2AF53E67F759100854594854695759102
:100C000004854792854893D22D43E680D2AF227562
:100C10005D00755E007597DE7597AD7581C043FF09
:100C20008075EF0675A90075A90051E87580FF75FC
:100C3000F10F75A4077580FF75D4FF75900075F2EC
:100C40007E75A57E75900075D57F75A00075A6018F
:100C500075A72075CC0175A70075E34075E20251B8
:100C6000E8E4F8F6D8FD51F812121B7898865B7507
:100C7000300175A71075C13075A70075A903C2AF03
:100C8000120435516D12042D12042D12042D5173CE
:100C900012042D12042D12042D517912042D120468
:100CA0002D12042D517F517F12043571B5C2AF75DD
:100CB000A71053CEEF75A70053A4F7D28375A913DD
:100CC00075A71075C10075A700755D00755E007889
:100CD000FA79FA308307D9FBD8F7021C00C2AF714A
:100CE000647898865B51E875A71075C13075A700C8
:100CF00075A90375C804759104C22D75D84075D9BE
:100D00000875F782759E0375960275DA4275DB42A7
:100D100075A82175E61075B801759B80759D0075E5
:100D2000D10C75BCB975BB1075E88075B2011204A1
:100D30001D900000758800757208901500E493B44A
:100D40005413A3E493B44C0DA3E493B458071215C1
:100D500080D23B8002C23B900000753600C23075E5
:100D60004D00754E0075E43BD2337588517589AAE4
:100D7000758C00758D00C2A9D2ABD2AAD2AF758E88
:100D80000C75610075602875642875220A12045874
:100D9000756020C3E522940A754D00754E00404CE5
:100DA00075E4B3C233758E0C756100756028756487
:100DB0002875220A120458756020C3E522940A752A
:100DC0004D00754E004025758E0C75618075601460
:100DD00075641475220A120458756010C3E52294D4
:100DE0000A754D00754E004003020CAD12044C20F4
:100DF0003003020CADC2AFA233823B4006517F519B
:100E00007F800451795179D2AF12045C120458C327
:100E1000E54F9401400280EFC2AFA233823B401DF8
:100E2000516DD2AF120458C2AF516DD2AF120458F7
:100E3000C2AF516DD2AF120458C2AF8006517F517C
:100E40007F517FD2AF12045C7530007570007571F0
:100E500000754000754100E4F531F532752000055C
:100E6000203001477520000531E531F4703D053231
:100E7000789AE67819146012783214600D787D142F
:100E8000600878FA146003753200C3E53298401B9D
:100E900051E812041D15327531007899865BC2AF96
:100EA000517FD2AF7898865B120458120450E52324
:100EB000700281AD1204483030A5C3E54F94015053
:100EC0000AC3E54D94015016020E5F120458E52343
:100ED0007003020CAD754D00754E00021085C3E520
:100EE0004D94017016C2AF51E87899865B516D78C8
:100EF00098865BD2AF120458021074C3E54D940279
:100F00007016C2AF51E87899865B51737898865B0A
:100F1000D2AF120458021074C3E54D94037016C288
:100F2000AF51E87899865B51797898865BD2AF1299
:100F30000458021074C3E54D94047016C2AF51E812
:100F40007899865B517F7898865BD2AF12045802FD
:100F50001074C3E54D94057016C2AF51E8789986B8
:100F60005B517F7898865BD2AF120458021074C32D
:100F7000E54D9407701AC3E54E94065002C1B4744F
:100F800001303A0274037888F6C238C2390210740C
:100F9000C3E54D9408701AC3E54E94065002C1B4DF
:100FA0007402303A0274047888F6D238D2390210CA
:100FB00074C3E54D94097019C3E54E9406500302BD
:100FC0000EB4303A0CC37888E69402F6C23A0210A6
:100FD00074C3E54D940A7018C3E54E94065003029D
:100FE0000EB4203A0B7888E62402F6D23A02107446
:100FF000C3E54D94147026C3E54E94065003020ECB
:10100000B4C2AF901A0B740093D2AF7888F613C2B3
:1010100038C2394002D2384002D2398057C3E54D38
:1010200094157038C3E54E9406404FC2AF901A0B2A
:10103000740093D2AFF8B801027402B802027401CE
:10104000B803027404B8040274037888F613C23833
:10105000C2394002D2384002D2398018C3E54D94DB
:101060000C7011755DA5755EF1C3E54E9406400ADE
:101070005162D2AF754E00754D00755D00755E0012
:10108000C230020EB4C2AF120AE8E4D2AFE4F5599E
:10109000F524F525F5377559081204481204CD30AA
:1010A000EDFDA8BDA9BEE97001F8885A1204D175FA
:1010B0005908C2AF120538855856855857D2AF30F7
:1010C0003A07C238303102D238D228753300120ABA
:1010D00028120A4B120547120577120547120577A9
:1010E00012054712082612092712099C12057712C9
:1010F0000816202C03120487302C031204B712099F
:10110000271209BF1205771208261209271209E2D1
:10111000120577120816120927120A05120577120E
:101120000826120927120A281205771204CD120880
:1011300016120927120A4B1204D1120577302827FC
:1011400085585679187A0CC3E53399400EC228D2D7
:10115000298A35855856855857800CC3E54F940128
:1011600040030210E321ED30291F202B1CE535142C
:101170007006C229D22A01E3F535203A07C3E54FAC
:10118000940140030210E38064753600203A0F7822
:10119000FA79A4E760027803C3E55098504FE5233D
:1011A000604B303A17203805203107800F3031026C
:1011B000800A202B07D22B855856211378F0302B2C
:1011C000058558567820C3E5719850030210E33026
:1011D0002B1BC22BC238303102D238D229753512BE
:1011E00085585601E30536E54F600221F07536005B
:1011F000C2AF120AE8752400752500D2AF1204317F
:10120000120AE878A4E66006D294D295D296C3E595
:101210003694044003020CAD020E4B901A0D782058
:10122000519BE520B4550AA3519BE520B4AA028046
:1012300013755DA5755EF1120AF85162755D007552
:101240005E00801D901A0378807B0A519BA308DB07
:10125000FA901A0F788C7B1A519BA308DBFA901A2C
:101260002922C2AF51DE51BB901A00740151A0A3D4
:10127000740251A0A3742151A0901A0378807B0AB4
:10128000519FA308DBFA901A0F788C7B1A519FA309
:1012900008DBFA51F151CF901A2922E493F622E6A5
:1012A000438F01538FFDFFC3E583941C400122EF60
:1012B000855DB7855EB7F0538FFE22438F02438F63
:1012C00001855DB7855EB7901A0DF0538FFC2290B3
:1012D0001A0D745551A0901A0E74AA51A0227A309A
:1012E00079D07820901A40519BE520F709A3DAF7CE
:1012F000227A3079D0901A40E751A009A3DAF92276
:101300007C05120435DCFB22C2AF120A6DD2AF227B
:0113100022BA
:1019FD00020C0F010221FFFFFFFFFFFF09FF01FF97
:101A0D0055AA01FFFFFFFFFF03FFFFFF25D0285061
:0D1A1D0004FF02FF7AFF0701FFFF0000FF3A
:101A400023555F485F39302320202020202020208C
:101A500023424C48454C492445464D3842323123B7
:101A60002020202020202020202020202020202076
:101C0000C2AFC2D37597DE7597AD7581C075A90057
:101C100075A90043FF80752438752503B1DE752949
:101C2000A5752AF143F10853A4F7D28375D4FF7543
:101C3000E3407DFA780379E67C1075220075230075
:101C4000901DEB7B06752498752501308302814B2E
:101C5000208308D8FBD9F9DCF781BD308308D8FB95
:101C6000D9F9DCF781BDB19EE493A3C39A6004DD8A
:101C7000C381BDDBDBB190600281347B08E493FA61
:101C8000A3B171DBF87A30B171752200752300B110
:101C900090EAFCEBFDC3ED94FE400EB1908A278BD9
:101CA00028ED30E0048A828B83B1907AC270D8C369
:101CB000ED94FE601950CEBD0029EC600F75200038
:101CC0007521FF752900752A000200008100A827F0
:101CD000A9280809D804D90281E0B194EAF281D494
:101CE0000D81A9C3ED94035051EDA2E092007AC595
:101CF000C3E5829400E583941C508C200010438F30
:101D000002438F018529B7852AB7F0300027A8271D
:101D1000A9280809438F01538FFDD804D902A135A2
:101D2000C3E583941C4003A3A11AE28529B7852A41
:101D3000B7F0A3A11A538FFC81857AC1BD030CE4CF
:101D400093A3FAB155DCF8B14D81858187AA22AB06
:101D500023B171EBFAEA6222752608C3E52313F575
:101D600023E52213F52250066323A0632201D52622
:101D7000EAB1DEB1DE75260AEAF4200102D2833030
:101D80000102C283B1DEC3134002C201D526EB2299
:101D9000B194EAFB208302A194308302A1997526B5
:101DA00008AE24AF25C3EF13FFEE13FEB1E2B1DEA0
:101DB000C3EA133083024480FA30E703632201C38D
:101DC000E52313F523E52213F52250066323A063D0
:101DD0002201D526D9E52265236523F52222AE24EA
:101DE000AF250E0FDEFEDFFCD20122424C48656CAF
:091DF0006934373164E8B20601E0
:00000001FF
