:020000040000FA
:060000000219E002036E8C
:03000B0002F9B047
:030013000203F6EF
:03001B000200FDE3
:03002B0002033A93
:03003B0002F93097
:03005B0002040597
:1000730053E67FC2AF7592FA7593FFD2AF53917F68
:0C008300302D08C22D303B0302F9703212
:0E009B00C29FB285C574C886A5C804C574325C
:1000B0004A4553433031202020202020202020207A
:1000C0000406080C10182030406080A0C0C2AFC0E9
:1000D00082C083903E00E493B45419A3E493B44CDB
:1000E00013A3E493B4580DA3E493B4030712F900E7
:1000F000D23B8002C23BD083D082D2AF22C2AFC2F9
:10010000A853E6EFC28E85618BC0D0D2D3C0E0C0C9
:10011000F0C2CAA8CCA9CDD2CAD2AF758A00C3E8B2
:100120009562F8E99563F9C3E913F9E813F8C3E9AF
:1001300013F9E813F8E9701DE895734018957350AA
:1001400014E582B4100F7C007B007A0079089000DF
:1001500000A860215E900000D2A8D2AA617AE0FDDA
:10016000C39CC39840EF98EB33FB0582E0FCC39D32
:10017000C39840E198EB33FB0582E0FDC39CC39834
:1001800040D398EB33FB0582E0FCC39DC39840C588
:1001900098EB33FB0582E0FDC39CC39840B798EB16
:1001A00033FB0582E0FCC39DC39840A998EB33FB69
:1001B0000582E0FDC39CC398409B98EB33FB05820E
:1001C000E0FCC39DC398408D98EB33FB058221D999
:1001D000900000D2A8D2AA617AE0FDC39CC39840E7
:1001E000EF98EA33FA0582E0FCC39DC39840E1989A
:1001F000EA33FA0582E0FDC39CC39840D398EA3302
:10020000FA0582E0FCC39DC39840C598EA33FA051D
:1002100082E0FDC39CC39840B798EA33FA0582E0B8
:10022000FCC39DC39840A998EA33FA0582E0FDC358
:100230009CC398409B98EA33FA0582E0FCC39DC3B7
:1002400098408D98EA33FA0582EBC46B6A54F0F952
:10025000EAC4303301F454F0C3996009900000D22D
:10026000A8D2AA617AD2C0EBF4C454F0F9EAF4C47B
:10027000540F49FAEBF4C4540FFBC3EAF99460FA43
:10028000EB9400FB5020C3E97B007A0079006016F4
:10029000C3135006F9C3954D600AE9F54D754E003C
:1002A00079008002054E303A27C3EA94D0F8EB94E7
:1002B00007F9400BE8FAE9FB203109D23141C4309B
:1002C0003102C231203902B231C3EA33FAEB33FBD7
:1002D000EB2B3B3BF9C3EB13FBEA13FAEA29FAEBEE
:1002E0003400FB30E3047AFF7BFFE5255403601AFA
:1002F000202A17E55833F9EB7007C3E99A4002E961
:10030000FAE536C42AFAEB3400FBC3EA33C4540FCF
:10031000F8EB33C454F048F87005EA60027801C382
:10032000EB13FBEA13FA900000E52260021522614C
:1003300090900000D2A8D2AA617AC0D0C0E0C2CF0B
:10034000053AE55C6005755C006169755C01E52353
:1003500060021523C3E54F60057550006169E550E3
:100360002401F55050037550FFD0E0D0D032C0E0EA
:10037000E58A85618BF0A3D0E0320522E522700288
:100380001522C3E5229432500261D6754F0061D91F
:10039000884FD230E86003755000C3E556FC95578E
:1003A0004002AC57C3EC954F5008EC75F004A4FA2A
:1003B000ABF0EAF4F8EBF45403F988518952752351
:1003C0000AE55530E10853F7DF43F740800B53D877
:1003D000FE43DA01800375230AE5E6A2E082C0400D
:1003E0000ED0F0D0E0D0D0D2A8D2AA43E61032D0BE
:1003F000F0D0E0D0D032C2AAD28EC2CA85CC6285FB
:10040000CD63D2CA32C2AFC0D0C0E0D2D38551FBD7
:100410008552FC85525553F7BF53DAFE53E6EF532E
:10042000F7DF53D8FED0E0D0D0D2AF3279018018B8
:1004300079038014790A8010790F800C791E800866
:100440007964800479C88000781474F0000000D5C5
:10045000E0FAD8F6D9F22279018014790380107974
:100460000A800C791E80087964800479C880007540
:1004700091007594307595F9759104D22D43E680FD
:10048000303B0BC2AF302D0912F95075A700202D5B
:10049000FDD2AFD9DA2278FF20282879A1E760239E
:1004A000E571601F74FF8571F0848539F030290390
:1004B00075F005A4F8C5F0600278FFC3E8955850C0
:1004C00002A858885722C3E57094A0E5719400E50E
:1004D0005750031481D7046002F5572275E8902223
:1004E0000559C3E5599408405330EDF4A8BDA9BEA1
:1004F000755900E9FA79A0E76041EA7006E55A60AB
:1005000018800CC3E8955A600EE55A5005600A142D
:1005100080070460FA8002E55AF55AC3955F401BD4
:100520007556C0C394044013755680C39404400BA1
:10053000755640C39404400375560022E5562410B6
:10054000500274FFF55622743279A687F0A4C5F0E4
:10055000A2F733F558227570007571F022C2AFC250
:10056000CAA8CCA9CDAA3A30CF010AD2CAD2AFC309
:10057000EA13FAE913F9E813F8853B3E853C3F8816
:100580003B893C8A3D22C2AFC2CAA8CCA9CDAA3AB7
:1005900030CF010AD2CAD2AFC3EA13FAE913F9E89D
:1005A00013F8AB3BAC3C883B893CC3E89BF8E99C27
:1005B0008840F54120280B547FF9302C030206AB0C
:1005C0008041AD3D8A3DF9EA9D547FFA600678FF8F
:1005D00079FF8013AE3EAF3F8B3E8C3FA83BA93CDA
:1005E000C3E89EF8E99FF9C3E57113FBE57013FAC0
:1005F000E82AF570E93BF57150067570FF7571FFDB
:10060000020650AA70AB71AC70AD717E047F02C35C
:10061000EB9404400D1E1FC3EB94084005202902F3
:100620001E1FC3ED13FDEC13FCDEF7C3EA9CFAEBCF
:100630009DFBEF6009C3E913F9E813F8DFF7EA2837
:10064000FAEB39FB8A708B7150067BFF8B708B71D4
:10065000C3EB94025002D22C3028057F0302067CA3
:100660007892E6FFC3E537948240110FC3E53794D3
:10067000A040010FC3EF940640027F057E02E571A2
:10068000C4540FF9E571C454F0F8E570C4540F2850
:10069000F8C3E89EFAE99400FB4009C3EA9401EB31
:1006A000940050047A01E4FB0206F7AA70AB71EBE8
:1006B000C4FEEAC4540F4EFCC3EA9CFAEB9400FB60
:1006C000C3E813C313F8EA28FAEB3400FB8A708BF3
:1006D00071C3EB94024002C22C7802EBC4FE7B0093
:1006E000EAC4540F4EFAC3EA98FA4005C394015085
:1006F000027A017892E6FF303B0BC2AF302D09122F
:10070000F95075A700202DFDD2AF854992854A93F7
:10071000D22D43E680C3E49AF8E49BF9C3E833F8AA
:10072000E933F9302C0302079AE8FAE9FBD3E9131D
:10073000FDE813FC8849894AC3EF94036038EF2031
:10074000E00CE82CF8E93DF9ECFAEDFB8013E82821
:10075000F8E939F9C3E82401F8E93400F97AFF7BB4
:10076000FFC3EF9403400F8A4B8B4C884589468C1E
:10077000478D480207CF884B894C8A458B468C476A
:100780008D48302812754BF0754CFF7547F0754851
:10079000FF7549F0754AFF0207CFE8FAD3E813FC6A
:1007A0008849C3EF94036021EF20E007E82CF8ECC0
:1007B000FAE1BAE8282401F87AFFC3EF940340096C
:1007C0008A4B88458C470207CF884B8A458C473037
:1007D0003B0BC2AF302D0912F95075A700202DFD3B
:1007E000D2AF753402D22D43E680E5255403603440
:1007F000A870A971C3E913F9E813F8C3E913F9E87C
:1008000013F8302804E92440F9C2AF53E67F75910C
:1008100000C3E498F594E499F595759104D22D43BD
:10082000E680D2AF22D220754400752000302B0321
:10083000752040800ED220754400752040302B0377
:1008400075200078017901202C28E52554036002E9
:10085000C2207919E571C313700104F8C3941940DB
:10086000027819302804781B791BC3E833F8C3E9F0
:1008700033F9202D11E544600D302803D53404D21E
:100880002101FB1207E50544E59BF45440B5200225
:1008900001E330280908C3E89940011801722020BB
:1008A0000B08C3E89940030208430172C22053E6D3
:1008B0007F759100302C117594007595F075910439
:1008C000D22D43E680020843E5717EFFC333400921
:1008D000C3334005C3334001FEC3E49E759400F565
:1008E0009501BDC3E5339401500302084330200352
:1008F000020843D80201F90172C221C2AF53E67F58
:10090000759100854B94854C95759104854592852C
:100910004693D22D43E680D2AFE5255403600720ED
:1009200029020533801030210D202B0A20200715C5
:100930008115810212322278003020027801E537D9
:1009400075F007A4F9E5F028F5F0E9A2F013A2F19B
:1009500013A2F213F537C394785003753778C3E5C3
:100960003795384009D291D293D29575D53F303B17
:100970000BC2AF302D0912F95075A700202DFDD202
:10098000AF854792854893D22D43E68022C2AF536C
:10099000E67F759100854594854695854792854803
:1009A00093759104D22D43E680D2AF22203814C231
:1009B000AFD293C290C291C29575D52FD2AF759F19
:1009C0000341ACC2AFD293C294C295C29175D53ED9
:1009D000D2AF759F0341AC203814C2AFD295C293F9
:1009E00075D53BC290C291D2AF759F1341ACC2AFD7
:1009F000D291C29375D53BC294C295D2AF759F2355
:100A000041AC203814C2AFD291C294C295C2937542
:100A1000D53BD2AF759F2341ACC2AFD295C290C235
:100A200091C29375D53BD2AF759F1341AC2038145A
:100A3000C2AFD293C29175D53EC294C295D2AF7562
:100A40009F038068C2AFD293C29575D52FC290C262
:100A500091D2AF759F038054203814C2AFD295C293
:100A600092C293C29175D53ED2AF759F13803DC29D
:100A7000AFD291C292C293C29575D52FD2AF759F56
:100A8000238029203814C2AFD291C29575D52FC2C8
:100A900092C293D2AF759F238012C2AFD295C291FA
:100AA00075D53EC292C293D2AF759F13227A1C7B3A
:100AB0003C80127A147B4B800C7A107B5A80067A29
:100AC0000A7B788000E55BD5E0012275A91375A744
:100AD0001075C10075A7007902E4D293D5E0FDD26C
:100AE00092C293D5E0FDD293D5E0FDC292C293D5D8
:100AF000E0FDE920E004D290C29130E004D294C23B
:100B000095E55BD5E0FDE920E002D29130E002D22C
:100B1000957496D5E0FDD9C1EAF8D5E0FDD8FBDBA8
:100B2000A4D29375A71075C13075A70075A90322CB
:100B3000D291D293D295D291D293D29575D53F22AC
:100B4000788076FF0876FF0876FF0876FF0876FF44
:100B50000876FF0876090876FF087601788C76011A
:100B60000876FF0876FF0876FF0876FF0876FF080C
:100B700076030876FF0876FF0876FF087625087664
:100B8000D00876280876500876040876FF087602A2
:100B90000876FF08767A0876FF0876070876010857
:100BA00076FF0876FF087600087600227888E6C38C
:100BB0009403D23A5002C23AC238E630E102D23847
:100BC000A23892397886E6149000C09378A6F67819
:100BD00086E6F539C394025003753902789CE675B0
:100BE00038FFB402037538A0B4030375388278A0C7
:100BF000E6F8600674282409D8FCF55F2278A5E69B
:100C0000F954037000E9540C7000E954307000E9A5
:100C100054C0700022AA70AB71EBC313F4FBEA134B
:100C2000F4FA8A928B93D22D43E68022C2AF53E628
:100C30007F75910085459485469575910485479209
:100C4000854893D22D43E680D2AF22755D00755E54
:100C5000007597DE7597AD7581C043FF8075EF060F
:100C600075A90075A90071307580FF75F1F075A444
:100C7000007580FF75D4FF75902A75F23F75A53F0A
:100C800075902A75D53F75A00075A60175A72075CA
:100C9000CC0175A70075E34075E2027130E4F8F607
:100CA000D8FD714012126E7898865B75300175A779
:100CB0001075C13075A70075A903C2AF1204445165
:100CC000AD12043C12043C12043C51B312043C1219
:100CD000043C12043C51B912043C12043C12043C82
:100CE00051BF51BF12044471FDC2AF75A71053CE5E
:100CF000EF75A70053A4DFD28575A91375A71075EA
:100D0000C10075A700755D00755E00AAE475E4D5A5
:100D100078FA79FA308509D9FBD8F7021C008AE401
:100D2000C2AF71AC7898865B713075A71075C13011
:100D300075A70075A90375C804759104C22D75D8EF
:100D40004075D90875F783759E0015F7759600757F
:100D5000DA4A75DB0075A82175E61075B801759B38
:100D600080759D0075D10C75BCB975BB1075E88098
:100D700075B20112042C9000007588007572201263
:100D800000CD753600C230754D00754E0075E45DBE
:100D9000D2337588517589AA758C00758D00C2A9EA
:100DA000D2ABD2AAD2AF758E0C7561007560287572
:100DB000732875220A120467756020C3E522940A1D
:100DC000754D00754E00406E758E0C7561807560B6
:100DD0001475731475220A120467756010C3E52236
:100DE000940A754D00754E00404C75E4D5C23375BC
:100DF0008E0C75610075602875732875220A1204BF
:100E000067756020C3E522940A754D00754E004059
:100E100025758E0C75618075601475731475220AC2
:100E2000120467756010C3E522940A754D00754E73
:100E3000004003020CE91200CD12045B20300302D3
:100E40000CE9C2AFA233823B400651BF51BF8004C0
:100E500051B951B9D2AF12046B120467C3E54F9474
:100E600001400280EFC2AFA233823B401D51ADD2A0
:100E7000AF120467C2AF51ADD2AF120467C2AF5117
:100E8000ADD2AF120467C2AF800651BF51BF51BF90
:100E9000D2AF12046B75300075700075710075402B
:100EA00000754100E4F531F5327520000520300170
:100EB000477520000531E531F4703D0532789AE63A
:100EC0007819146012783214600D787D14600878F7
:100ED000FA146003753200C3E53298401B7130127A
:100EE000042C15327531007899865BC2AF51BFD2A0
:100EF000AF7898865B12046712045FE52370028165
:100F0000E91204573030A5C3E54F9401500AC3E5F8
:100F10004D94015016020EAC120467E523700302D3
:100F20000CE9754D00754E000210D2C3E54D9401D9
:100F30007016C2AF71307899865B51AD7898865B38
:100F4000D2AF1204670210C1C3E54D94027016C2FD
:100F5000AF71307899865B51B37898865BD2AF12C7
:100F600004670210C1C3E54D94037016C2AF71301F
:100F70007899865B51B97898865BD2AF1204670284
:100F800010C1C3E54D94047016C2AF7130789986D4
:100F90005B51BF7898865BD2AF1204670210C1C361
:100FA000E54D94057016C2AF71307899865B51BFDC
:100FB0007898865BD2AF1204670210C1C3E54D94E6
:100FC00007701BC3E54E94065002020F01740130F6
:100FD0003A0274037888F6C238C2390210C1C3E5F8
:100FE0004D9408701BC3E54E94065002020F017425
:100FF00002303A0274047888F6D238D2390210C12D
:10100000C3E54D94097018C3E54E94065003020FD2
:1010100001303A0BC37888E69402F6C23A01C1C3A4
:10102000E54D940A7017C3E54E94065003020F0174
:10103000203A0A7888E62402F6D23A01C1C3E54D87
:1010400094147026C3E54E94065003020F01C2AFFC
:10105000901A0B740093D2AF7888F613C238C23955
:101060004002D2384002D2398057C3E54D94157002
:1010700038C3E54E9406404FC2AF901A0B740093EC
:10108000D2AFF8B801027402B802027401B80302C8
:101090007404B8040274037888F613C238C2394065
:1010A00002D2384002D2398018C3E54D940C701139
:1010B000755DA5755EF1C3E54E9406400A51B5D243
:1010C000AF754E00754D00755D00755E00C2300253
:1010D0000F01C2AF120B30E4D2AFE4F559F524F59D
:1010E00025F5377559081204571204DC30EDFDA8B8
:1010F000BDA9BEE97001F8885A1204E0755908C20A
:10110000AF120547855856855857D2AF303A07C2B7
:1011100038303102D238D228753300120A58120AF8
:1011200083120556120586120556120586120556BB
:101130001208351209371209AC120586120825204B
:101140002C03120496302C031204C612093712091C
:10115000D7120586120835120937120A02120586BF
:10116000120825120937120A2D12058612083512A7
:101170000937120A581205861204DC1208251209D2
:1011800037120A831204E012058630282785585644
:1011900079187A0CC3E53399400EC228D2298A35D2
:1011A000855856855857800CC3E54F94014003027B
:1011B0001130413A30291F202B1CE535147006C22E
:1011C00029D22A2130F535203A07C3E54F94014052
:1011D000030211308064753600203A0F78FA79A442
:1011E000E760027803C3E55098504FE523604B3029
:1011F0003A17203805203107800F303102800A204D
:101200002B07D22B855856216078F0302B05855856
:10121000567820C3E571985003021130302B1BC261
:101220002BC238303102D238D22975351285585642
:1012300021300536E54F6002413D753600C2AF12E0
:101240000B30752500D2AF120467120B30752400E5
:1012500078A4E6600CC290C291C292C293C294C2BA
:1012600095C3E53694044003020CE9020E98901AE7
:101270000D782051EEE520B4550AA351EEE520B4D7
:10128000AA028013755DA5755EF1120B4051B5750C
:101290005D00755E00801D901A0378807B0A51EE18
:1012A000A308DBFA901A0F788C7B1A51EEA308DBA7
:1012B000FA901A2922C2AF7131710E901A0074028D
:1012C00051F3A3740151F3A3742151F3901A0378DD
:1012D000807B0A51F2A308DBFA901A0F788C7B1AF4
:1012E00051F2A308DBFA71447122901A2922E49387
:1012F000F622E6438F01538FFDFFC3E583941C4024
:101300000122EF855DB7855EB7F0538FFE22438FD4
:1013100002438F01855DB7855EB7901A0DF0538F3C
:10132000FC22901A0D745551F3901A0E74AA51F3C1
:10133000227A3079D07820901A4051EEE520F709D2
:10134000A3DAF7227A3079D0901A40E751F309A353
:10135000DAF9227C05120444DCFB22C2AF120AAD8A
:04136000D2AF2222C4
:1019E0007597DE7597AD43EF02B4A5030219FD901C
:0A19F000FBFDE493B4A5F502FBC073
:1019FD00020C4B020121FFFFFFFFFFFF09FF01FF5B
:101A0D0055AA01FFFFFFFFFF03FFFFFF25D0285061
:0D1A1D0004FF02FF7AFF0701FFFF0000FF3A
:101A4000234F5F485F30302320202020202020209B
:101A500023424C48454C492445464D3842323123B7
:101A60002020202020202020202020202020202076
:101C0000C2AFC2D37597DE7597AD7581C075A90057
:101C100075A90043FF80752438752503B1DE752949
:101C2000A5752AF143F12053A4DFD28575D4FF7541
:101C3000E3407DFA780379E67C1075220075230075
:101C4000901DEB7B06752498752501308502814B2C
:101C5000208508D8FBD9F9DCF781BD308508D8FB91
:101C6000D9F9DCF781BDB19EE493A3C39A6004DD8A
:101C7000C381BDDBDBB190600281347B08E493FA61
:101C8000A3B171DBF87A30B171752200752300B110
:101C900090EAFCEBFDC3ED94FE400EB1908A278BD9
:101CA00028ED30E0048A828B83B1907AC270D8C369
:101CB000ED94FE601950CEBD0029EC600F75200038
:101CC0007521FF752900752A000200008100A827F0
:101CD000A9280809D804D90281E0B194EAF281D494
:101CE0000D81A9C3ED94035051EDA2E092007AC595
:101CF000C3E5829400E583941C508C200010438F30
:101D000002438F018529B7852AB7F0300027A8271D
:101D1000A9280809438F01538FFDD804D902A135A2
:101D2000C3E583941C4003A3A11AE28529B7852A41
:101D3000B7F0A3A11A538FFC81857AC1BD030CE4CF
:101D400093A3FAB155DCF8B14D81858187AA22AB06
:101D500023B171EBFAEA6222752608C3E52313F575
:101D600023E52213F52250066323A0632201D52622
:101D7000EAB1DEB1DE75260AEAF4200102D285302E
:101D80000102C285B1DEC3134002C201D526EB2297
:101D9000B194EAFB208502A194308502A1997526B1
:101DA00008AE24AF25C3EF13FFEE13FEB1E2B1DEA0
:101DB000C3EA133085024480FA30E703632201C38B
:101DC000E52313F523E52213F52250066323A063D0
:101DD0002201D526D9E52265236523F52222AE24EA
:101DE000AF250E0FDEFEDFFCD20122424C48656CAF
:091DF0006934373164E8B20601E0
:00000001FF
