:020000040000FA
:060000000219E002036A90
:03000B0002F9B047
:030013000203F8ED
:03001B000200FFE1
:03002B0002033697
:03003B0002F93097
:03005B0002040795
:1000730053E67FC2AF7592FA7593FFD2AF53917F68
:0C008300302D08C22D303B0302F9703212
:0E009B00C29FB285C574C886A5C804C574325C
:1000B0004A4553433031202020202020202020207A
:1000C0000406080C10182030406080A0C0C2AFC0E9
:1000D00082C083903E00E493B4541BA3E493B44CD9
:1000E00015A3E493B4580FA3A3A3E493B403071296
:1000F000F900D23B8002C23BD083D082D2AF22C271
:10010000AFC2A853E6EFC28E85618BC0D0D2D3C0F8
:10011000E0C0F0C2CAA8CCA9CDD2CAD2AF758A00BD
:10012000C3E89562F8E99563F9C3E913F9E813F8B0
:10013000C3E913F9E813F8E9701DE89573401895C1
:10014000735014E582B4100F7C007B007A007908AC
:10015000900000A8602160900000D2A8D2AA617629
:10016000E0FDC39CC39840EF98EB33FB0582E0FCB5
:10017000C39DC39840E198EB33FB0582E0FDC39C2F
:10018000C39840D398EB33FB0582E0FCC39DC39832
:1001900040C598EB33FB0582E0FDC39CC39840B794
:1001A00098EB33FB0582E0FCC39DC39840A998EB14
:1001B00033FB0582E0FDC39CC398409B98EB33FB67
:1001C0000582E0FCC39DC398408D98EB33FB05820C
:1001D00021DB900000D2A8D2AA6176E0FDC39CC3C7
:1001E0009840EF98EA33FA0582E0FCC39DC398403B
:1001F000E198EA33FA0582E0FDC39CC39840D398A6
:10020000EA33FA0582E0FCC39DC39840C598EA33FF
:10021000FA0582E0FDC39CC39840B798EA33FA051B
:1002200082E0FCC39DC39840A998EA33FA0582E0B6
:10023000FDC39CC398409B98EA33FA0582E0FCC357
:100240009DC398408D98EA33FA0582EBC46B6A54DB
:10025000F0F9EAC4303301F454F0C3996009900016
:1002600000D2A8D2AA6176D2C0EBF4C454F0F9EA65
:10027000F4C4540F49FAEBF4C4540FFBC3EAF994E5
:1002800060FAEB9400FB5020C3E97B007A00790010
:100290006016C3135006F9C3954D600AE9F54D7514
:1002A0004E0079008002054E303A27C3EA94D0F818
:1002B000EB9407F9400BE8FAE9FB203109D2314110
:1002C000C6303102C231203902B231C3EA33FAEB0F
:1002D00033FBEB2B3B3BF9C3EB13FBEA13FAEA29A5
:1002E000FAEB3400FB30E3047AFF7BFFE52554038F
:1002F000601B202A18E55833F9EB7007C3E99A40D0
:1003000002E9FAE536C4332AFAEB3400FBC3EA33D8
:10031000C4540FF8EB33C454F048F87005EA600297
:100320007801900000E52260021522618C900000A7
:10033000D2A8D2AA6176C0D0C0E0C2CF053AE55CAF
:100340006005755C006165755C01E523600215233D
:10035000C3E54F60057550006165E5502401F55017
:1003600050037550FFD0E0D0D032C0E0E58A8561FF
:100370008BF0A3D0E0320522E52270021522C3E5FE
:10038000229432500261D8754F0061DB884FD23021
:10039000E86003755000C3E556FC95574002AC5722
:1003A000C3EC954F5008EC75F008A4FAABF0EAF4F2
:1003B000F8EBF45407F9C3E8940AFAE99400FB5007
:1003C000047A007B00885189528A538B5475230A22
:1003D00053F7DF43F740800375230AE5E6A2E08286
:1003E000C0400ED0F0D0E0D0D0D2A8D2AA43E610C0
:1003F00032D0F0D0E0D0D032C2AAD28EC2CA85CCE0
:100400006285CD63D2CA32C2AFC0D0C0E0D2D3A819
:10041000F9E55530E20AE5FA20E22E20E12B8128A9
:10042000E5FA30E22420E121C3E55213F8E5511347
:10043000F5FB88FCC3E55413F8E55313F5E988EAA6
:1004400085525553F7BF53E6EF53F7DFD0E0D0D0D6
:10045000D2AF327901801879038014790A8010793B
:100460000F800C791E80087964800479C880007838
:100470001474F0000000D5E0FAD8F6D9F222790120
:10048000801479038010790A800C791E80087964C1
:10049000800479C880007591007594307595F97560
:1004A0009104D22D43E680303B0BC2AF302D0912B0
:1004B000F95075A700202DFDD2AFD9DA2278FF20A0
:1004C000282879A1E76023E571601F74FF8571F02A
:1004D000848539F030290375F005A4F8C5F0600271
:1004E00078FFC3E895585002A858885722C3E57092
:1004F00094A0E5719400E55750031481FE04600256
:10050000F5572275E890220559C3E55994084053E0
:1005100030EDF4A8BDA9BE755900E9FA79A0E760ED
:1005200041EA7006E55A6018800CC3E8955A600EDF
:10053000E55A5005600A1480070460FA8002E55A03
:10054000F55AC3955F401B7556C0C394044013759C
:100550005680C39404400B755640C3940440037501
:10056000560022E5562410500274FFF556227432CC
:1005700079A687F0A4C5F0A2F733F558227570006C
:100580007571F022C2AFC2CAA8CCA9CDAA3A30CFA9
:10059000010AD2CAD2AFC3EA13FAE913F9E813F891
:1005A000853B3E853C3F883B893C8A3D22C2AFC2A9
:1005B000CAA8CCA9CDAA3A30CF010AD2CAD2AFC3B9
:1005C000EA13FAE913F9E813F8AB3BAC3C883B8932
:1005D0003CC3E89BF8E99C8840F54120280B547FF8
:1005E000F9302C030206D28041AD3D8A3DF9EA9DE7
:1005F000547FFA600678FF79FF8013AE3EAF3F8BE1
:100600003E8C3FA83BA93CC3E89EF8E99FF9C3E5AF
:100610007113FBE57013FAE82AF570E93BF57150A8
:10062000067570FF7571FF020677AA70AB71AC702A
:10063000AD717E047F02C3EB9404400D1E1FC3EB1B
:10064000940840052029021E1FC3ED13FDEC13FC86
:10065000DEF7C3EA9CFAEB9DFBEF6009C3E913F9EF
:10066000E813F8DFF7EA28FAEB39FB8A708B715050
:10067000067BFF8B708B71C3EB94025002D22C303F
:1006800028057F030206A37892E6FFC3E53794822C
:1006900040110FC3E53794A040010FC3EF9406400B
:1006A000027F057E02E571C4540FF9E571C454F070
:1006B000F8E570C4540F28F8C3E89EFAE99400FBEB
:1006C0004009C3EA9401EB940050047A01E4FB0270
:1006D000071EAA70AB71EBC4FEEAC4540F4EFCC3F4
:1006E000EA9CFAEB9400FBC3E813C313F8EA28FA78
:1006F000EB3400FB8A708B71C3EB94024002C22C76
:100700007802EBC4FE7B00EAC4540F4EFAC3EA98A9
:10071000FA4005C3940150027A017892E6FF303B1B
:100720000BC2AF302D0912F95075A700202DFDD254
:10073000AF854992854A93D22D43E680C3E49AF867
:10074000E49BF9C3E833F8E933F9302C030207C11D
:10075000E8FAE9FBD3E913FDE813FC8849894AC3A9
:10076000EF94036038EF20E00CE82CF8E93DF9EC59
:10077000FAEDFB8013E828F8E939F9C3E82401F819
:10078000E93400F97AFF7BFFC3EF9403400F8A4BF3
:100790008B4C884589468C478D480207F6884B89E3
:1007A0004C8A458B468C478D48302812754BF07526
:1007B0004CFF7547F07548FF7549F0754AFF020711
:1007C000F6E8FAD3E813FC8849C3EF94036021EFFD
:1007D00020E007E82CF8ECFAE1E1E8282401F87AB7
:1007E000FFC3EF940340098A4B88458C470207F604
:1007F000884B8A458C47303B0BC2AF302D0912F92C
:100800005075A700202DFDD2AF753402D22D43E6DE
:1008100080E52554036034A870A971C3E913F9E891
:1008200013F8C3E913F9E813F8302804E92440F970
:10083000C2AF53E67F759100C3E498F594E499F54F
:1008400095759104D22D43E680D2AF22D220754413
:1008500000752000302B03752040800ED220754497
:1008600000752040302B0375200078017901202C81
:1008700032E52554036002C2207905E571C3137087
:100880000104C313700104C313700104F8C3940579
:1008900040027805302804781B791BC3E833F8C37D
:1008A000E933F9202D10E544600C302803D53404D9
:1008B000D221212B110C0544E59BF45440B52002B4
:1008C000211330280908C3E89940011801A320200A
:1008D0000B08C3E899400302086A01A3C22053E64B
:1008E0007F759100302C117594007595F075910409
:1008F000D22D43E68002086AE5717EFFC3334009CA
:10090000C3334005C3334001FEC3E49E759400F534
:100910009501EDC3E5339401500302086A302003CA
:1009200002086AD802212901A3C221C2AF53E67F7F
:10093000759100854B94854C9575910485459285FC
:100940004693D22D43E680D2AFE5255403600720BD
:1009500029020533801030210D202B0A2020071595
:100960008115810212282278003020027801E537B3
:1009700075F007A4F9E5F028F5F0E9A2F013A2F16B
:1009800013A2F213F537C394785003753778C3E593
:100990003795384009C290C292C29475D53F303B1A
:1009A0000BC2AF302D0912F95075A700202DFDD2D2
:1009B000AF854792854893D22D43E68022C2AF533C
:1009C000E67F7591008545948546958547928548D3
:1009D00093759104D22D43E680D2AF22203810C205
:1009E000AFD293C29175D50FD2AF759F0341ACC200
:1009F000AFD293C29575D53CD2AF759F0341AC2061
:100A00003810C2AFC29475D533C291D2AF759F135F
:100A100041ACC2AFC29075D533C295D2AF759F239A
:100A200041AC203810C2AFD291C29575D533D2AF48
:100A3000759F238077C2AFD295C29175D533D2AF5F
:100A4000759F138067203810C2AFC29275D53CC223
:100A500095D2AF759F038054C2AFC29275D50FC2B5
:100A600091D2AF759F038044203810C2AFD295C297
:100A70009375D53CD2AF759F138031C2AFD291C26E
:100A80009375D50FD2AF759F238021203810C2AF48
:100A9000C29075D50FC293D2AF759F23800EC2AF9F
:100AA000C29475D53CC293D2AF759F13227A1C7B3A
:100AB0003C80127A147B4B800C7A107B5A80067A29
:100AC0000A7B788000E55BD5E0012275A91375A744
:100AD0001075C10075A7007902E4D293D5E0FDD26C
:100AE00092D5E0FDC292D5E0FDC293D5E0FDE920AC
:100AF000E002D29030E002D294E55BD5E0FDE9203F
:100B0000E002C29030E002C2947496D5E0FDD9C9EB
:100B1000EAF8D5E0FDD8FBDBACD29375A71075C120
:100B20003075A70075A90322C290C292C294D291D7
:100B3000D293D29575D53F22788076FF0876FF084C
:100B400076FF0876FF0876FF0876FF0876090876B4
:100B5000FF087601788C76010876FF0876FF087624
:100B6000FF0876FF0876FF0876030876FF0876FF11
:100B70000876FF0876250876D0087628087650088B
:100B800076040876FF0876020876FF08767A0876FB
:100B9000FF0876070876010876FF0876FF087600DA
:100BA000087600227888E6C39403D23A5002C23A0B
:100BB000C238E630E102D238A23892397886E6149B
:100BC0009000C09378A6F67886E6F539C394025073
:100BD00003753902789CE67538FFB402037538A0B6
:100BE000B4030375388278A0E6F8600674282409F7
:100BF000D8FCF55F2278A5E6F954037000E9540C9F
:100C00007000E954307000E954C0700022AA70AB43
:100C100071EBC313F4FBEA13F4FA8A928B93D22D8F
:100C200043E68022C2AF53E67F75910085459485E7
:100C30004695759104854792854893D22D43E68069
:100C4000D2AF22755D00755E007597DE7597AD7544
:100C500081C043FF8075EF0675A90075A900712852
:100C60007580FF75F1F075A4007580FF75D4FF7570
:100C7000902A75F23F75A53F75902A75D53F75A0EE
:100C80000075A60175A72075CC0175A70075E34016
:100C900075E2027128E4F8F6D8FD713812125E7818
:100CA00098865B75300175A71075C13075A7007502
:100CB000A903C2AF12046B51AD1204631204631294
:100CC000046351B312046312046312046351B91232
:100CD000046312046312046351BF51BF12046B71A9
:100CE000F5C2AF75A71053CEEF75A70053A4DFD29E
:100CF0008575A91375A71075C10075A700755D00EE
:100D0000755E00AAE475E4D578FA79FA308509D9D8
:100D1000FBD8F7021C008AE4C2AF71A47898865B06
:100D2000712875A71075C13075A70075A90375C81E
:100D300004759104C22D75D84075D90875F7827570
:100D40009E0375960075DA4275DB4275A82175E63B
:100D50001075B801759B80759D0075D10C75BCB977
:100D600075BB1075E88075B20112045390000075D0
:100D700088007572201200CD753600C230754D00A6
:100D8000754E0075E45DD2337588517589AA758CEE
:100D900000758D00C2A9D2ABD2AAD2AF758E0C75E8
:100DA000610075602875732875220A12048E7560BB
:100DB00020C3E522940A754D00754E00406E758E75
:100DC0000C75618075601475731475220A12048E97
:100DD000756010C3E522940A754D00754E00404CB5
:100DE00075E4D5C233758E0C756100756028757316
:100DF0002875220A12048E756020C3E522940A75B4
:100E00004D00754E004025758E0C7561807560141F
:100E100075731475220A12048E756010C3E522944E
:100E20000A754D00754E004003020CE11200CD1210
:100E30000482203003020CE1C2AFA233823B4006A1
:100E400051BF51BF800451B951B9D2AF12049212AF
:100E5000048EC3E54F9401400280EFC2AFA23382FB
:100E60003B401D51ADD2AF12048EC2AF51ADD2AFD7
:100E700012048EC2AF51ADD2AF12048EC2AF800643
:100E800051BF51BF51BFD2AF12049275300075707F
:100E900000757100754000754100E4F531F532755B
:100EA000200005203001477520000531E531F47040
:100EB0003D0532789AE67819146012783214600D84
:100EC000787D14600878FA146003753200C3E53247
:100ED00098401B7128120453153275310078998699
:100EE0005BC2AF51BFD2AF7898865B12048E1204FA
:100EF00086E523700281E112047E3030A5C3E54F00
:100F00009401500AC3E54D94015016020EA212043A
:100F10008EE5237003020CE1754D00754E00021042
:100F2000C8C3E54D94017016C2AF71287899865BED
:100F300051AD7898865BD2AF12048E0210B7C3E52C
:100F40004D94027016C2AF71287899865B51B378C0
:100F500098865BD2AF12048E0210B7C3E54D94039E
:100F60007016C2AF71287899865B51B97898865B04
:100F7000D2AF12048E0210B7C3E54D94047016C2AE
:100F8000AF71287899865B51BF7898865BD2AF1293
:100F9000048E0210B7C3E54D94057016C2AF7128D8
:100FA0007899865B51BF7898865BD2AF12048E0227
:100FB00010B7C3E54D9407701BC3E54E940650026D
:100FC000020EF77401303A0274037888F6C238C210
:100FD000390210B7C3E54D9408701BC3E54E940663
:100FE0005002020EF77402303A0274047888F6D286
:100FF00038D2390210B7C3E54D94097018C3E54ED5
:1010000094065003020EF7303A0BC37888E6940238
:10101000F6C23A01B7C3E54D940A7017C3E54E9482
:10102000065003020EF7203A0A7888E62402F6D228
:101030003A01B7C3E54D94147026C3E54E940650AB
:1010400003020EF7C2AF901A0B740093D2AF7888E8
:10105000F613C238C2394002D2384002D239805722
:10106000C3E54D94157038C3E54E9406404FC2AFAA
:10107000901A0B740093D2AFF8B801027402B80250
:10108000027401B803027404B8040274037888F689
:1010900013C238C2394002D2384002D2398018C354
:1010A000E54D940C7011755DA5755EF1C3E54E9428
:1010B00006400A51A5D2AF754E00754D00755D0012
:1010C000755E00C230020EF7C2AF120B28E4D2AF39
:1010D000E4F559F524F525F53775590812047E1203
:1010E000050330EDFDA8BDA9BEE97001F8885A12CC
:1010F0000507755908C2AF12056E855856855857B1
:10110000D2AF303A07C238303102D238D2287533E4
:1011100000120A68120A8B12057D1205AD12057DB8
:101120001205AD12057D12085C1209671209DC1266
:1011300005AD12084C202C031204BD302C03120400
:10114000ED1209671209FF1205AD12085C1209675A
:10115000120A221205AD12084C120967120A451232
:1011600005AD12085C120967120A681205AD120576
:101170000312084C120967120A8B1205071205ADFB
:1011800030282785585679187A0CC3E53399400ED4
:10119000C228D2298A35855856855857800CC3E510
:1011A0004F94014003021126413030291F202B1C8F
:1011B000E535147006C229D22A2126F535203A07D2
:1011C000C3E54F9401400302112680647536002068
:1011D0003A0F78FA79A4E760027803C3E550985093
:1011E0004FE523604B303A17203805203107800F38
:1011F000303102800A202B07D22B85585621567891
:10120000F0302B058558567820C3E57198500302BD
:101210001126302B1BC22BC238303102D238D229D2
:1012200075351285585621260536E54F6002413343
:10123000753600C2AF120B28752500D2AF12048E8E
:10124000120B2875240078A4E66006C291C293C2EE
:1012500095C3E53694044003020CE1020E8E901A09
:101260000D782051DEE520B4550AA351DEE520B407
:10127000AA028013755DA5755EF1120B3851A57534
:101280005D00755E00801D901A0378807B0A51DE38
:10129000A308DBFA901A0F788C7B1A51DEA308DBC7
:1012A000FA901A2922C2AF712151FE901A007402DD
:1012B00051E3A3740251E3A3742151E3901A03781C
:1012C000807B0A51E2A308DBFA901A0F788C7B1A14
:1012D00051E2A308DBFA71347112901A2922E493C7
:1012E000F622E6438F01538FFDFFC3E583941C4034
:1012F0000122EF855DB7855EB7F0538FFE22438FE5
:1013000002438F01855DB7855EB7901A0DF0538F4C
:10131000FC22901A0D745551E3901A0E74AA51E3F1
:10132000227A3079D07820901A4051DEE520F709F2
:10133000A3DAF7227A3079D0901A40E751E309A373
:10134000DAF9227C0512046BDCFB22C2AF120AAD73
:04135000D2AF2222D4
:1019E0007597DE7597AD43EF02B4A5030219FD901C
:0A19F000FBFDE493B4A5F502FBC073
:1019FD00020C43020221FFFFFFFFFFFF09FF01FF62
:101A0D0055AA01FFFFFFFFFF03FFFFFF25D0285061
:0D1A1D0004FF02FF7AFF0701FFFF0000FF3A
:101A4000234F5F485F303523202020202020202096
:101A500023424C48454C492445464D3842323123B7
:101A60002020202020202020202020202020202076
:101C0000C2AFC2D37597DE7597AD7581C075A90057
:101C100075A90043FF80752438752503B1DE752949
:101C2000A5752AF143F12053A4DFD28575D4FF7541
:101C3000E3407DFA780379E67C1075220075230075
:101C4000901DEB7B06752498752501308502814B2C
:101C5000208508D8FBD9F9DCF781BD308508D8FB91
:101C6000D9F9DCF781BDB19EE493A3C39A6004DD8A
:101C7000C381BDDBDBB190600281347B08E493FA61
:101C8000A3B171DBF87A30B171752200752300B110
:101C900090EAFCEBFDC3ED94FE400EB1908A278BD9
:101CA00028ED30E0048A828B83B1907AC270D8C369
:101CB000ED94FE601950CEBD0029EC600F75200038
:101CC0007521FF752900752A000200008100A827F0
:101CD000A9280809D804D90281E0B194EAF281D494
:101CE0000D81A9C3ED94035051EDA2E092007AC595
:101CF000C3E5829400E583941C508C200010438F30
:101D000002438F018529B7852AB7F0300027A8271D
:101D1000A9280809438F01538FFDD804D902A135A2
:101D2000C3E583941C4003A3A11AE28529B7852A41
:101D3000B7F0A3A11A538FFC81857AC1BD030CE4CF
:101D400093A3FAB155DCF8B14D81858187AA22AB06
:101D500023B171EBFAEA6222752608C3E52313F575
:101D600023E52213F52250066323A0632201D52622
:101D7000EAB1DEB1DE75260AEAF4200102D285302E
:101D80000102C285B1DEC3134002C201D526EB2297
:101D9000B194EAFB208502A194308502A1997526B1
:101DA00008AE24AF25C3EF13FFEE13FEB1E2B1DEA0
:101DB000C3EA133085024480FA30E703632201C38B
:101DC000E52313F523E52213F52250066323A063D0
:101DD0002201D526D9E52265236523F52222AE24EA
:101DE000AF250E0FDEFEDFFCD20122424C48656CAF
:091DF0006934373164E8B20601E0
:00000001FF
