:020000040000FA
:060000000219E002036892
:03000B0002F9B047
:030013000203F0F5
:03001B000200FDE3
:03002B0002033499
:03003B0002F93097
:03005B000203FF9E
:1000730053E67FC2AF7592FA7593FFD2AF53917F68
:0C008300302D08C22D303B0302F9703212
:0E009B00C29FB281C574C886A5C804C5743260
:1000B0004A4553433031202020202020202020207A
:1000C0000406080C10182030406080A0C0C2AFC0E9
:1000D00082C083903E00E493B45419A3E493B44CDB
:1000E00013A3E493B4580DA3E493B4030712F900E7
:1000F000D23B8002C23BD083D082D2AF22C2AFC2F9
:10010000A853E6EFC28E85618BC0D0D2D3C0E0C0C9
:10011000F0C2CAA8CCA9CDD2CAD2AF758A00C3E8B2
:100120009562F8E99563F9C3E913F9E813F8C3E9AF
:1001300013F9E813F8E9701DE895734018957350AA
:1001400014E582B4100F7C007B007A0079089000DF
:1001500000A860215E900000D2A8D2AA6174E0FDE0
:10016000C39CC39840EF98EB33FB0582E0FCC39D32
:10017000C39840E198EB33FB0582E0FDC39CC39834
:1001800040D398EB33FB0582E0FCC39DC39840C588
:1001900098EB33FB0582E0FDC39CC39840B798EB16
:1001A00033FB0582E0FCC39DC39840A998EB33FB69
:1001B0000582E0FDC39CC398409B98EB33FB05820E
:1001C000E0FCC39DC398408D98EB33FB058221D999
:1001D000900000D2A8D2AA6174E0FDC39CC39840ED
:1001E000EF98EA33FA0582E0FCC39DC39840E1989A
:1001F000EA33FA0582E0FDC39CC39840D398EA3302
:10020000FA0582E0FCC39DC39840C598EA33FA051D
:1002100082E0FDC39CC39840B798EA33FA0582E0B8
:10022000FCC39DC39840A998EA33FA0582E0FDC358
:100230009CC398409B98EA33FA0582E0FCC39DC3B7
:1002400098408D98EA33FA0582EBC46B6A54F0F952
:10025000EAC4303301F454F0C3996009900000D22D
:10026000A8D2AA6174D2C0EBF4C454F0F9EAF4C481
:10027000540F49FAEBF4C4540FFBC3EAF99460FA43
:10028000EB9400FB5020C3E97B007A0079006016F4
:10029000C3135006F9C3954D600AE9F54D754E003C
:1002A00079008002054E303A27C3EA94D0F8EB94E7
:1002B00007F9400BE8FAE9FB203109D23141C4309B
:1002C0003102C231203902B231C3EA33FAEB33FBD7
:1002D000EB2B3B3BF9C3EB13FBEA13FAEA29FAEBEE
:1002E0003400FB30E3047AFF7BFFE5255403601BF9
:1002F000202A18E55833F9EB7007C3E99A4002E960
:10030000FAE536C4332AFAEB3400FBC3EA33C454AB
:100310000FF8EB33C454F048F87005EA6002780136
:10032000900000E52260021522618A900000D2A8A8
:10033000D2AA6174C0D0C0E0C2CF053AE55C6005C6
:10034000755C006163755C01E52360021523C3E5FC
:100350004F60057550006163E5502401F55050036E
:100360007550FFD0E0D0D032C0E0E58A85618BF0D7
:10037000A3D0E0320522E52270021522C3E52294C3
:1003800032500261D0754F0061D3884FD230E8609F
:1003900003755000C3E556FC95574002AC57C3ECBB
:1003A000954F5008EC75F008A4FAABF0EAF4F8EBBE
:1003B000F45407F98851895275230AE55530E2084B
:1003C00053F7DF43F740800B53D8FE43DA01800335
:1003D00075230AE5E6A2E082C0400ED0F0D0E0D05E
:1003E000D0D2A8D2AA43E61032D0F0D0E0D0D0329A
:1003F000C2AAD28EC2CA85CC6285CD63D2CA32C2AD
:10040000AFC0D0C0E0D2D38551FB8552FC85525598
:1004100053F7BF53DAFE53E6EF53F7DF53D8FED05E
:10042000E0D0D0D2AF327901801879038014790AF4
:100430008010790F800C791E80087964800479C857
:100440008000781474F0000000D5E0FAD8F6D9F2F4
:10045000227901801479038010790A800C791E803A
:10046000087964800479C8800075910075943075AE
:1004700095F9759104D22D43E680303B0BC2AF3025
:100480002D0912F95075A700202DFDD2AFD9DA221F
:1004900078FF20282879A1E76023E571601F74FFA9
:1004A0008571F0848539F030290375F005A4F8C50D
:1004B000F0600278FFC3E895585002A85888572288
:1004C000C3E57094A0E5719400E55750031481D101
:1004D000046002F5572275E890220559C3E5599446
:1004E00008405330EDF4A8BDA9BE755900E9FA796A
:1004F000A0E76041EA7006E55A6018800CC3E895F1
:100500005A600EE55A5005600A1480070460FA80AC
:1005100002E55AF55AC3955F401B7556C0C3940453
:100520004013755680C39404400B755640C3940421
:10053000400375560022E5562410500274FFF5560C
:1005400022743279A687F0A4C5F0A2F733F55822B9
:100550007570007571F022C2AFC2CAA8CCA9CDAA2D
:100560003A30CF010AD2CAD2AFC3EA13FAE913F97B
:10057000E813F8853B3E853C3F883B893C8A3D2219
:10058000C2AFC2CAA8CCA9CDAA3A30CF010AD2CAFA
:10059000D2AFC3EA13FAE913F9E813F8AB3BAC3C6A
:1005A000883B893CC3E89BF8E99C8840F5412028BA
:1005B0000B547FF9302C030206A58041AD3D8A3DE6
:1005C000F9EA9D547FFA600678FF79FF8013AE3E0A
:1005D000AF3F8B3E8C3FA83BA93CC3E89EF8E99F08
:1005E000F9C3E57113FBE57013FAE82AF570E93BEE
:1005F000F57150067570FF7571FF02064AAA70AB5F
:1006000071AC70AD717E047F02C3EB9404400D1E8B
:100610001FC3EB940840052029021E1FC3ED13FDE4
:10062000EC13FCDEF7C3EA9CFAEB9DFBEF6009C319
:10063000E913F9E813F8DFF7EA28FAEB39FB8A70D7
:100640008B7150067BFF8B708B71C3EB9402500251
:10065000D22C3028057F030206767892E6FFC3E5A8
:1006600037948240110FC3E53794A040010FC3EFC8
:10067000940640027F057E02E571C4540FF9E571CE
:10068000C454F0F8E570C4540F28F8C3E89EFAE9A2
:100690009400FB4009C3EA9401EB940050047A01F2
:1006A000E4FB0206F1AA70AB71EBC4FEEAC4540F7E
:1006B0004EFCC3EA9CFAEB9400FBC3E813C313F8A7
:1006C000EA28FAEB3400FB8A708B71C3EB9402408A
:1006D00002C22C7802EBC4FE7B00EAC4540F4EFA2F
:1006E000C3EA98FA4005C3940150027A017892E671
:1006F000FF303B0BC2AF302D0912F95075A7002017
:100700002DFDD2AF854992854A93D22D43E680C311
:10071000E49AF8E49BF9C3E833F8E933F9302C03A1
:10072000020794E8FAE9FBD3E913FDE813FC8849D2
:10073000894AC3EF94036038EF20E00CE82CF8E915
:100740003DF9ECFAEDFB8013E828F8E939F9C3E844
:100750002401F8E93400F97AFF7BFFC3EF940340EA
:100760000F8A4B8B4C884589468C478D480207C9B8
:10077000884B894C8A458B468C478D4830281275AA
:100780004BF0754CFF7547F07548FF7549F0754A99
:10079000FF0207C9E8FAD3E813FC8849C3EF9403C2
:1007A0006021EF20E007E82CF8ECFAE1B4E8282417
:1007B00001F87AFFC3EF940340098A4B88458C47C0
:1007C0000207C9884B8A458C47303B0BC2AF302D9E
:1007D0000912F95075A700202DFDD2AF753402D251
:1007E0002D43E680E52554036034A870A971C3E960
:1007F00013F9E813F8C3E913F9E813F8302804E90A
:100800002440F9C2AF53E67F759100C3E498F59494
:10081000E499F595759104D22D43E680D2AF22D2AA
:1008200020754400752000302B03752040800ED2C7
:1008300020754400752040302B0375200078017925
:1008400001202C28E52554036002C2207919E571A6
:10085000C313700104F8C3941940027819302804B6
:10086000781B791BC3E833F8C3E933F9202D11E570
:1008700044600D302803D53404D22101F41207DF7F
:100880000544E5BF5440B5200201DC30280908C307
:10089000E899400118016C20200B08C3E899400337
:1008A00002083D016CC22053E67F759100302C1187
:1008B0007594007595F0759104D22D43E680020879
:1008C0003DE5717EFFC3334009C3334005C3334068
:1008D00001FEC3E49E759400F59501B6C3E533941B
:1008E00001500302083D30200302083DD80201F206
:1008F000016CC221C2AF53E67F759100854B948590
:100900004C95759104854592854693D22D43E6809A
:10091000D2AFE5255403600720290205338010304B
:10092000210D202B0A202007158115810212592242
:1009300078003020027801E53775F007A4F9E5F07A
:1009400028F5F0E9A2F013A2F113A2F213F537C3D0
:1009500094785003753778C3E5379538400CC290CA
:10096000C291C29275D4FF75D507303B0BC2AF3030
:100970002D0912F95075A700202DFDD2AF854792A1
:10098000854893D22D43E68022C2AF53E67F75910E
:1009900000854594854695854792854893759104D1
:1009A000D22D43E680D2AF22203817C2AFC291C207
:1009B00085D290D29275D47F75D507D2AF75AA53E0
:1009C00041CCC2AFC291C287D292D29075D4DF75AA
:1009D000D507D2AF75AA5341CC203817C2AFC29207
:1009E000D29175D4BF75D507C285D290D2AF75AA02
:1009F0004341CCC2AFC290D29175D4BF75D507C266
:100A000087D292D2AF75AA6341CC203817C2AFC249
:100A100090C287D292D29175D4BF75D507D2AF75E7
:100A2000AA6341CCC2AFC292C285D290D29175D492
:100A3000BF75D507D2AF75AA4341CC203817C2AFD6
:100A4000C291D29075D4DF75D507C287D292D2AF4A
:100A500075AA538077C2AFC291D29275D47F75D5F3
:100A600007C285D290D2AF75AA538060203817C2D2
:100A7000AFC292C286D291D29075D4DF75D507D21B
:100A8000AF75AA438046C2AFC290C286D291D292BD
:100A900075D47F75D507D2AF75AA63802F2038171C
:100AA000C2AFC290D29275D47F75D507C286D2915B
:100AB000D2AF75AA638015C2AFC292D29075D4DF4F
:100AC00075D507C286D291D2AF75AA43227A1C7B14
:100AD0003C80127A147B4B800C7A107B5A80067A09
:100AE0000A7B788000E55BD5E0012275A91375A724
:100AF0001075C10075A7007902E4C291D5E0FDD25E
:100B000086D291D5E0FDC291D5E0FDC286D291D5C5
:100B1000E0FDE920E004D285D29030E004D287D213
:100B200092E55BD5E0FDE920E002C29030E002C230
:100B3000927496D5E0FDD9C1EAF8D5E0FDD8FBDB8B
:100B4000A4C29175A71075C13075A70075A90322BD
:100B5000C290C291C292C290C291C29275D4FF75E6
:100B6000D50722788076FF0876FF0876FF0876FFA3
:100B70000876FF0876FF0876090876FF0876017880
:100B80008C76010876FF0876FF0876FF0876FF0866
:100B900076FF0876030876FF0876FF0876FF08766A
:100BA000250876D00876280876500876040876FF5F
:100BB0000876020876FF08767A0876FF0876070836
:100BC00076010876FF0876FF08760008760022781E
:100BD00088E6C39403D23A5002C23AC238E630E102
:100BE00002D238A23892397886E6149000C0937801
:100BF000A6F67886E6F539C3940250037539027873
:100C00009CE67538FFB402037538A0B40303753849
:100C10008278A0E6F8600674282409D8FCF55F22E3
:100C200078A5E6F95403D2837002C283E9540CD24A
:100C3000847002C284E954307000E954C07000220C
:100C4000AA70AB71EBC313F4FBEA13F4FA8A928B2C
:100C500093D22D43E68022C2AF53E67F7591008583
:100C60004594854695759104854792854893D22D84
:100C700043E680D2AF22755D00755E007597DE7524
:100C800097AD7581C043FF8075EF0675A90075A902
:100C900000715075800275F1FF75A4F875800275BA
:100CA000D4FF75900075F20775A50775900075D58E
:100CB0000775A00075A60175A72075CC0175A70062
:100CC00075E34075E2027150E4F8F6D8FD716312E5
:100CD00012957898865B75300175A71075C13075CF
:100CE000A70075A903C2AF12043E51CD12043612FB
:100CF000043612043651D312043612043612043666
:100D000051D912043612043612043651DF51DF1263
:100D1000043E9120C2AF75A71053CEEF75A70053C4
:100D2000A4FDD28175A91375A71075C10075A70020
:100D3000755D00755E00AAE475E49178FA79FA3081
:100D40008109D9FBD8F7021C008AE4C2AF71CF78C1
:100D500098865B715075A71075C13075A70075A98D
:100D60000375C804759104C22D75D84075D90875EE
:100D7000F783759E0075960275DA4A75DB0075A8D3
:100D80002175E61075B80175BF8075AB0075D10C83
:100D900075BCB975BB1075E88075B2011204269058
:100DA00000007588007572021200CD753600C230E1
:100DB000754D00754E0075E419D2337588517589EB
:100DC000AA758C00758D00C2A9D2ABD2AAD2AF751C
:100DD0008E0C75610075602875732875220A1204DF
:100DE00061756020C3E522940A754D00754E004080
:100DF0006E758E0C75618075601475731475220A9A
:100E0000120461756010C3E522940A754D00754E99
:100E100000404C75E491C233758E0C7561007560AD
:100E20002875732875220A120461756020C3E522B3
:100E3000940A754D00754E004025758E0C756180C5
:100E400075601475731475220A120461756010C3FD
:100E5000E522940A754D00754E004003020D1412F0
:100E600000CD120455203003020D14C2AFA233820C
:100E70003B400651DF51DF800451D951D9D2AF1226
:100E80000465120461C3E54F9401400280EFC2AFD4
:100E9000A233823B401D51CDD2AF120461C2AF518B
:100EA000CDD2AF120461C2AF51CDD2AF120461C234
:100EB000AF800651DF51DF51DFD2AF1204657530CC
:100EC00000757000757100754000754100E4F531E2
:100ED000F53275200005203001477520000531E509
:100EE00031F4703D0532789AE67819146012783240
:100EF00014600D787D14600878FA14600375320070
:100F0000C3E53298401B715012042615327531002A
:100F10007899865BC2AF51DFD2AF7898865B1204B6
:100F200061120459E5237002A1141204513030A556
:100F3000C3E54F9401500AC3E54D94015016020ECB
:100F4000D5120461E5237003020D14754D00754E32
:100F5000000210F9C3E54D94017016C2AF715078CC
:100F600099865B51CD7898865BD2AF1204610210EE
:100F7000E8C3E54D94027016C2AF71507899865B54
:100F800051D37898865BD2AF1204610210E8C3E5B2
:100F90004D94037016C2AF71507899865B51D97821
:100FA00098865BD2AF1204610210E8C3E54D940449
:100FB0007016C2AF71507899865B51DF7898865B66
:100FC000D2AF1204610210E8C3E54D94057016C259
:100FD000AF71507899865B51DF7898865BD2AF12FB
:100FE00004610210E8C3E54D9407701AC3E54E94FE
:100FF000065002020F2A7401303A0274037888F610
:10100000C238C23901E8C3E54D9408701AC3E54EF1
:1010100094065002020F2A7402303A02740478884F
:10102000F6D238D23901E8C3E54D94097018C3E50A
:101030004E94065003020F2A303A0BC37888E69488
:1010400002F6C23A01E8C3E54D940A7017C3E54EB3
:1010500094065003020F2A203A0A7888E62402F602
:10106000D23A01E8C3E54D94147026C3E54E9406C8
:101070005003020F2AC2AF901A0B740093D2AF78BC
:1010800088F613C238C2394002D2384002D23980C1
:1010900057C3E54D94157038C3E54E9406404FC2D2
:1010A000AF901A0B740093D2AFF8B801027402B873
:1010B00002027401B803027404B80402740378884D
:1010C000F613C238C2394002D2384002D2398018F1
:1010D000C3E54D940C7011755DA5755EF1C3E54EC9
:1010E0009406400A51DCD2AF754E00754D00755D17
:1010F00000755E00C230020F2AC2AF120B50E4D25C
:10110000AFE4F559F524F525F53775590812045162
:101110001204D630EDFDA8BDA9BEE97001F8885AC9
:101120001204DA755908C2AF120541855856855820
:1011300057D2AF303A07C238303102D238D2287590
:101140003300120A6C120A9D120550120580120516
:101150005012058012055012082F1209301209A8EA
:1011600012058012081F202C03120490302C031249
:1011700004C01209301209D912058012082F120971
:1011800030120A0A12058012081F120930120A3B97
:1011900012058012082F120930120A6C12058012F3
:1011A00004D612081F120930120A9D1204DA120521
:1011B0008030282785585679187A0CC3E533994032
:1011C0000EC228D2298A35855856855857800CC3B7
:1011D000E54F94014003021157416130291F202B34
:1011E0001CE535147006C229D22A2157F535203A5C
:1011F00007C3E54F94014003021157806475360020
:10120000203A0F78FA79A4E760027803C3E5509892
:10121000504FE523604B303A1720380520310780C6
:101220000F303102800A202B07D22B855856218798
:1012300078F0302B058558567820C3E57198500317
:10124000021157302B1BC22BC238303102D238D298
:101250002975351285585621570536E54F600241EC
:1012600064753600C2AF120B50752500D2AF120460
:1012700061120B5075240078A4E6600CC285D290F0
:10128000C286D291C287D292C3E53694044003024B
:101290000D14020EC1901A0D78207115E520B45579
:1012A0000AA37115E520B4AA028013755DA5755EC9
:1012B000F1120B6351DC755D00755E00801D901AA4
:1012C0000378807B0A7115A308DBFA901A0F788CDB
:1012D0007B1A7115A308DBFA901A2922C2AF715844
:1012E0007135901A007402711AA37401711AA374F3
:1012F00021711A901A0378807B0A7119A308DBFA0E
:10130000901A0F788C7B1A7119A308DBFA716B7134
:1013100049901A2922E493F622E6438F01538FFD68
:10132000FFC3E583941C400122EF855DB7855EB75E
:10133000F0538FFE22438F02438F01855DB7855E98
:10134000B7901A0DF0538FFC22901A0D7455711A34
:10135000901A0E74AA711A227A3079D07820901AD5
:10136000407115E520F709A3DAF7227A3079D09099
:101370001A40E7711A09A3DAF9227C0512043EDC4F
:0B138000FB22C2AF120ACDD2AF222226
:1019E0007597DE7597AD43EF02B4A5030219FD901C
:0A19F000FBFDE493B4A5F502FBC073
:1019FD00020C76020121FFFFFFFFFFFF09FF01FF30
:101A0D0055AA01FFFFFFFFFF03FFFFFF25D0285061
:0D1A1D0004FF02FF7AFF0701FFFF0000FF3A
:101A400023515F485F303023202020202020202099
:101A500023424C48454C492445464D3842323123B7
:101A60002020202020202020202020202020202076
:101C0000C2AFC2D37597DE7597AD7581C075A90057
:101C100075A90043FF80752438752503B1DE752949
:101C2000A5752AF143F10253A4FDD28175D4FF7545
:101C3000E3407DFA780379E67C1075220075230075
:101C4000901DEB7B06752498752501308102814B30
:101C5000208108D8FBD9F9DCF781BD308108D8FB99
:101C6000D9F9DCF781BDB19EE493A3C39A6004DD8A
:101C7000C381BDDBDBB190600281347B08E493FA61
:101C8000A3B171DBF87A30B171752200752300B110
:101C900090EAFCEBFDC3ED94FE400EB1908A278BD9
:101CA00028ED30E0048A828B83B1907AC270D8C369
:101CB000ED94FE601950CEBD0029EC600F75200038
:101CC0007521FF752900752A000200008100A827F0
:101CD000A9280809D804D90281E0B194EAF281D494
:101CE0000D81A9C3ED94035051EDA2E092007AC595
:101CF000C3E5829400E583941C508C200010438F30
:101D000002438F018529B7852AB7F0300027A8271D
:101D1000A9280809438F01538FFDD804D902A135A2
:101D2000C3E583941C4003A3A11AE28529B7852A41
:101D3000B7F0A3A11A538FFC81857AC1BD030CE4CF
:101D400093A3FAB155DCF8B14D81858187AA22AB06
:101D500023B171EBFAEA6222752608C3E52313F575
:101D600023E52213F52250066323A0632201D52622
:101D7000EAB1DEB1DE75260AEAF4200102D2813032
:101D80000102C281B1DEC3134002C201D526EB229B
:101D9000B194EAFB208102A194308102A1997526B9
:101DA00008AE24AF25C3EF13FFEE13FEB1E2B1DEA0
:101DB000C3EA133081024480FA30E703632201C38F
:101DC000E52313F523E52213F52250066323A063D0
:101DD0002201D526D9E52265236523F52222AE24EA
:101DE000AF250E0FDEFEDFFCD20122424C48656CAF
:091DF0006934373164E8B20601E0
:00000001FF
