:020000040000FA
:060000000219E002036E8C
:03000B0002F9B047
:030013000203FCE9
:03001B000200FDE3
:03002B0002033A93
:03003B0002F93097
:03005B0002040B91
:1000730053E67FC2AF7592FA7593FFD2AF53917F68
:0C008300302D08C22D303B0302F9703212
:0E009B00C29FB281C574C886A5C804C5743260
:1000B0004A4553433031202020202020202020207A
:1000C0000406080C10182030406080A0C0C2AFC0E9
:1000D00082C083903E00E493B45419A3E493B44CDB
:1000E00013A3E493B4580DA3E493B4030712F900E7
:1000F000D23B8002C23BD083D082D2AF22C2AFC2F9
:10010000A853E6EFC28E85618BC0D0D2D3C0E0C0C9
:10011000F0C2CAA8CCA9CDD2CAD2AF758A00C3E8B2
:100120009562F8E99563F9C3E913F9E813F8C3E9AF
:1001300013F9E813F8E9701DE895734018957350AA
:1001400014E582B4100F7C007B007A0079089000DF
:1001500000A860215E900000D2A8D2AA617AE0FDDA
:10016000C39CC39840EF98EB33FB0582E0FCC39D32
:10017000C39840E198EB33FB0582E0FDC39CC39834
:1001800040D398EB33FB0582E0FCC39DC39840C588
:1001900098EB33FB0582E0FDC39CC39840B798EB16
:1001A00033FB0582E0FCC39DC39840A998EB33FB69
:1001B0000582E0FDC39CC398409B98EB33FB05820E
:1001C000E0FCC39DC398408D98EB33FB058221D999
:1001D000900000D2A8D2AA617AE0FDC39CC39840E7
:1001E000EF98EA33FA0582E0FCC39DC39840E1989A
:1001F000EA33FA0582E0FDC39CC39840D398EA3302
:10020000FA0582E0FCC39DC39840C598EA33FA051D
:1002100082E0FDC39CC39840B798EA33FA0582E0B8
:10022000FCC39DC39840A998EA33FA0582E0FDC358
:100230009CC398409B98EA33FA0582E0FCC39DC3B7
:1002400098408D98EA33FA0582EBC46B6A54F0F952
:10025000EAC4303301F454F0C3996009900000D22D
:10026000A8D2AA617AD2C0EBF4C454F0F9EAF4C47B
:10027000540F49FAEBF4C4540FFBC3EAF99460FA43
:10028000EB9400FB5020C3E97B007A0079006016F4
:10029000C3135006F9C3954D600AE9F54D754E003C
:1002A00079008002054E303A27C3EA94D0F8EB94E7
:1002B00007F9400BE8FAE9FB203109D23141C4309B
:1002C0003102C231203902B231C3EA33FAEB33FBD7
:1002D000EB2B3B3BF9C3EB13FBEA13FAEA29FAEBEE
:1002E0003400FB30E3047AFF7BFFE5255403601AFA
:1002F000202A17E55833F9EB7007C3E99A4002E961
:10030000FAE536C42AFAEB3400FBC3EA33C4540FCF
:10031000F8EB33C454F048F87005EA60027801C382
:10032000EB13FBEA13FA900000E52260021522614C
:1003300090900000D2A8D2AA617AC0D0C0E0C2CF0B
:10034000053AE55C6005755C006169755C01E52353
:1003500060021523C3E54F60057550006169E550E3
:100360002401F55050037550FFD0E0D0D032C0E0EA
:10037000E58A85618BF0A3D0E0320522E522700288
:100380001522C3E5229432500261DC754F0061DF13
:10039000884FD230E86003755000C3E556FC95578E
:1003A0004002AC57C3EC954F5008EC75F004A4FA2A
:1003B000ABF0EAF4F8EBF45403F9C3E8940FFAE96C
:1003C0009400FB50047A007B00885189528A538B39
:1003D0005475230A53F7DF43F740800375230AE57A
:1003E000E6A2E082C0400ED0F0D0E0D0D0D2A8D2B9
:1003F000AA43E61032D0F0D0E0D0D032C2AAD28EDA
:10040000C2CA85CC6285CD63D2CA32C2AFC0D0C069
:10041000E0D2D3A8F9E55530E10AE5FA20E12E2033
:10042000E02B812CE5FA30E22420E121C3E55213D0
:10043000F8E55113F5FB88FCC3E55413F8E55313B5
:10044000F5E988EA85525553F7BF53E6EF53F7DFD6
:10045000D0E0D0D0D2AF32790180187903801479FE
:100460000A8010790F800C791E80087964800479E5
:10047000C88000781474F0000000D5E0FAD8F6D9EE
:10048000F2227901801479038010790A800C791E98
:1004900080087964800479C8800075910075943073
:1004A0007595F9759104D22D43E680303B0BC2AFB0
:1004B000302D0912F95075A700202DFDD2AFD9DAE1
:1004C0002278FF20282879A1E76023E571601F7456
:1004D000FF8571F0848539F030290375F005A4F8A3
:1004E000C5F0600278FFC3E895585002A8588857B5
:1004F00022C3E57094A0E5719400E557500314A160
:1005000002046002F5572275E890220559C3E559A7
:100510009408405330EDF4A8BDA9BE755900E9FA1E
:1005200079A0E76041EA7006E55A6018800CC3E8DC
:10053000955A600EE55A5005600A1480070460FA67
:100540008002E55AF55AC3955F401B7556C0C394A7
:10055000044013755680C39404400B755640C394F1
:1005600004400375560022E5562410500274FFF52E
:100570005622743279A687F0A4C5F0A2F733F55855
:10058000227570007571F022C2AFC2CAA8CCA9CD85
:10059000AA3A30CF010AD2CAD2AFC3EA13FAE9139A
:1005A000F9E813F8853B3E853C3F883B893C8A3D12
:1005B00022C2AFC2CAA8CCA9CDAA3A30CF010AD272
:1005C000CAD2AFC3EA13FAE913F9E813F8AB3BACAC
:1005D0003C883B893CC3E89BF8E99C8840F5412076
:1005E000280B547FF9302C030206D68041AD3D8A9A
:1005F0003DF9EA9D547FFA600678FF79FF8013AEDB
:100600003EAF3F8B3E8C3FA83BA93CC3E89EF8E938
:100610009FF9C3E57113FBE57013FAE82AF570E959
:100620003BF57150067570FF7571FF02067BAA706D
:10063000AB71AC70AD717E047F02C3EB9404400DCE
:100640001E1FC3EB940840052029021E1FC3ED1393
:10065000FDEC13FCDEF7C3EA9CFAEB9DFBEF6009AF
:10066000C3E913F9E813F8DFF7EA28FAEB39FB8A54
:10067000708B7150067BFF8B708B71C3EB940250B3
:1006800002D22C3028057F030206A77892E6FFC32A
:10069000E537948240110FC3E53794A040010FC3A2
:1006A000EF940640027F057E02E571C4540FF9E520
:1006B00071C454F0F8E570C4540F28F8C3E89EFAEA
:1006C000E99400FB4009C3EA9401EB940050047ADA
:1006D00001E4FB020722AA70AB71EBC4FEEAC4542A
:1006E0000F4EFCC3EA9CFAEB9400FBC3E813C31360
:1006F000F8EA28FAEB3400FB8A708B71C3EB9402A2
:100700004002C22C7802EBC4FE7B00EAC4540F4EB8
:10071000FAC3EA98FA4005C3940150027A0178922C
:10072000E6FF303B0BC2AF302D0912F95075A70020
:10073000202DFDD2AF854992854A93D22D43E68084
:10074000C3E49AF8E49BF9C3E833F8E933F9302CB1
:10075000030207C5E8FAE9FBD3E913FDE813FC88B7
:1007600049894AC3EF94036038EF20E00CE82CF885
:10077000E93DF9ECFAEDFB8013E828F8E939F9C313
:10078000E82401F8E93400F97AFF7BFFC3EF940312
:10079000400F8A4B8B4C884589468C478D48020711
:1007A000FA884B894C8A458B468C478D48302812F5
:1007B000754BF0754CFF7547F07548FF7549F0753E
:1007C0004AFF0207FAE8FAD3E813FC8849C3EF941A
:1007D000036021EF20E007E82CF8ECFAE1E5E828D7
:1007E0002401F87AFFC3EF940340098A4B88458CB3
:1007F000470207FA884B8A458C47303B0BC2AF3023
:100800002D0912F95075A700202DFDD2AF753402C5
:10081000D22D43E680E52554036034A870A971C346
:10082000E913F9E813F8C3E913F9E813F8302804D9
:10083000E92440F9C2AF53E67F759100C3E498F50F
:1008400094E499F595759104D22D43E680D2AF22B8
:10085000D220754400752000302B03752040800E97
:10086000D220754400752040302B0375200078019C
:100870007901202C28E52554036002C2207919E56E
:1008800071C313700104F8C3941940027819302819
:1008900004781B791BC3E833F8C3E933F9202D1022
:1008A000E544600C302803D53404D22121241110F2
:1008B0000544E5BF5440B52002210C30280908C387
:1008C000E899400118019D20200B08C3E8994003D6
:1008D00002086E019DC22053E67F759100302C11F5
:1008E0007594007595F0759104D22D43E680020849
:1008F0006EE5717EFFC3334009C3334005C3334007
:1009000001FEC3E49E759400F59501E6C3E53394BA
:1009100001500302086E30200302086ED802212223
:10092000019DC221C2AF53E67F759100854B94852E
:100930004C95759104854592854693D22D43E6806A
:10094000D2AFE5255403600720290205338010301B
:10095000210D202B0A202007158115810212532218
:1009600078003020027801E53775F007A4F9E5F04A
:1009700028F5F0E9A2F013A2F113A2F213F537C3A0
:1009800094785003753778C3E5379538400CC285A5
:10099000C286C28775D4FF75D507303B0BC2AF3016
:1009A0002D0912F95075A700202DFDD2AF85479271
:1009B000854893D22D43E68022C2AF53E67F7591DE
:1009C00000854594854695854792854893759104A1
:1009D000D22D43E680D2AF22203813C2AFC291D2CB
:1009E0009075D47F75D503D2AF75AA5341CCC2AFF1
:1009F000C291D29275D4DF75D506D2AF75AA534194
:100A0000CC203813C2AFC28775D4BF75D505D2903C
:100A1000D2AF75AA4341CCC2AFC28575D4BF75D5DC
:100A200005D292D2AF75AA6341CC203813C2AFC2AF
:100A300090D29275D4BF75D505D2AF75AA6341CC5B
:100A4000C2AFC292D29075D4BF75D505D2AF75AA88
:100A5000438079203813C2AFC28675D4DF75D506BE
:100A6000D292D2AF75AA538063C2AFC28675D47FCB
:100A700075D503D290D2AF75AA538050203813C2D7
:100A8000AFC292D29175D4DF75D506D2AF75AA43A5
:100A9000803AC2AFC290D29175D47F75D503D2AFE0
:100AA00075AA638027203813C2AFC28575D47F75BD
:100AB000D503D291D2AF75AA638011C2AFC2877538
:100AC000D4DF75D506D291D2AF75AA43227A1C7BAA
:100AD0003C80127A147B4B800C7A107B5A80067A09
:100AE0000A7B788000E55BD5E0012275A91375A724
:100AF0001075C10075A7007902E4C291D5E0FDD25E
:100B000086D5E0FDC286D5E0FDD291D5E0FDE92095
:100B1000E002D28530E002D287E55BD5E0FDE92036
:100B2000E002C28530E002C2877496D5E0FDD9C9E3
:100B3000EAF8D5E0FDD8FBDBACC29175A71075C112
:100B40003075A70075A90322C285C286C287C290EC
:100B5000C291C29275D4FF75D50722788076FF08BE
:100B600076FF0876FF0876FF0876FF0876FF08769E
:100B7000090876FF087601788C76010876FF0876FA
:100B8000FF0876FF0876FF0876FF0876030876FFF1
:100B90000876FF0876FF0876250876D008762808BC
:100BA00076500876040876FF0876020876FF087605
:100BB0007A0876FF0876070876010876FF0876FF40
:100BC000087600087600227888E6C39403D23A506B
:100BD00002C23AC238E630E102D238A238923978FD
:100BE00086E6149000C09378A6F67886E6F539C3B9
:100BF00094025003753902789CE67538FFB40203FD
:100C00007538A0B4030375388278A0E6F8600674DE
:100C1000282409D8FCF55F2278A5E6F95403D2838D
:100C20007002C283E9540CD2847002C284E9543049
:100C30007000E954C0700022AA70AB71EBC313F4CA
:100C4000FBEA13F4FA8A928B93D22D43E68022C2F8
:100C5000AF53E67F7591008545948546957591045F
:100C6000854792854893D22D43E680D2AF22755DA9
:100C700000755E007597DE7597AD7581C043FF8086
:100C800075EF0675A90075A900714875800275F1A8
:100C9000FF75A4F875800275D4FF75900075F20792
:100CA00075A50775900075D50775A00075A6017527
:100CB000A72075CC0175A70075E34075E202714865
:100CC000E4F8F6D8FD715B1212897898865B75306E
:100CD0000175A71075C13075A70075A903C2AF12C1
:100CE000046F51CD12046712046712046751D312C6
:100CF000046712046712046751D91204671204676B
:100D000012046751DF51DF12046F9118C2AF75A74B
:100D10001053CEEF75A70053A4FDD28175A91375AA
:100D2000A71075C10075A700755D00755E00AAE487
:100D300075E49178FA79FA308109D9FBD8F7021C69
:100D4000008AE4C2AF71C77898865B714875A710B6
:100D500075C13075A70075A90375C804759104C2E3
:100D60002D75D84075D90875F782759E0315F775EE
:100D7000960275DA4275DB4275A82175E61075B8E2
:100D80000175BF8075AB0075D10C75BCB975BB1012
:100D900075E88075B20112045790000075880075DF
:100DA00072021200CD753600C230754D00754E00CE
:100DB00075E419D2337588517589AA758C00758DC3
:100DC00000C2A9D2ABD2AAD2AF758E0C75610075E4
:100DD000602875732875220A120492756020C3E595
:100DE00022940A754D00754E00406E758E0C75612B
:100DF0008075601475731475220A12049275601060
:100E0000C3E522940A754D00754E00404C75E4917F
:100E1000C233758E0C756100756028757328752254
:100E20000A120492756020C3E522940A754D00757C
:100E30004E004025758E0C756180756014757314B5
:100E400075220A120492756010C3E522940A754D4A
:100E500000754E004003020D0C1200CD12048620D6
:100E60003003020D0CC2AFA233823B400651DF516A
:100E7000DF800451D951D9D2AF120496120492C323
:100E8000E54F9401400280EFC2AFA233823B401D88
:100E900051CDD2AF120492C2AF51CDD2AF12049253
:100EA000C2AF51CDD2AF120492C2AF800651DF5112
:100EB000DF51DFD2AF120496753000757000757186
:100EC00000754000754100E4F531F53275200005EC
:100ED000203001477520000531E531F4703D0532C1
:100EE000789AE67819146012783214600D787D14BF
:100EF000600878FA146003753200C3E53298401B2D
:100F0000714812045715327531007899865BC2AF6B
:100F100051DFD2AF7898865B12049212048AE523DF
:100F20007002A10C1204823030A5C3E54F94015029
:100F30000AC3E54D94015016020ECF120492E52328
:100F40007003020D0C754D00754E000210F3C3E5E1
:100F50004D94017016C2AF71487899865B51CD7877
:100F600098865BD2AF1204920210E2C3E54D940260
:100F70007016C2AF71487899865B51D37898865BBA
:100F8000D2AF1204920210E2C3E54D94037016C270
:100F9000AF71487899865B51D97898865BD2AF1249
:100FA00004920210E2C3E54D94047016C2AF71487A
:100FB0007899865B51DF7898865BD2AF12049202F3
:100FC00010E2C3E54D94057016C2AF71487899865A
:100FD0005B51DF7898865BD2AF1204920210E2C3B5
:100FE000E54D9407701AC3E54E94065002020F2493
:100FF0007401303A0274037888F6C238C23901E2CB
:10100000C3E54D9408701AC3E54E94065002020FD2
:10101000247402303A0274047888F6D238D2390146
:10102000E2C3E54D94097018C3E54E9406500302DF
:101030000F24303A0BC37888E69402F6C23A01E2F4
:10104000C3E54D940A7017C3E54E94065003020F92
:1010500024203A0A7888E62402F6D23A01E2C3E56F
:101060004D94147026C3E54E94065003020F24C21B
:10107000AF901A0B740093D2AF7888F613C238C2BF
:10108000394002D2384002D2398057C3E54D941519
:101090007038C3E54E9406404FC2AF901A0B7400EF
:1010A00093D2AFF8B801027402B802027401B80317
:1010B000027404B8040274037888F613C238C23983
:1010C0004002D2384002D2398018C3E54D940C70EA
:1010D00011755DA5755EF1C3E54E9406400A51D0C9
:1010E000D2AF754E00754D00755D00755E00C23063
:1010F000020F24C2AF120B48E4D2AFE4F559F52435
:10110000F525F53775590812048212050730EDFDF3
:10111000A8BDA9BEE97001F8885A12050B755908D7
:10112000C2AF120572855856855857D2AF303A076C
:10113000C238303102D238D228753300120A7C12FC
:101140000AA51205811205B11205811205B1120519
:10115000811208601209601209D81205B1120850F4
:10116000202C031204C1302C031204F11209601266
:101170000A011205B1120860120960120A2A12054A
:10118000B1120850120960120A531205B112086018
:10119000120960120A7C1205B112050712085012DA
:1011A0000960120AA512050B1205B13028278558CF
:1011B0005679187A0CC3E53399400EC228D2298A91
:1011C00035855856855857800CC3E54F9401400328
:1011D000021151415B30291F202B1CE5351470068C
:1011E000C229D22A2151F535203A07C3E54F94018F
:1011F00040030211518064753600203A0F78FA7965
:10120000A4E760027803C3E55098504FE523604B94
:10121000303A17203805203107800F303102800A1C
:10122000202B07D22B855856218178F0302B05854D
:1012300058567820C3E571985003021151302B1B8A
:10124000C22BC238303102D238D2297535128558B6
:101250005621510536E54F6002415E753600C2AF3A
:10126000120B48752500D2AF120492120B48752458
:101270000078A4E66006D290D291D292C3E536946B
:10128000044003020D0C020EBB901A0D7820710968
:10129000E520B4550AA37109E520B4AA02801375AC
:1012A0005DA5755EF1120B5B51D0755D00755E003A
:1012B000801D901A0378807B0A7109A308DBFA90DD
:1012C0001A0F788C7B1A7109A308DBFA901A29226D
:1012D000C2AF714C7129901A007402710EA374018F
:1012E000710EA37421710E901A0378807B0A710D20
:1012F000A308DBFA901A0F788C7B1A710DA308DB18
:10130000FA715F713D901A2922E493F622E6438F29
:1013100001538FFDFFC3E583941C400122EF855DDF
:10132000B7855EB7F0538FFE22438F02438F01854E
:101330005DB7855EB7901A0DF0538FFC22901A0DA1
:101340007455710E901A0E74AA710E227A3079D0EB
:101350007820901A407109E520F709A3DAF7227A7C
:101360003079D0901A40E7710E09A3DAF9227C0592
:0F13700012046FDCFB22C2AF120ACDD2AF2222D1
:1019E0007597DE7597AD43EF02B4A5030219FD901C
:0A19F000FBFDE493B4A5F502FBC073
:1019FD00020C6E020121FFFFFFFFFFFF09FF01FF38
:101A0D0055AA01FFFFFFFFFF03FFFFFF25D0285061
:0D1A1D0004FF02FF7AFF0701FFFF0000FF3A
:101A400023515F485F313523202020202020202093
:101A500023424C48454C492445464D3842323123B7
:101A60002020202020202020202020202020202076
:101C0000C2AFC2D37597DE7597AD7581C075A90057
:101C100075A90043FF80752438752503B1DE752949
:101C2000A5752AF143F10253A4FDD28175D4FF7545
:101C3000E3407DFA780379E67C1075220075230075
:101C4000901DEB7B06752498752501308102814B30
:101C5000208108D8FBD9F9DCF781BD308108D8FB99
:101C6000D9F9DCF781BDB19EE493A3C39A6004DD8A
:101C7000C381BDDBDBB190600281347B08E493FA61
:101C8000A3B171DBF87A30B171752200752300B110
:101C900090EAFCEBFDC3ED94FE400EB1908A278BD9
:101CA00028ED30E0048A828B83B1907AC270D8C369
:101CB000ED94FE601950CEBD0029EC600F75200038
:101CC0007521FF752900752A000200008100A827F0
:101CD000A9280809D804D90281E0B194EAF281D494
:101CE0000D81A9C3ED94035051EDA2E092007AC595
:101CF000C3E5829400E583941C508C200010438F30
:101D000002438F018529B7852AB7F0300027A8271D
:101D1000A9280809438F01538FFDD804D902A135A2
:101D2000C3E583941C4003A3A11AE28529B7852A41
:101D3000B7F0A3A11A538FFC81857AC1BD030CE4CF
:101D400093A3FAB155DCF8B14D81858187AA22AB06
:101D500023B171EBFAEA6222752608C3E52313F575
:101D600023E52213F52250066323A0632201D52622
:101D7000EAB1DEB1DE75260AEAF4200102D2813032
:101D80000102C281B1DEC3134002C201D526EB229B
:101D9000B194EAFB208102A194308102A1997526B9
:101DA00008AE24AF25C3EF13FFEE13FEB1E2B1DEA0
:101DB000C3EA133081024480FA30E703632201C38F
:101DC000E52313F523E52213F52250066323A063D0
:101DD0002201D526D9E52265236523F52222AE24EA
:101DE000AF250E0FDEFEDFFCD20122424C48656CAF
:091DF0006934373164E8B20601E0
:00000001FF
